
Demo16_2FlashSPI_DMA.elf:     file format elf32-littlearm

Sections:
Idx Name          Size      VMA       LMA       File off  Algn
  0 .isr_vector   00000188  08000000  08000000  00010000  2**0
                  CONTENTS, ALLOC, LOAD, READONLY, DATA
  1 .text         0000ab40  08000190  08000190  00010190  2**4
                  CONTENTS, ALLOC, LOAD, READONLY, CODE
  2 .rodata       000036c4  0800acd0  0800acd0  0001acd0  2**3
                  CONTENTS, ALLOC, LOAD, READONLY, DATA
  3 .ARM.extab    00000000  0800e394  0800e394  000201e0  2**0
                  CONTENTS
  4 .ARM          00000008  0800e394  0800e394  0001e394  2**2
                  CONTENTS, ALLOC, LOAD, READONLY, DATA
  5 .preinit_array 00000000  0800e39c  0800e39c  000201e0  2**0
                  CONTENTS, ALLOC, LOAD, DATA
  6 .init_array   00000004  0800e39c  0800e39c  0001e39c  2**2
                  CONTENTS, ALLOC, LOAD, DATA
  7 .fini_array   00000004  0800e3a0  0800e3a0  0001e3a0  2**2
                  CONTENTS, ALLOC, LOAD, DATA
  8 .data         000001e0  20000000  0800e3a4  00020000  2**2
                  CONTENTS, ALLOC, LOAD, DATA
  9 .ccmram       00000000  10000000  10000000  000201e0  2**0
                  CONTENTS
 10 .bss          00000400  200001e0  200001e0  000201e0  2**2
                  ALLOC
 11 ._user_heap_stack 00000600  200005e0  200005e0  000201e0  2**0
                  ALLOC
 12 .ARM.attributes 00000030  00000000  00000000  000201e0  2**0
                  CONTENTS, READONLY
 13 .debug_info   0000c6f0  00000000  00000000  00020210  2**0
                  CONTENTS, READONLY, DEBUGGING, OCTETS
 14 .debug_abbrev 000028b1  00000000  00000000  0002c900  2**0
                  CONTENTS, READONLY, DEBUGGING, OCTETS
 15 .debug_aranges 00000bd8  00000000  00000000  0002f1b8  2**3
                  CONTENTS, READONLY, DEBUGGING, OCTETS
 16 .debug_ranges 00000a80  00000000  00000000  0002fd90  2**3
                  CONTENTS, READONLY, DEBUGGING, OCTETS
 17 .debug_macro  00022c3e  00000000  00000000  00030810  2**0
                  CONTENTS, READONLY, DEBUGGING, OCTETS
 18 .debug_line   000102e8  00000000  00000000  0005344e  2**0
                  CONTENTS, READONLY, DEBUGGING, OCTETS
 19 .debug_str    000c81ac  00000000  00000000  00063736  2**0
                  CONTENTS, READONLY, DEBUGGING, OCTETS
 20 .comment      00000050  00000000  00000000  0012b8e2  2**0
                  CONTENTS, READONLY
 21 .debug_frame  00004018  00000000  00000000  0012b934  2**2
                  CONTENTS, READONLY, DEBUGGING, OCTETS

Disassembly of section .text:

08000190 <__do_global_dtors_aux>:
 8000190:	b510      	push	{r4, lr}
 8000192:	4c05      	ldr	r4, [pc, #20]	; (80001a8 <__do_global_dtors_aux+0x18>)
 8000194:	7823      	ldrb	r3, [r4, #0]
 8000196:	b933      	cbnz	r3, 80001a6 <__do_global_dtors_aux+0x16>
 8000198:	4b04      	ldr	r3, [pc, #16]	; (80001ac <__do_global_dtors_aux+0x1c>)
 800019a:	b113      	cbz	r3, 80001a2 <__do_global_dtors_aux+0x12>
 800019c:	4804      	ldr	r0, [pc, #16]	; (80001b0 <__do_global_dtors_aux+0x20>)
 800019e:	f3af 8000 	nop.w
 80001a2:	2301      	movs	r3, #1
 80001a4:	7023      	strb	r3, [r4, #0]
 80001a6:	bd10      	pop	{r4, pc}
 80001a8:	200001e0 	.word	0x200001e0
 80001ac:	00000000 	.word	0x00000000
 80001b0:	0800acb8 	.word	0x0800acb8

080001b4 <frame_dummy>:
 80001b4:	b508      	push	{r3, lr}
 80001b6:	4b03      	ldr	r3, [pc, #12]	; (80001c4 <frame_dummy+0x10>)
 80001b8:	b11b      	cbz	r3, 80001c2 <frame_dummy+0xe>
 80001ba:	4903      	ldr	r1, [pc, #12]	; (80001c8 <frame_dummy+0x14>)
 80001bc:	4803      	ldr	r0, [pc, #12]	; (80001cc <frame_dummy+0x18>)
 80001be:	f3af 8000 	nop.w
 80001c2:	bd08      	pop	{r3, pc}
 80001c4:	00000000 	.word	0x00000000
 80001c8:	200001e4 	.word	0x200001e4
 80001cc:	0800acb8 	.word	0x0800acb8

080001d0 <strlen>:
 80001d0:	4603      	mov	r3, r0
 80001d2:	f813 2b01 	ldrb.w	r2, [r3], #1
 80001d6:	2a00      	cmp	r2, #0
 80001d8:	d1fb      	bne.n	80001d2 <strlen+0x2>
 80001da:	1a18      	subs	r0, r3, r0
 80001dc:	3801      	subs	r0, #1
 80001de:	4770      	bx	lr

080001e0 <memchr>:
 80001e0:	f001 01ff 	and.w	r1, r1, #255	; 0xff
 80001e4:	2a10      	cmp	r2, #16
 80001e6:	db2b      	blt.n	8000240 <memchr+0x60>
 80001e8:	f010 0f07 	tst.w	r0, #7
 80001ec:	d008      	beq.n	8000200 <memchr+0x20>
 80001ee:	f810 3b01 	ldrb.w	r3, [r0], #1
 80001f2:	3a01      	subs	r2, #1
 80001f4:	428b      	cmp	r3, r1
 80001f6:	d02d      	beq.n	8000254 <memchr+0x74>
 80001f8:	f010 0f07 	tst.w	r0, #7
 80001fc:	b342      	cbz	r2, 8000250 <memchr+0x70>
 80001fe:	d1f6      	bne.n	80001ee <memchr+0xe>
 8000200:	b4f0      	push	{r4, r5, r6, r7}
 8000202:	ea41 2101 	orr.w	r1, r1, r1, lsl #8
 8000206:	ea41 4101 	orr.w	r1, r1, r1, lsl #16
 800020a:	f022 0407 	bic.w	r4, r2, #7
 800020e:	f07f 0700 	mvns.w	r7, #0
 8000212:	2300      	movs	r3, #0
 8000214:	e8f0 5602 	ldrd	r5, r6, [r0], #8
 8000218:	3c08      	subs	r4, #8
 800021a:	ea85 0501 	eor.w	r5, r5, r1
 800021e:	ea86 0601 	eor.w	r6, r6, r1
 8000222:	fa85 f547 	uadd8	r5, r5, r7
 8000226:	faa3 f587 	sel	r5, r3, r7
 800022a:	fa86 f647 	uadd8	r6, r6, r7
 800022e:	faa5 f687 	sel	r6, r5, r7
 8000232:	b98e      	cbnz	r6, 8000258 <memchr+0x78>
 8000234:	d1ee      	bne.n	8000214 <memchr+0x34>
 8000236:	bcf0      	pop	{r4, r5, r6, r7}
 8000238:	f001 01ff 	and.w	r1, r1, #255	; 0xff
 800023c:	f002 0207 	and.w	r2, r2, #7
 8000240:	b132      	cbz	r2, 8000250 <memchr+0x70>
 8000242:	f810 3b01 	ldrb.w	r3, [r0], #1
 8000246:	3a01      	subs	r2, #1
 8000248:	ea83 0301 	eor.w	r3, r3, r1
 800024c:	b113      	cbz	r3, 8000254 <memchr+0x74>
 800024e:	d1f8      	bne.n	8000242 <memchr+0x62>
 8000250:	2000      	movs	r0, #0
 8000252:	4770      	bx	lr
 8000254:	3801      	subs	r0, #1
 8000256:	4770      	bx	lr
 8000258:	2d00      	cmp	r5, #0
 800025a:	bf06      	itte	eq
 800025c:	4635      	moveq	r5, r6
 800025e:	3803      	subeq	r0, #3
 8000260:	3807      	subne	r0, #7
 8000262:	f015 0f01 	tst.w	r5, #1
 8000266:	d107      	bne.n	8000278 <memchr+0x98>
 8000268:	3001      	adds	r0, #1
 800026a:	f415 7f80 	tst.w	r5, #256	; 0x100
 800026e:	bf02      	ittt	eq
 8000270:	3001      	addeq	r0, #1
 8000272:	f415 3fc0 	tsteq.w	r5, #98304	; 0x18000
 8000276:	3001      	addeq	r0, #1
 8000278:	bcf0      	pop	{r4, r5, r6, r7}
 800027a:	3801      	subs	r0, #1
 800027c:	4770      	bx	lr
 800027e:	bf00      	nop

08000280 <__aeabi_drsub>:
 8000280:	f081 4100 	eor.w	r1, r1, #2147483648	; 0x80000000
 8000284:	e002      	b.n	800028c <__adddf3>
 8000286:	bf00      	nop

08000288 <__aeabi_dsub>:
 8000288:	f083 4300 	eor.w	r3, r3, #2147483648	; 0x80000000

0800028c <__adddf3>:
 800028c:	b530      	push	{r4, r5, lr}
 800028e:	ea4f 0441 	mov.w	r4, r1, lsl #1
 8000292:	ea4f 0543 	mov.w	r5, r3, lsl #1
 8000296:	ea94 0f05 	teq	r4, r5
 800029a:	bf08      	it	eq
 800029c:	ea90 0f02 	teqeq	r0, r2
 80002a0:	bf1f      	itttt	ne
 80002a2:	ea54 0c00 	orrsne.w	ip, r4, r0
 80002a6:	ea55 0c02 	orrsne.w	ip, r5, r2
 80002aa:	ea7f 5c64 	mvnsne.w	ip, r4, asr #21
 80002ae:	ea7f 5c65 	mvnsne.w	ip, r5, asr #21
 80002b2:	f000 80e2 	beq.w	800047a <__adddf3+0x1ee>
 80002b6:	ea4f 5454 	mov.w	r4, r4, lsr #21
 80002ba:	ebd4 5555 	rsbs	r5, r4, r5, lsr #21
 80002be:	bfb8      	it	lt
 80002c0:	426d      	neglt	r5, r5
 80002c2:	dd0c      	ble.n	80002de <__adddf3+0x52>
 80002c4:	442c      	add	r4, r5
 80002c6:	ea80 0202 	eor.w	r2, r0, r2
 80002ca:	ea81 0303 	eor.w	r3, r1, r3
 80002ce:	ea82 0000 	eor.w	r0, r2, r0
 80002d2:	ea83 0101 	eor.w	r1, r3, r1
 80002d6:	ea80 0202 	eor.w	r2, r0, r2
 80002da:	ea81 0303 	eor.w	r3, r1, r3
 80002de:	2d36      	cmp	r5, #54	; 0x36
 80002e0:	bf88      	it	hi
 80002e2:	bd30      	pophi	{r4, r5, pc}
 80002e4:	f011 4f00 	tst.w	r1, #2147483648	; 0x80000000
 80002e8:	ea4f 3101 	mov.w	r1, r1, lsl #12
 80002ec:	f44f 1c80 	mov.w	ip, #1048576	; 0x100000
 80002f0:	ea4c 3111 	orr.w	r1, ip, r1, lsr #12
 80002f4:	d002      	beq.n	80002fc <__adddf3+0x70>
 80002f6:	4240      	negs	r0, r0
 80002f8:	eb61 0141 	sbc.w	r1, r1, r1, lsl #1
 80002fc:	f013 4f00 	tst.w	r3, #2147483648	; 0x80000000
 8000300:	ea4f 3303 	mov.w	r3, r3, lsl #12
 8000304:	ea4c 3313 	orr.w	r3, ip, r3, lsr #12
 8000308:	d002      	beq.n	8000310 <__adddf3+0x84>
 800030a:	4252      	negs	r2, r2
 800030c:	eb63 0343 	sbc.w	r3, r3, r3, lsl #1
 8000310:	ea94 0f05 	teq	r4, r5
 8000314:	f000 80a7 	beq.w	8000466 <__adddf3+0x1da>
 8000318:	f1a4 0401 	sub.w	r4, r4, #1
 800031c:	f1d5 0e20 	rsbs	lr, r5, #32
 8000320:	db0d      	blt.n	800033e <__adddf3+0xb2>
 8000322:	fa02 fc0e 	lsl.w	ip, r2, lr
 8000326:	fa22 f205 	lsr.w	r2, r2, r5
 800032a:	1880      	adds	r0, r0, r2
 800032c:	f141 0100 	adc.w	r1, r1, #0
 8000330:	fa03 f20e 	lsl.w	r2, r3, lr
 8000334:	1880      	adds	r0, r0, r2
 8000336:	fa43 f305 	asr.w	r3, r3, r5
 800033a:	4159      	adcs	r1, r3
 800033c:	e00e      	b.n	800035c <__adddf3+0xd0>
 800033e:	f1a5 0520 	sub.w	r5, r5, #32
 8000342:	f10e 0e20 	add.w	lr, lr, #32
 8000346:	2a01      	cmp	r2, #1
 8000348:	fa03 fc0e 	lsl.w	ip, r3, lr
 800034c:	bf28      	it	cs
 800034e:	f04c 0c02 	orrcs.w	ip, ip, #2
 8000352:	fa43 f305 	asr.w	r3, r3, r5
 8000356:	18c0      	adds	r0, r0, r3
 8000358:	eb51 71e3 	adcs.w	r1, r1, r3, asr #31
 800035c:	f001 4500 	and.w	r5, r1, #2147483648	; 0x80000000
 8000360:	d507      	bpl.n	8000372 <__adddf3+0xe6>
 8000362:	f04f 0e00 	mov.w	lr, #0
 8000366:	f1dc 0c00 	rsbs	ip, ip, #0
 800036a:	eb7e 0000 	sbcs.w	r0, lr, r0
 800036e:	eb6e 0101 	sbc.w	r1, lr, r1
 8000372:	f5b1 1f80 	cmp.w	r1, #1048576	; 0x100000
 8000376:	d31b      	bcc.n	80003b0 <__adddf3+0x124>
 8000378:	f5b1 1f00 	cmp.w	r1, #2097152	; 0x200000
 800037c:	d30c      	bcc.n	8000398 <__adddf3+0x10c>
 800037e:	0849      	lsrs	r1, r1, #1
 8000380:	ea5f 0030 	movs.w	r0, r0, rrx
 8000384:	ea4f 0c3c 	mov.w	ip, ip, rrx
 8000388:	f104 0401 	add.w	r4, r4, #1
 800038c:	ea4f 5244 	mov.w	r2, r4, lsl #21
 8000390:	f512 0f80 	cmn.w	r2, #4194304	; 0x400000
 8000394:	f080 809a 	bcs.w	80004cc <__adddf3+0x240>
 8000398:	f1bc 4f00 	cmp.w	ip, #2147483648	; 0x80000000
 800039c:	bf08      	it	eq
 800039e:	ea5f 0c50 	movseq.w	ip, r0, lsr #1
 80003a2:	f150 0000 	adcs.w	r0, r0, #0
 80003a6:	eb41 5104 	adc.w	r1, r1, r4, lsl #20
 80003aa:	ea41 0105 	orr.w	r1, r1, r5
 80003ae:	bd30      	pop	{r4, r5, pc}
 80003b0:	ea5f 0c4c 	movs.w	ip, ip, lsl #1
 80003b4:	4140      	adcs	r0, r0
 80003b6:	eb41 0101 	adc.w	r1, r1, r1
 80003ba:	3c01      	subs	r4, #1
 80003bc:	bf28      	it	cs
 80003be:	f5b1 1f80 	cmpcs.w	r1, #1048576	; 0x100000
 80003c2:	d2e9      	bcs.n	8000398 <__adddf3+0x10c>
 80003c4:	f091 0f00 	teq	r1, #0
 80003c8:	bf04      	itt	eq
 80003ca:	4601      	moveq	r1, r0
 80003cc:	2000      	moveq	r0, #0
 80003ce:	fab1 f381 	clz	r3, r1
 80003d2:	bf08      	it	eq
 80003d4:	3320      	addeq	r3, #32
 80003d6:	f1a3 030b 	sub.w	r3, r3, #11
 80003da:	f1b3 0220 	subs.w	r2, r3, #32
 80003de:	da0c      	bge.n	80003fa <__adddf3+0x16e>
 80003e0:	320c      	adds	r2, #12
 80003e2:	dd08      	ble.n	80003f6 <__adddf3+0x16a>
 80003e4:	f102 0c14 	add.w	ip, r2, #20
 80003e8:	f1c2 020c 	rsb	r2, r2, #12
 80003ec:	fa01 f00c 	lsl.w	r0, r1, ip
 80003f0:	fa21 f102 	lsr.w	r1, r1, r2
 80003f4:	e00c      	b.n	8000410 <__adddf3+0x184>
 80003f6:	f102 0214 	add.w	r2, r2, #20
 80003fa:	bfd8      	it	le
 80003fc:	f1c2 0c20 	rsble	ip, r2, #32
 8000400:	fa01 f102 	lsl.w	r1, r1, r2
 8000404:	fa20 fc0c 	lsr.w	ip, r0, ip
 8000408:	bfdc      	itt	le
 800040a:	ea41 010c 	orrle.w	r1, r1, ip
 800040e:	4090      	lslle	r0, r2
 8000410:	1ae4      	subs	r4, r4, r3
 8000412:	bfa2      	ittt	ge
 8000414:	eb01 5104 	addge.w	r1, r1, r4, lsl #20
 8000418:	4329      	orrge	r1, r5
 800041a:	bd30      	popge	{r4, r5, pc}
 800041c:	ea6f 0404 	mvn.w	r4, r4
 8000420:	3c1f      	subs	r4, #31
 8000422:	da1c      	bge.n	800045e <__adddf3+0x1d2>
 8000424:	340c      	adds	r4, #12
 8000426:	dc0e      	bgt.n	8000446 <__adddf3+0x1ba>
 8000428:	f104 0414 	add.w	r4, r4, #20
 800042c:	f1c4 0220 	rsb	r2, r4, #32
 8000430:	fa20 f004 	lsr.w	r0, r0, r4
 8000434:	fa01 f302 	lsl.w	r3, r1, r2
 8000438:	ea40 0003 	orr.w	r0, r0, r3
 800043c:	fa21 f304 	lsr.w	r3, r1, r4
 8000440:	ea45 0103 	orr.w	r1, r5, r3
 8000444:	bd30      	pop	{r4, r5, pc}
 8000446:	f1c4 040c 	rsb	r4, r4, #12
 800044a:	f1c4 0220 	rsb	r2, r4, #32
 800044e:	fa20 f002 	lsr.w	r0, r0, r2
 8000452:	fa01 f304 	lsl.w	r3, r1, r4
 8000456:	ea40 0003 	orr.w	r0, r0, r3
 800045a:	4629      	mov	r1, r5
 800045c:	bd30      	pop	{r4, r5, pc}
 800045e:	fa21 f004 	lsr.w	r0, r1, r4
 8000462:	4629      	mov	r1, r5
 8000464:	bd30      	pop	{r4, r5, pc}
 8000466:	f094 0f00 	teq	r4, #0
 800046a:	f483 1380 	eor.w	r3, r3, #1048576	; 0x100000
 800046e:	bf06      	itte	eq
 8000470:	f481 1180 	eoreq.w	r1, r1, #1048576	; 0x100000
 8000474:	3401      	addeq	r4, #1
 8000476:	3d01      	subne	r5, #1
 8000478:	e74e      	b.n	8000318 <__adddf3+0x8c>
 800047a:	ea7f 5c64 	mvns.w	ip, r4, asr #21
 800047e:	bf18      	it	ne
 8000480:	ea7f 5c65 	mvnsne.w	ip, r5, asr #21
 8000484:	d029      	beq.n	80004da <__adddf3+0x24e>
 8000486:	ea94 0f05 	teq	r4, r5
 800048a:	bf08      	it	eq
 800048c:	ea90 0f02 	teqeq	r0, r2
 8000490:	d005      	beq.n	800049e <__adddf3+0x212>
 8000492:	ea54 0c00 	orrs.w	ip, r4, r0
 8000496:	bf04      	itt	eq
 8000498:	4619      	moveq	r1, r3
 800049a:	4610      	moveq	r0, r2
 800049c:	bd30      	pop	{r4, r5, pc}
 800049e:	ea91 0f03 	teq	r1, r3
 80004a2:	bf1e      	ittt	ne
 80004a4:	2100      	movne	r1, #0
 80004a6:	2000      	movne	r0, #0
 80004a8:	bd30      	popne	{r4, r5, pc}
 80004aa:	ea5f 5c54 	movs.w	ip, r4, lsr #21
 80004ae:	d105      	bne.n	80004bc <__adddf3+0x230>
 80004b0:	0040      	lsls	r0, r0, #1
 80004b2:	4149      	adcs	r1, r1
 80004b4:	bf28      	it	cs
 80004b6:	f041 4100 	orrcs.w	r1, r1, #2147483648	; 0x80000000
 80004ba:	bd30      	pop	{r4, r5, pc}
 80004bc:	f514 0480 	adds.w	r4, r4, #4194304	; 0x400000
 80004c0:	bf3c      	itt	cc
 80004c2:	f501 1180 	addcc.w	r1, r1, #1048576	; 0x100000
 80004c6:	bd30      	popcc	{r4, r5, pc}
 80004c8:	f001 4500 	and.w	r5, r1, #2147483648	; 0x80000000
 80004cc:	f045 41fe 	orr.w	r1, r5, #2130706432	; 0x7f000000
 80004d0:	f441 0170 	orr.w	r1, r1, #15728640	; 0xf00000
 80004d4:	f04f 0000 	mov.w	r0, #0
 80004d8:	bd30      	pop	{r4, r5, pc}
 80004da:	ea7f 5c64 	mvns.w	ip, r4, asr #21
 80004de:	bf1a      	itte	ne
 80004e0:	4619      	movne	r1, r3
 80004e2:	4610      	movne	r0, r2
 80004e4:	ea7f 5c65 	mvnseq.w	ip, r5, asr #21
 80004e8:	bf1c      	itt	ne
 80004ea:	460b      	movne	r3, r1
 80004ec:	4602      	movne	r2, r0
 80004ee:	ea50 3401 	orrs.w	r4, r0, r1, lsl #12
 80004f2:	bf06      	itte	eq
 80004f4:	ea52 3503 	orrseq.w	r5, r2, r3, lsl #12
 80004f8:	ea91 0f03 	teqeq	r1, r3
 80004fc:	f441 2100 	orrne.w	r1, r1, #524288	; 0x80000
 8000500:	bd30      	pop	{r4, r5, pc}
 8000502:	bf00      	nop

08000504 <__aeabi_ui2d>:
 8000504:	f090 0f00 	teq	r0, #0
 8000508:	bf04      	itt	eq
 800050a:	2100      	moveq	r1, #0
 800050c:	4770      	bxeq	lr
 800050e:	b530      	push	{r4, r5, lr}
 8000510:	f44f 6480 	mov.w	r4, #1024	; 0x400
 8000514:	f104 0432 	add.w	r4, r4, #50	; 0x32
 8000518:	f04f 0500 	mov.w	r5, #0
 800051c:	f04f 0100 	mov.w	r1, #0
 8000520:	e750      	b.n	80003c4 <__adddf3+0x138>
 8000522:	bf00      	nop

08000524 <__aeabi_i2d>:
 8000524:	f090 0f00 	teq	r0, #0
 8000528:	bf04      	itt	eq
 800052a:	2100      	moveq	r1, #0
 800052c:	4770      	bxeq	lr
 800052e:	b530      	push	{r4, r5, lr}
 8000530:	f44f 6480 	mov.w	r4, #1024	; 0x400
 8000534:	f104 0432 	add.w	r4, r4, #50	; 0x32
 8000538:	f010 4500 	ands.w	r5, r0, #2147483648	; 0x80000000
 800053c:	bf48      	it	mi
 800053e:	4240      	negmi	r0, r0
 8000540:	f04f 0100 	mov.w	r1, #0
 8000544:	e73e      	b.n	80003c4 <__adddf3+0x138>
 8000546:	bf00      	nop

08000548 <__aeabi_f2d>:
 8000548:	0042      	lsls	r2, r0, #1
 800054a:	ea4f 01e2 	mov.w	r1, r2, asr #3
 800054e:	ea4f 0131 	mov.w	r1, r1, rrx
 8000552:	ea4f 7002 	mov.w	r0, r2, lsl #28
 8000556:	bf1f      	itttt	ne
 8000558:	f012 437f 	andsne.w	r3, r2, #4278190080	; 0xff000000
 800055c:	f093 4f7f 	teqne	r3, #4278190080	; 0xff000000
 8000560:	f081 5160 	eorne.w	r1, r1, #939524096	; 0x38000000
 8000564:	4770      	bxne	lr
 8000566:	f032 427f 	bics.w	r2, r2, #4278190080	; 0xff000000
 800056a:	bf08      	it	eq
 800056c:	4770      	bxeq	lr
 800056e:	f093 4f7f 	teq	r3, #4278190080	; 0xff000000
 8000572:	bf04      	itt	eq
 8000574:	f441 2100 	orreq.w	r1, r1, #524288	; 0x80000
 8000578:	4770      	bxeq	lr
 800057a:	b530      	push	{r4, r5, lr}
 800057c:	f44f 7460 	mov.w	r4, #896	; 0x380
 8000580:	f001 4500 	and.w	r5, r1, #2147483648	; 0x80000000
 8000584:	f021 4100 	bic.w	r1, r1, #2147483648	; 0x80000000
 8000588:	e71c      	b.n	80003c4 <__adddf3+0x138>
 800058a:	bf00      	nop

0800058c <__aeabi_ul2d>:
 800058c:	ea50 0201 	orrs.w	r2, r0, r1
 8000590:	bf08      	it	eq
 8000592:	4770      	bxeq	lr
 8000594:	b530      	push	{r4, r5, lr}
 8000596:	f04f 0500 	mov.w	r5, #0
 800059a:	e00a      	b.n	80005b2 <__aeabi_l2d+0x16>

0800059c <__aeabi_l2d>:
 800059c:	ea50 0201 	orrs.w	r2, r0, r1
 80005a0:	bf08      	it	eq
 80005a2:	4770      	bxeq	lr
 80005a4:	b530      	push	{r4, r5, lr}
 80005a6:	f011 4500 	ands.w	r5, r1, #2147483648	; 0x80000000
 80005aa:	d502      	bpl.n	80005b2 <__aeabi_l2d+0x16>
 80005ac:	4240      	negs	r0, r0
 80005ae:	eb61 0141 	sbc.w	r1, r1, r1, lsl #1
 80005b2:	f44f 6480 	mov.w	r4, #1024	; 0x400
 80005b6:	f104 0432 	add.w	r4, r4, #50	; 0x32
 80005ba:	ea5f 5c91 	movs.w	ip, r1, lsr #22
 80005be:	f43f aed8 	beq.w	8000372 <__adddf3+0xe6>
 80005c2:	f04f 0203 	mov.w	r2, #3
 80005c6:	ea5f 0cdc 	movs.w	ip, ip, lsr #3
 80005ca:	bf18      	it	ne
 80005cc:	3203      	addne	r2, #3
 80005ce:	ea5f 0cdc 	movs.w	ip, ip, lsr #3
 80005d2:	bf18      	it	ne
 80005d4:	3203      	addne	r2, #3
 80005d6:	eb02 02dc 	add.w	r2, r2, ip, lsr #3
 80005da:	f1c2 0320 	rsb	r3, r2, #32
 80005de:	fa00 fc03 	lsl.w	ip, r0, r3
 80005e2:	fa20 f002 	lsr.w	r0, r0, r2
 80005e6:	fa01 fe03 	lsl.w	lr, r1, r3
 80005ea:	ea40 000e 	orr.w	r0, r0, lr
 80005ee:	fa21 f102 	lsr.w	r1, r1, r2
 80005f2:	4414      	add	r4, r2
 80005f4:	e6bd      	b.n	8000372 <__adddf3+0xe6>
 80005f6:	bf00      	nop

080005f8 <__aeabi_dmul>:
 80005f8:	b570      	push	{r4, r5, r6, lr}
 80005fa:	f04f 0cff 	mov.w	ip, #255	; 0xff
 80005fe:	f44c 6ce0 	orr.w	ip, ip, #1792	; 0x700
 8000602:	ea1c 5411 	ands.w	r4, ip, r1, lsr #20
 8000606:	bf1d      	ittte	ne
 8000608:	ea1c 5513 	andsne.w	r5, ip, r3, lsr #20
 800060c:	ea94 0f0c 	teqne	r4, ip
 8000610:	ea95 0f0c 	teqne	r5, ip
 8000614:	f000 f8de 	bleq	80007d4 <__aeabi_dmul+0x1dc>
 8000618:	442c      	add	r4, r5
 800061a:	ea81 0603 	eor.w	r6, r1, r3
 800061e:	ea21 514c 	bic.w	r1, r1, ip, lsl #21
 8000622:	ea23 534c 	bic.w	r3, r3, ip, lsl #21
 8000626:	ea50 3501 	orrs.w	r5, r0, r1, lsl #12
 800062a:	bf18      	it	ne
 800062c:	ea52 3503 	orrsne.w	r5, r2, r3, lsl #12
 8000630:	f441 1180 	orr.w	r1, r1, #1048576	; 0x100000
 8000634:	f443 1380 	orr.w	r3, r3, #1048576	; 0x100000
 8000638:	d038      	beq.n	80006ac <__aeabi_dmul+0xb4>
 800063a:	fba0 ce02 	umull	ip, lr, r0, r2
 800063e:	f04f 0500 	mov.w	r5, #0
 8000642:	fbe1 e502 	umlal	lr, r5, r1, r2
 8000646:	f006 4200 	and.w	r2, r6, #2147483648	; 0x80000000
 800064a:	fbe0 e503 	umlal	lr, r5, r0, r3
 800064e:	f04f 0600 	mov.w	r6, #0
 8000652:	fbe1 5603 	umlal	r5, r6, r1, r3
 8000656:	f09c 0f00 	teq	ip, #0
 800065a:	bf18      	it	ne
 800065c:	f04e 0e01 	orrne.w	lr, lr, #1
 8000660:	f1a4 04ff 	sub.w	r4, r4, #255	; 0xff
 8000664:	f5b6 7f00 	cmp.w	r6, #512	; 0x200
 8000668:	f564 7440 	sbc.w	r4, r4, #768	; 0x300
 800066c:	d204      	bcs.n	8000678 <__aeabi_dmul+0x80>
 800066e:	ea5f 0e4e 	movs.w	lr, lr, lsl #1
 8000672:	416d      	adcs	r5, r5
 8000674:	eb46 0606 	adc.w	r6, r6, r6
 8000678:	ea42 21c6 	orr.w	r1, r2, r6, lsl #11
 800067c:	ea41 5155 	orr.w	r1, r1, r5, lsr #21
 8000680:	ea4f 20c5 	mov.w	r0, r5, lsl #11
 8000684:	ea40 505e 	orr.w	r0, r0, lr, lsr #21
 8000688:	ea4f 2ece 	mov.w	lr, lr, lsl #11
 800068c:	f1b4 0cfd 	subs.w	ip, r4, #253	; 0xfd
 8000690:	bf88      	it	hi
 8000692:	f5bc 6fe0 	cmphi.w	ip, #1792	; 0x700
 8000696:	d81e      	bhi.n	80006d6 <__aeabi_dmul+0xde>
 8000698:	f1be 4f00 	cmp.w	lr, #2147483648	; 0x80000000
 800069c:	bf08      	it	eq
 800069e:	ea5f 0e50 	movseq.w	lr, r0, lsr #1
 80006a2:	f150 0000 	adcs.w	r0, r0, #0
 80006a6:	eb41 5104 	adc.w	r1, r1, r4, lsl #20
 80006aa:	bd70      	pop	{r4, r5, r6, pc}
 80006ac:	f006 4600 	and.w	r6, r6, #2147483648	; 0x80000000
 80006b0:	ea46 0101 	orr.w	r1, r6, r1
 80006b4:	ea40 0002 	orr.w	r0, r0, r2
 80006b8:	ea81 0103 	eor.w	r1, r1, r3
 80006bc:	ebb4 045c 	subs.w	r4, r4, ip, lsr #1
 80006c0:	bfc2      	ittt	gt
 80006c2:	ebd4 050c 	rsbsgt	r5, r4, ip
 80006c6:	ea41 5104 	orrgt.w	r1, r1, r4, lsl #20
 80006ca:	bd70      	popgt	{r4, r5, r6, pc}
 80006cc:	f441 1180 	orr.w	r1, r1, #1048576	; 0x100000
 80006d0:	f04f 0e00 	mov.w	lr, #0
 80006d4:	3c01      	subs	r4, #1
 80006d6:	f300 80ab 	bgt.w	8000830 <__aeabi_dmul+0x238>
 80006da:	f114 0f36 	cmn.w	r4, #54	; 0x36
 80006de:	bfde      	ittt	le
 80006e0:	2000      	movle	r0, #0
 80006e2:	f001 4100 	andle.w	r1, r1, #2147483648	; 0x80000000
 80006e6:	bd70      	pople	{r4, r5, r6, pc}
 80006e8:	f1c4 0400 	rsb	r4, r4, #0
 80006ec:	3c20      	subs	r4, #32
 80006ee:	da35      	bge.n	800075c <__aeabi_dmul+0x164>
 80006f0:	340c      	adds	r4, #12
 80006f2:	dc1b      	bgt.n	800072c <__aeabi_dmul+0x134>
 80006f4:	f104 0414 	add.w	r4, r4, #20
 80006f8:	f1c4 0520 	rsb	r5, r4, #32
 80006fc:	fa00 f305 	lsl.w	r3, r0, r5
 8000700:	fa20 f004 	lsr.w	r0, r0, r4
 8000704:	fa01 f205 	lsl.w	r2, r1, r5
 8000708:	ea40 0002 	orr.w	r0, r0, r2
 800070c:	f001 4200 	and.w	r2, r1, #2147483648	; 0x80000000
 8000710:	f021 4100 	bic.w	r1, r1, #2147483648	; 0x80000000
 8000714:	eb10 70d3 	adds.w	r0, r0, r3, lsr #31
 8000718:	fa21 f604 	lsr.w	r6, r1, r4
 800071c:	eb42 0106 	adc.w	r1, r2, r6
 8000720:	ea5e 0e43 	orrs.w	lr, lr, r3, lsl #1
 8000724:	bf08      	it	eq
 8000726:	ea20 70d3 	biceq.w	r0, r0, r3, lsr #31
 800072a:	bd70      	pop	{r4, r5, r6, pc}
 800072c:	f1c4 040c 	rsb	r4, r4, #12
 8000730:	f1c4 0520 	rsb	r5, r4, #32
 8000734:	fa00 f304 	lsl.w	r3, r0, r4
 8000738:	fa20 f005 	lsr.w	r0, r0, r5
 800073c:	fa01 f204 	lsl.w	r2, r1, r4
 8000740:	ea40 0002 	orr.w	r0, r0, r2
 8000744:	f001 4100 	and.w	r1, r1, #2147483648	; 0x80000000
 8000748:	eb10 70d3 	adds.w	r0, r0, r3, lsr #31
 800074c:	f141 0100 	adc.w	r1, r1, #0
 8000750:	ea5e 0e43 	orrs.w	lr, lr, r3, lsl #1
 8000754:	bf08      	it	eq
 8000756:	ea20 70d3 	biceq.w	r0, r0, r3, lsr #31
 800075a:	bd70      	pop	{r4, r5, r6, pc}
 800075c:	f1c4 0520 	rsb	r5, r4, #32
 8000760:	fa00 f205 	lsl.w	r2, r0, r5
 8000764:	ea4e 0e02 	orr.w	lr, lr, r2
 8000768:	fa20 f304 	lsr.w	r3, r0, r4
 800076c:	fa01 f205 	lsl.w	r2, r1, r5
 8000770:	ea43 0302 	orr.w	r3, r3, r2
 8000774:	fa21 f004 	lsr.w	r0, r1, r4
 8000778:	f001 4100 	and.w	r1, r1, #2147483648	; 0x80000000
 800077c:	fa21 f204 	lsr.w	r2, r1, r4
 8000780:	ea20 0002 	bic.w	r0, r0, r2
 8000784:	eb00 70d3 	add.w	r0, r0, r3, lsr #31
 8000788:	ea5e 0e43 	orrs.w	lr, lr, r3, lsl #1
 800078c:	bf08      	it	eq
 800078e:	ea20 70d3 	biceq.w	r0, r0, r3, lsr #31
 8000792:	bd70      	pop	{r4, r5, r6, pc}
 8000794:	f094 0f00 	teq	r4, #0
 8000798:	d10f      	bne.n	80007ba <__aeabi_dmul+0x1c2>
 800079a:	f001 4600 	and.w	r6, r1, #2147483648	; 0x80000000
 800079e:	0040      	lsls	r0, r0, #1
 80007a0:	eb41 0101 	adc.w	r1, r1, r1
 80007a4:	f411 1f80 	tst.w	r1, #1048576	; 0x100000
 80007a8:	bf08      	it	eq
 80007aa:	3c01      	subeq	r4, #1
 80007ac:	d0f7      	beq.n	800079e <__aeabi_dmul+0x1a6>
 80007ae:	ea41 0106 	orr.w	r1, r1, r6
 80007b2:	f095 0f00 	teq	r5, #0
 80007b6:	bf18      	it	ne
 80007b8:	4770      	bxne	lr
 80007ba:	f003 4600 	and.w	r6, r3, #2147483648	; 0x80000000
 80007be:	0052      	lsls	r2, r2, #1
 80007c0:	eb43 0303 	adc.w	r3, r3, r3
 80007c4:	f413 1f80 	tst.w	r3, #1048576	; 0x100000
 80007c8:	bf08      	it	eq
 80007ca:	3d01      	subeq	r5, #1
 80007cc:	d0f7      	beq.n	80007be <__aeabi_dmul+0x1c6>
 80007ce:	ea43 0306 	orr.w	r3, r3, r6
 80007d2:	4770      	bx	lr
 80007d4:	ea94 0f0c 	teq	r4, ip
 80007d8:	ea0c 5513 	and.w	r5, ip, r3, lsr #20
 80007dc:	bf18      	it	ne
 80007de:	ea95 0f0c 	teqne	r5, ip
 80007e2:	d00c      	beq.n	80007fe <__aeabi_dmul+0x206>
 80007e4:	ea50 0641 	orrs.w	r6, r0, r1, lsl #1
 80007e8:	bf18      	it	ne
 80007ea:	ea52 0643 	orrsne.w	r6, r2, r3, lsl #1
 80007ee:	d1d1      	bne.n	8000794 <__aeabi_dmul+0x19c>
 80007f0:	ea81 0103 	eor.w	r1, r1, r3
 80007f4:	f001 4100 	and.w	r1, r1, #2147483648	; 0x80000000
 80007f8:	f04f 0000 	mov.w	r0, #0
 80007fc:	bd70      	pop	{r4, r5, r6, pc}
 80007fe:	ea50 0641 	orrs.w	r6, r0, r1, lsl #1
 8000802:	bf06      	itte	eq
 8000804:	4610      	moveq	r0, r2
 8000806:	4619      	moveq	r1, r3
 8000808:	ea52 0643 	orrsne.w	r6, r2, r3, lsl #1
 800080c:	d019      	beq.n	8000842 <__aeabi_dmul+0x24a>
 800080e:	ea94 0f0c 	teq	r4, ip
 8000812:	d102      	bne.n	800081a <__aeabi_dmul+0x222>
 8000814:	ea50 3601 	orrs.w	r6, r0, r1, lsl #12
 8000818:	d113      	bne.n	8000842 <__aeabi_dmul+0x24a>
 800081a:	ea95 0f0c 	teq	r5, ip
 800081e:	d105      	bne.n	800082c <__aeabi_dmul+0x234>
 8000820:	ea52 3603 	orrs.w	r6, r2, r3, lsl #12
 8000824:	bf1c      	itt	ne
 8000826:	4610      	movne	r0, r2
 8000828:	4619      	movne	r1, r3
 800082a:	d10a      	bne.n	8000842 <__aeabi_dmul+0x24a>
 800082c:	ea81 0103 	eor.w	r1, r1, r3
 8000830:	f001 4100 	and.w	r1, r1, #2147483648	; 0x80000000
 8000834:	f041 41fe 	orr.w	r1, r1, #2130706432	; 0x7f000000
 8000838:	f441 0170 	orr.w	r1, r1, #15728640	; 0xf00000
 800083c:	f04f 0000 	mov.w	r0, #0
 8000840:	bd70      	pop	{r4, r5, r6, pc}
 8000842:	f041 41fe 	orr.w	r1, r1, #2130706432	; 0x7f000000
 8000846:	f441 0178 	orr.w	r1, r1, #16252928	; 0xf80000
 800084a:	bd70      	pop	{r4, r5, r6, pc}

0800084c <__aeabi_ddiv>:
 800084c:	b570      	push	{r4, r5, r6, lr}
 800084e:	f04f 0cff 	mov.w	ip, #255	; 0xff
 8000852:	f44c 6ce0 	orr.w	ip, ip, #1792	; 0x700
 8000856:	ea1c 5411 	ands.w	r4, ip, r1, lsr #20
 800085a:	bf1d      	ittte	ne
 800085c:	ea1c 5513 	andsne.w	r5, ip, r3, lsr #20
 8000860:	ea94 0f0c 	teqne	r4, ip
 8000864:	ea95 0f0c 	teqne	r5, ip
 8000868:	f000 f8a7 	bleq	80009ba <__aeabi_ddiv+0x16e>
 800086c:	eba4 0405 	sub.w	r4, r4, r5
 8000870:	ea81 0e03 	eor.w	lr, r1, r3
 8000874:	ea52 3503 	orrs.w	r5, r2, r3, lsl #12
 8000878:	ea4f 3101 	mov.w	r1, r1, lsl #12
 800087c:	f000 8088 	beq.w	8000990 <__aeabi_ddiv+0x144>
 8000880:	ea4f 3303 	mov.w	r3, r3, lsl #12
 8000884:	f04f 5580 	mov.w	r5, #268435456	; 0x10000000
 8000888:	ea45 1313 	orr.w	r3, r5, r3, lsr #4
 800088c:	ea43 6312 	orr.w	r3, r3, r2, lsr #24
 8000890:	ea4f 2202 	mov.w	r2, r2, lsl #8
 8000894:	ea45 1511 	orr.w	r5, r5, r1, lsr #4
 8000898:	ea45 6510 	orr.w	r5, r5, r0, lsr #24
 800089c:	ea4f 2600 	mov.w	r6, r0, lsl #8
 80008a0:	f00e 4100 	and.w	r1, lr, #2147483648	; 0x80000000
 80008a4:	429d      	cmp	r5, r3
 80008a6:	bf08      	it	eq
 80008a8:	4296      	cmpeq	r6, r2
 80008aa:	f144 04fd 	adc.w	r4, r4, #253	; 0xfd
 80008ae:	f504 7440 	add.w	r4, r4, #768	; 0x300
 80008b2:	d202      	bcs.n	80008ba <__aeabi_ddiv+0x6e>
 80008b4:	085b      	lsrs	r3, r3, #1
 80008b6:	ea4f 0232 	mov.w	r2, r2, rrx
 80008ba:	1ab6      	subs	r6, r6, r2
 80008bc:	eb65 0503 	sbc.w	r5, r5, r3
 80008c0:	085b      	lsrs	r3, r3, #1
 80008c2:	ea4f 0232 	mov.w	r2, r2, rrx
 80008c6:	f44f 1080 	mov.w	r0, #1048576	; 0x100000
 80008ca:	f44f 2c00 	mov.w	ip, #524288	; 0x80000
 80008ce:	ebb6 0e02 	subs.w	lr, r6, r2
 80008d2:	eb75 0e03 	sbcs.w	lr, r5, r3
 80008d6:	bf22      	ittt	cs
 80008d8:	1ab6      	subcs	r6, r6, r2
 80008da:	4675      	movcs	r5, lr
 80008dc:	ea40 000c 	orrcs.w	r0, r0, ip
 80008e0:	085b      	lsrs	r3, r3, #1
 80008e2:	ea4f 0232 	mov.w	r2, r2, rrx
 80008e6:	ebb6 0e02 	subs.w	lr, r6, r2
 80008ea:	eb75 0e03 	sbcs.w	lr, r5, r3
 80008ee:	bf22      	ittt	cs
 80008f0:	1ab6      	subcs	r6, r6, r2
 80008f2:	4675      	movcs	r5, lr
 80008f4:	ea40 005c 	orrcs.w	r0, r0, ip, lsr #1
 80008f8:	085b      	lsrs	r3, r3, #1
 80008fa:	ea4f 0232 	mov.w	r2, r2, rrx
 80008fe:	ebb6 0e02 	subs.w	lr, r6, r2
 8000902:	eb75 0e03 	sbcs.w	lr, r5, r3
 8000906:	bf22      	ittt	cs
 8000908:	1ab6      	subcs	r6, r6, r2
 800090a:	4675      	movcs	r5, lr
 800090c:	ea40 009c 	orrcs.w	r0, r0, ip, lsr #2
 8000910:	085b      	lsrs	r3, r3, #1
 8000912:	ea4f 0232 	mov.w	r2, r2, rrx
 8000916:	ebb6 0e02 	subs.w	lr, r6, r2
 800091a:	eb75 0e03 	sbcs.w	lr, r5, r3
 800091e:	bf22      	ittt	cs
 8000920:	1ab6      	subcs	r6, r6, r2
 8000922:	4675      	movcs	r5, lr
 8000924:	ea40 00dc 	orrcs.w	r0, r0, ip, lsr #3
 8000928:	ea55 0e06 	orrs.w	lr, r5, r6
 800092c:	d018      	beq.n	8000960 <__aeabi_ddiv+0x114>
 800092e:	ea4f 1505 	mov.w	r5, r5, lsl #4
 8000932:	ea45 7516 	orr.w	r5, r5, r6, lsr #28
 8000936:	ea4f 1606 	mov.w	r6, r6, lsl #4
 800093a:	ea4f 03c3 	mov.w	r3, r3, lsl #3
 800093e:	ea43 7352 	orr.w	r3, r3, r2, lsr #29
 8000942:	ea4f 02c2 	mov.w	r2, r2, lsl #3
 8000946:	ea5f 1c1c 	movs.w	ip, ip, lsr #4
 800094a:	d1c0      	bne.n	80008ce <__aeabi_ddiv+0x82>
 800094c:	f411 1f80 	tst.w	r1, #1048576	; 0x100000
 8000950:	d10b      	bne.n	800096a <__aeabi_ddiv+0x11e>
 8000952:	ea41 0100 	orr.w	r1, r1, r0
 8000956:	f04f 0000 	mov.w	r0, #0
 800095a:	f04f 4c00 	mov.w	ip, #2147483648	; 0x80000000
 800095e:	e7b6      	b.n	80008ce <__aeabi_ddiv+0x82>
 8000960:	f411 1f80 	tst.w	r1, #1048576	; 0x100000
 8000964:	bf04      	itt	eq
 8000966:	4301      	orreq	r1, r0
 8000968:	2000      	moveq	r0, #0
 800096a:	f1b4 0cfd 	subs.w	ip, r4, #253	; 0xfd
 800096e:	bf88      	it	hi
 8000970:	f5bc 6fe0 	cmphi.w	ip, #1792	; 0x700
 8000974:	f63f aeaf 	bhi.w	80006d6 <__aeabi_dmul+0xde>
 8000978:	ebb5 0c03 	subs.w	ip, r5, r3
 800097c:	bf04      	itt	eq
 800097e:	ebb6 0c02 	subseq.w	ip, r6, r2
 8000982:	ea5f 0c50 	movseq.w	ip, r0, lsr #1
 8000986:	f150 0000 	adcs.w	r0, r0, #0
 800098a:	eb41 5104 	adc.w	r1, r1, r4, lsl #20
 800098e:	bd70      	pop	{r4, r5, r6, pc}
 8000990:	f00e 4e00 	and.w	lr, lr, #2147483648	; 0x80000000
 8000994:	ea4e 3111 	orr.w	r1, lr, r1, lsr #12
 8000998:	eb14 045c 	adds.w	r4, r4, ip, lsr #1
 800099c:	bfc2      	ittt	gt
 800099e:	ebd4 050c 	rsbsgt	r5, r4, ip
 80009a2:	ea41 5104 	orrgt.w	r1, r1, r4, lsl #20
 80009a6:	bd70      	popgt	{r4, r5, r6, pc}
 80009a8:	f441 1180 	orr.w	r1, r1, #1048576	; 0x100000
 80009ac:	f04f 0e00 	mov.w	lr, #0
 80009b0:	3c01      	subs	r4, #1
 80009b2:	e690      	b.n	80006d6 <__aeabi_dmul+0xde>
 80009b4:	ea45 0e06 	orr.w	lr, r5, r6
 80009b8:	e68d      	b.n	80006d6 <__aeabi_dmul+0xde>
 80009ba:	ea0c 5513 	and.w	r5, ip, r3, lsr #20
 80009be:	ea94 0f0c 	teq	r4, ip
 80009c2:	bf08      	it	eq
 80009c4:	ea95 0f0c 	teqeq	r5, ip
 80009c8:	f43f af3b 	beq.w	8000842 <__aeabi_dmul+0x24a>
 80009cc:	ea94 0f0c 	teq	r4, ip
 80009d0:	d10a      	bne.n	80009e8 <__aeabi_ddiv+0x19c>
 80009d2:	ea50 3401 	orrs.w	r4, r0, r1, lsl #12
 80009d6:	f47f af34 	bne.w	8000842 <__aeabi_dmul+0x24a>
 80009da:	ea95 0f0c 	teq	r5, ip
 80009de:	f47f af25 	bne.w	800082c <__aeabi_dmul+0x234>
 80009e2:	4610      	mov	r0, r2
 80009e4:	4619      	mov	r1, r3
 80009e6:	e72c      	b.n	8000842 <__aeabi_dmul+0x24a>
 80009e8:	ea95 0f0c 	teq	r5, ip
 80009ec:	d106      	bne.n	80009fc <__aeabi_ddiv+0x1b0>
 80009ee:	ea52 3503 	orrs.w	r5, r2, r3, lsl #12
 80009f2:	f43f aefd 	beq.w	80007f0 <__aeabi_dmul+0x1f8>
 80009f6:	4610      	mov	r0, r2
 80009f8:	4619      	mov	r1, r3
 80009fa:	e722      	b.n	8000842 <__aeabi_dmul+0x24a>
 80009fc:	ea50 0641 	orrs.w	r6, r0, r1, lsl #1
 8000a00:	bf18      	it	ne
 8000a02:	ea52 0643 	orrsne.w	r6, r2, r3, lsl #1
 8000a06:	f47f aec5 	bne.w	8000794 <__aeabi_dmul+0x19c>
 8000a0a:	ea50 0441 	orrs.w	r4, r0, r1, lsl #1
 8000a0e:	f47f af0d 	bne.w	800082c <__aeabi_dmul+0x234>
 8000a12:	ea52 0543 	orrs.w	r5, r2, r3, lsl #1
 8000a16:	f47f aeeb 	bne.w	80007f0 <__aeabi_dmul+0x1f8>
 8000a1a:	e712      	b.n	8000842 <__aeabi_dmul+0x24a>

08000a1c <__gedf2>:
 8000a1c:	f04f 3cff 	mov.w	ip, #4294967295
 8000a20:	e006      	b.n	8000a30 <__cmpdf2+0x4>
 8000a22:	bf00      	nop

08000a24 <__ledf2>:
 8000a24:	f04f 0c01 	mov.w	ip, #1
 8000a28:	e002      	b.n	8000a30 <__cmpdf2+0x4>
 8000a2a:	bf00      	nop

08000a2c <__cmpdf2>:
 8000a2c:	f04f 0c01 	mov.w	ip, #1
 8000a30:	f84d cd04 	str.w	ip, [sp, #-4]!
 8000a34:	ea4f 0c41 	mov.w	ip, r1, lsl #1
 8000a38:	ea7f 5c6c 	mvns.w	ip, ip, asr #21
 8000a3c:	ea4f 0c43 	mov.w	ip, r3, lsl #1
 8000a40:	bf18      	it	ne
 8000a42:	ea7f 5c6c 	mvnsne.w	ip, ip, asr #21
 8000a46:	d01b      	beq.n	8000a80 <__cmpdf2+0x54>
 8000a48:	b001      	add	sp, #4
 8000a4a:	ea50 0c41 	orrs.w	ip, r0, r1, lsl #1
 8000a4e:	bf0c      	ite	eq
 8000a50:	ea52 0c43 	orrseq.w	ip, r2, r3, lsl #1
 8000a54:	ea91 0f03 	teqne	r1, r3
 8000a58:	bf02      	ittt	eq
 8000a5a:	ea90 0f02 	teqeq	r0, r2
 8000a5e:	2000      	moveq	r0, #0
 8000a60:	4770      	bxeq	lr
 8000a62:	f110 0f00 	cmn.w	r0, #0
 8000a66:	ea91 0f03 	teq	r1, r3
 8000a6a:	bf58      	it	pl
 8000a6c:	4299      	cmppl	r1, r3
 8000a6e:	bf08      	it	eq
 8000a70:	4290      	cmpeq	r0, r2
 8000a72:	bf2c      	ite	cs
 8000a74:	17d8      	asrcs	r0, r3, #31
 8000a76:	ea6f 70e3 	mvncc.w	r0, r3, asr #31
 8000a7a:	f040 0001 	orr.w	r0, r0, #1
 8000a7e:	4770      	bx	lr
 8000a80:	ea4f 0c41 	mov.w	ip, r1, lsl #1
 8000a84:	ea7f 5c6c 	mvns.w	ip, ip, asr #21
 8000a88:	d102      	bne.n	8000a90 <__cmpdf2+0x64>
 8000a8a:	ea50 3c01 	orrs.w	ip, r0, r1, lsl #12
 8000a8e:	d107      	bne.n	8000aa0 <__cmpdf2+0x74>
 8000a90:	ea4f 0c43 	mov.w	ip, r3, lsl #1
 8000a94:	ea7f 5c6c 	mvns.w	ip, ip, asr #21
 8000a98:	d1d6      	bne.n	8000a48 <__cmpdf2+0x1c>
 8000a9a:	ea52 3c03 	orrs.w	ip, r2, r3, lsl #12
 8000a9e:	d0d3      	beq.n	8000a48 <__cmpdf2+0x1c>
 8000aa0:	f85d 0b04 	ldr.w	r0, [sp], #4
 8000aa4:	4770      	bx	lr
 8000aa6:	bf00      	nop

08000aa8 <__aeabi_cdrcmple>:
 8000aa8:	4684      	mov	ip, r0
 8000aaa:	4610      	mov	r0, r2
 8000aac:	4662      	mov	r2, ip
 8000aae:	468c      	mov	ip, r1
 8000ab0:	4619      	mov	r1, r3
 8000ab2:	4663      	mov	r3, ip
 8000ab4:	e000      	b.n	8000ab8 <__aeabi_cdcmpeq>
 8000ab6:	bf00      	nop

08000ab8 <__aeabi_cdcmpeq>:
 8000ab8:	b501      	push	{r0, lr}
 8000aba:	f7ff ffb7 	bl	8000a2c <__cmpdf2>
 8000abe:	2800      	cmp	r0, #0
 8000ac0:	bf48      	it	mi
 8000ac2:	f110 0f00 	cmnmi.w	r0, #0
 8000ac6:	bd01      	pop	{r0, pc}

08000ac8 <__aeabi_dcmpeq>:
 8000ac8:	f84d ed08 	str.w	lr, [sp, #-8]!
 8000acc:	f7ff fff4 	bl	8000ab8 <__aeabi_cdcmpeq>
 8000ad0:	bf0c      	ite	eq
 8000ad2:	2001      	moveq	r0, #1
 8000ad4:	2000      	movne	r0, #0
 8000ad6:	f85d fb08 	ldr.w	pc, [sp], #8
 8000ada:	bf00      	nop

08000adc <__aeabi_dcmplt>:
 8000adc:	f84d ed08 	str.w	lr, [sp, #-8]!
 8000ae0:	f7ff ffea 	bl	8000ab8 <__aeabi_cdcmpeq>
 8000ae4:	bf34      	ite	cc
 8000ae6:	2001      	movcc	r0, #1
 8000ae8:	2000      	movcs	r0, #0
 8000aea:	f85d fb08 	ldr.w	pc, [sp], #8
 8000aee:	bf00      	nop

08000af0 <__aeabi_dcmple>:
 8000af0:	f84d ed08 	str.w	lr, [sp, #-8]!
 8000af4:	f7ff ffe0 	bl	8000ab8 <__aeabi_cdcmpeq>
 8000af8:	bf94      	ite	ls
 8000afa:	2001      	movls	r0, #1
 8000afc:	2000      	movhi	r0, #0
 8000afe:	f85d fb08 	ldr.w	pc, [sp], #8
 8000b02:	bf00      	nop

08000b04 <__aeabi_dcmpge>:
 8000b04:	f84d ed08 	str.w	lr, [sp, #-8]!
 8000b08:	f7ff ffce 	bl	8000aa8 <__aeabi_cdrcmple>
 8000b0c:	bf94      	ite	ls
 8000b0e:	2001      	movls	r0, #1
 8000b10:	2000      	movhi	r0, #0
 8000b12:	f85d fb08 	ldr.w	pc, [sp], #8
 8000b16:	bf00      	nop

08000b18 <__aeabi_dcmpgt>:
 8000b18:	f84d ed08 	str.w	lr, [sp, #-8]!
 8000b1c:	f7ff ffc4 	bl	8000aa8 <__aeabi_cdrcmple>
 8000b20:	bf34      	ite	cc
 8000b22:	2001      	movcc	r0, #1
 8000b24:	2000      	movcs	r0, #0
 8000b26:	f85d fb08 	ldr.w	pc, [sp], #8
 8000b2a:	bf00      	nop

08000b2c <__aeabi_dcmpun>:
 8000b2c:	ea4f 0c41 	mov.w	ip, r1, lsl #1
 8000b30:	ea7f 5c6c 	mvns.w	ip, ip, asr #21
 8000b34:	d102      	bne.n	8000b3c <__aeabi_dcmpun+0x10>
 8000b36:	ea50 3c01 	orrs.w	ip, r0, r1, lsl #12
 8000b3a:	d10a      	bne.n	8000b52 <__aeabi_dcmpun+0x26>
 8000b3c:	ea4f 0c43 	mov.w	ip, r3, lsl #1
 8000b40:	ea7f 5c6c 	mvns.w	ip, ip, asr #21
 8000b44:	d102      	bne.n	8000b4c <__aeabi_dcmpun+0x20>
 8000b46:	ea52 3c03 	orrs.w	ip, r2, r3, lsl #12
 8000b4a:	d102      	bne.n	8000b52 <__aeabi_dcmpun+0x26>
 8000b4c:	f04f 0000 	mov.w	r0, #0
 8000b50:	4770      	bx	lr
 8000b52:	f04f 0001 	mov.w	r0, #1
 8000b56:	4770      	bx	lr

08000b58 <__aeabi_d2iz>:
 8000b58:	ea4f 0241 	mov.w	r2, r1, lsl #1
 8000b5c:	f512 1200 	adds.w	r2, r2, #2097152	; 0x200000
 8000b60:	d215      	bcs.n	8000b8e <__aeabi_d2iz+0x36>
 8000b62:	d511      	bpl.n	8000b88 <__aeabi_d2iz+0x30>
 8000b64:	f46f 7378 	mvn.w	r3, #992	; 0x3e0
 8000b68:	ebb3 5262 	subs.w	r2, r3, r2, asr #21
 8000b6c:	d912      	bls.n	8000b94 <__aeabi_d2iz+0x3c>
 8000b6e:	ea4f 23c1 	mov.w	r3, r1, lsl #11
 8000b72:	f043 4300 	orr.w	r3, r3, #2147483648	; 0x80000000
 8000b76:	ea43 5350 	orr.w	r3, r3, r0, lsr #21
 8000b7a:	f011 4f00 	tst.w	r1, #2147483648	; 0x80000000
 8000b7e:	fa23 f002 	lsr.w	r0, r3, r2
 8000b82:	bf18      	it	ne
 8000b84:	4240      	negne	r0, r0
 8000b86:	4770      	bx	lr
 8000b88:	f04f 0000 	mov.w	r0, #0
 8000b8c:	4770      	bx	lr
 8000b8e:	ea50 3001 	orrs.w	r0, r0, r1, lsl #12
 8000b92:	d105      	bne.n	8000ba0 <__aeabi_d2iz+0x48>
 8000b94:	f011 4000 	ands.w	r0, r1, #2147483648	; 0x80000000
 8000b98:	bf08      	it	eq
 8000b9a:	f06f 4000 	mvneq.w	r0, #2147483648	; 0x80000000
 8000b9e:	4770      	bx	lr
 8000ba0:	f04f 0000 	mov.w	r0, #0
 8000ba4:	4770      	bx	lr
 8000ba6:	bf00      	nop

08000ba8 <__aeabi_d2uiz>:
 8000ba8:	004a      	lsls	r2, r1, #1
 8000baa:	d211      	bcs.n	8000bd0 <__aeabi_d2uiz+0x28>
 8000bac:	f512 1200 	adds.w	r2, r2, #2097152	; 0x200000
 8000bb0:	d211      	bcs.n	8000bd6 <__aeabi_d2uiz+0x2e>
 8000bb2:	d50d      	bpl.n	8000bd0 <__aeabi_d2uiz+0x28>
 8000bb4:	f46f 7378 	mvn.w	r3, #992	; 0x3e0
 8000bb8:	ebb3 5262 	subs.w	r2, r3, r2, asr #21
 8000bbc:	d40e      	bmi.n	8000bdc <__aeabi_d2uiz+0x34>
 8000bbe:	ea4f 23c1 	mov.w	r3, r1, lsl #11
 8000bc2:	f043 4300 	orr.w	r3, r3, #2147483648	; 0x80000000
 8000bc6:	ea43 5350 	orr.w	r3, r3, r0, lsr #21
 8000bca:	fa23 f002 	lsr.w	r0, r3, r2
 8000bce:	4770      	bx	lr
 8000bd0:	f04f 0000 	mov.w	r0, #0
 8000bd4:	4770      	bx	lr
 8000bd6:	ea50 3001 	orrs.w	r0, r0, r1, lsl #12
 8000bda:	d102      	bne.n	8000be2 <__aeabi_d2uiz+0x3a>
 8000bdc:	f04f 30ff 	mov.w	r0, #4294967295
 8000be0:	4770      	bx	lr
 8000be2:	f04f 0000 	mov.w	r0, #0
 8000be6:	4770      	bx	lr

08000be8 <__aeabi_uldivmod>:
 8000be8:	b953      	cbnz	r3, 8000c00 <__aeabi_uldivmod+0x18>
 8000bea:	b94a      	cbnz	r2, 8000c00 <__aeabi_uldivmod+0x18>
 8000bec:	2900      	cmp	r1, #0
 8000bee:	bf08      	it	eq
 8000bf0:	2800      	cmpeq	r0, #0
 8000bf2:	bf1c      	itt	ne
 8000bf4:	f04f 31ff 	movne.w	r1, #4294967295
 8000bf8:	f04f 30ff 	movne.w	r0, #4294967295
 8000bfc:	f000 b974 	b.w	8000ee8 <__aeabi_idiv0>
 8000c00:	f1ad 0c08 	sub.w	ip, sp, #8
 8000c04:	e96d ce04 	strd	ip, lr, [sp, #-16]!
 8000c08:	f000 f806 	bl	8000c18 <__udivmoddi4>
 8000c0c:	f8dd e004 	ldr.w	lr, [sp, #4]
 8000c10:	e9dd 2302 	ldrd	r2, r3, [sp, #8]
 8000c14:	b004      	add	sp, #16
 8000c16:	4770      	bx	lr

08000c18 <__udivmoddi4>:
 8000c18:	e92d 47f0 	stmdb	sp!, {r4, r5, r6, r7, r8, r9, sl, lr}
 8000c1c:	9d08      	ldr	r5, [sp, #32]
 8000c1e:	4604      	mov	r4, r0
 8000c20:	468e      	mov	lr, r1
 8000c22:	2b00      	cmp	r3, #0
 8000c24:	d14d      	bne.n	8000cc2 <__udivmoddi4+0xaa>
 8000c26:	428a      	cmp	r2, r1
 8000c28:	4694      	mov	ip, r2
 8000c2a:	d969      	bls.n	8000d00 <__udivmoddi4+0xe8>
 8000c2c:	fab2 f282 	clz	r2, r2
 8000c30:	b152      	cbz	r2, 8000c48 <__udivmoddi4+0x30>
 8000c32:	fa01 f302 	lsl.w	r3, r1, r2
 8000c36:	f1c2 0120 	rsb	r1, r2, #32
 8000c3a:	fa20 f101 	lsr.w	r1, r0, r1
 8000c3e:	fa0c fc02 	lsl.w	ip, ip, r2
 8000c42:	ea41 0e03 	orr.w	lr, r1, r3
 8000c46:	4094      	lsls	r4, r2
 8000c48:	ea4f 481c 	mov.w	r8, ip, lsr #16
 8000c4c:	0c21      	lsrs	r1, r4, #16
 8000c4e:	fbbe f6f8 	udiv	r6, lr, r8
 8000c52:	fa1f f78c 	uxth.w	r7, ip
 8000c56:	fb08 e316 	mls	r3, r8, r6, lr
 8000c5a:	ea41 4303 	orr.w	r3, r1, r3, lsl #16
 8000c5e:	fb06 f107 	mul.w	r1, r6, r7
 8000c62:	4299      	cmp	r1, r3
 8000c64:	d90a      	bls.n	8000c7c <__udivmoddi4+0x64>
 8000c66:	eb1c 0303 	adds.w	r3, ip, r3
 8000c6a:	f106 30ff 	add.w	r0, r6, #4294967295
 8000c6e:	f080 811f 	bcs.w	8000eb0 <__udivmoddi4+0x298>
 8000c72:	4299      	cmp	r1, r3
 8000c74:	f240 811c 	bls.w	8000eb0 <__udivmoddi4+0x298>
 8000c78:	3e02      	subs	r6, #2
 8000c7a:	4463      	add	r3, ip
 8000c7c:	1a5b      	subs	r3, r3, r1
 8000c7e:	b2a4      	uxth	r4, r4
 8000c80:	fbb3 f0f8 	udiv	r0, r3, r8
 8000c84:	fb08 3310 	mls	r3, r8, r0, r3
 8000c88:	ea44 4403 	orr.w	r4, r4, r3, lsl #16
 8000c8c:	fb00 f707 	mul.w	r7, r0, r7
 8000c90:	42a7      	cmp	r7, r4
 8000c92:	d90a      	bls.n	8000caa <__udivmoddi4+0x92>
 8000c94:	eb1c 0404 	adds.w	r4, ip, r4
 8000c98:	f100 33ff 	add.w	r3, r0, #4294967295
 8000c9c:	f080 810a 	bcs.w	8000eb4 <__udivmoddi4+0x29c>
 8000ca0:	42a7      	cmp	r7, r4
 8000ca2:	f240 8107 	bls.w	8000eb4 <__udivmoddi4+0x29c>
 8000ca6:	4464      	add	r4, ip
 8000ca8:	3802      	subs	r0, #2
 8000caa:	ea40 4006 	orr.w	r0, r0, r6, lsl #16
 8000cae:	1be4      	subs	r4, r4, r7
 8000cb0:	2600      	movs	r6, #0
 8000cb2:	b11d      	cbz	r5, 8000cbc <__udivmoddi4+0xa4>
 8000cb4:	40d4      	lsrs	r4, r2
 8000cb6:	2300      	movs	r3, #0
 8000cb8:	e9c5 4300 	strd	r4, r3, [r5]
 8000cbc:	4631      	mov	r1, r6
 8000cbe:	e8bd 87f0 	ldmia.w	sp!, {r4, r5, r6, r7, r8, r9, sl, pc}
 8000cc2:	428b      	cmp	r3, r1
 8000cc4:	d909      	bls.n	8000cda <__udivmoddi4+0xc2>
 8000cc6:	2d00      	cmp	r5, #0
 8000cc8:	f000 80ef 	beq.w	8000eaa <__udivmoddi4+0x292>
 8000ccc:	2600      	movs	r6, #0
 8000cce:	e9c5 0100 	strd	r0, r1, [r5]
 8000cd2:	4630      	mov	r0, r6
 8000cd4:	4631      	mov	r1, r6
 8000cd6:	e8bd 87f0 	ldmia.w	sp!, {r4, r5, r6, r7, r8, r9, sl, pc}
 8000cda:	fab3 f683 	clz	r6, r3
 8000cde:	2e00      	cmp	r6, #0
 8000ce0:	d14a      	bne.n	8000d78 <__udivmoddi4+0x160>
 8000ce2:	428b      	cmp	r3, r1
 8000ce4:	d302      	bcc.n	8000cec <__udivmoddi4+0xd4>
 8000ce6:	4282      	cmp	r2, r0
 8000ce8:	f200 80f9 	bhi.w	8000ede <__udivmoddi4+0x2c6>
 8000cec:	1a84      	subs	r4, r0, r2
 8000cee:	eb61 0303 	sbc.w	r3, r1, r3
 8000cf2:	2001      	movs	r0, #1
 8000cf4:	469e      	mov	lr, r3
 8000cf6:	2d00      	cmp	r5, #0
 8000cf8:	d0e0      	beq.n	8000cbc <__udivmoddi4+0xa4>
 8000cfa:	e9c5 4e00 	strd	r4, lr, [r5]
 8000cfe:	e7dd      	b.n	8000cbc <__udivmoddi4+0xa4>
 8000d00:	b902      	cbnz	r2, 8000d04 <__udivmoddi4+0xec>
 8000d02:	deff      	udf	#255	; 0xff
 8000d04:	fab2 f282 	clz	r2, r2
 8000d08:	2a00      	cmp	r2, #0
 8000d0a:	f040 8092 	bne.w	8000e32 <__udivmoddi4+0x21a>
 8000d0e:	eba1 010c 	sub.w	r1, r1, ip
 8000d12:	ea4f 471c 	mov.w	r7, ip, lsr #16
 8000d16:	fa1f fe8c 	uxth.w	lr, ip
 8000d1a:	2601      	movs	r6, #1
 8000d1c:	0c20      	lsrs	r0, r4, #16
 8000d1e:	fbb1 f3f7 	udiv	r3, r1, r7
 8000d22:	fb07 1113 	mls	r1, r7, r3, r1
 8000d26:	ea40 4101 	orr.w	r1, r0, r1, lsl #16
 8000d2a:	fb0e f003 	mul.w	r0, lr, r3
 8000d2e:	4288      	cmp	r0, r1
 8000d30:	d908      	bls.n	8000d44 <__udivmoddi4+0x12c>
 8000d32:	eb1c 0101 	adds.w	r1, ip, r1
 8000d36:	f103 38ff 	add.w	r8, r3, #4294967295
 8000d3a:	d202      	bcs.n	8000d42 <__udivmoddi4+0x12a>
 8000d3c:	4288      	cmp	r0, r1
 8000d3e:	f200 80cb 	bhi.w	8000ed8 <__udivmoddi4+0x2c0>
 8000d42:	4643      	mov	r3, r8
 8000d44:	1a09      	subs	r1, r1, r0
 8000d46:	b2a4      	uxth	r4, r4
 8000d48:	fbb1 f0f7 	udiv	r0, r1, r7
 8000d4c:	fb07 1110 	mls	r1, r7, r0, r1
 8000d50:	ea44 4401 	orr.w	r4, r4, r1, lsl #16
 8000d54:	fb0e fe00 	mul.w	lr, lr, r0
 8000d58:	45a6      	cmp	lr, r4
 8000d5a:	d908      	bls.n	8000d6e <__udivmoddi4+0x156>
 8000d5c:	eb1c 0404 	adds.w	r4, ip, r4
 8000d60:	f100 31ff 	add.w	r1, r0, #4294967295
 8000d64:	d202      	bcs.n	8000d6c <__udivmoddi4+0x154>
 8000d66:	45a6      	cmp	lr, r4
 8000d68:	f200 80bb 	bhi.w	8000ee2 <__udivmoddi4+0x2ca>
 8000d6c:	4608      	mov	r0, r1
 8000d6e:	eba4 040e 	sub.w	r4, r4, lr
 8000d72:	ea40 4003 	orr.w	r0, r0, r3, lsl #16
 8000d76:	e79c      	b.n	8000cb2 <__udivmoddi4+0x9a>
 8000d78:	f1c6 0720 	rsb	r7, r6, #32
 8000d7c:	40b3      	lsls	r3, r6
 8000d7e:	fa22 fc07 	lsr.w	ip, r2, r7
 8000d82:	ea4c 0c03 	orr.w	ip, ip, r3
 8000d86:	fa20 f407 	lsr.w	r4, r0, r7
 8000d8a:	fa01 f306 	lsl.w	r3, r1, r6
 8000d8e:	431c      	orrs	r4, r3
 8000d90:	40f9      	lsrs	r1, r7
 8000d92:	ea4f 491c 	mov.w	r9, ip, lsr #16
 8000d96:	fa00 f306 	lsl.w	r3, r0, r6
 8000d9a:	fbb1 f8f9 	udiv	r8, r1, r9
 8000d9e:	0c20      	lsrs	r0, r4, #16
 8000da0:	fa1f fe8c 	uxth.w	lr, ip
 8000da4:	fb09 1118 	mls	r1, r9, r8, r1
 8000da8:	ea40 4101 	orr.w	r1, r0, r1, lsl #16
 8000dac:	fb08 f00e 	mul.w	r0, r8, lr
 8000db0:	4288      	cmp	r0, r1
 8000db2:	fa02 f206 	lsl.w	r2, r2, r6
 8000db6:	d90b      	bls.n	8000dd0 <__udivmoddi4+0x1b8>
 8000db8:	eb1c 0101 	adds.w	r1, ip, r1
 8000dbc:	f108 3aff 	add.w	sl, r8, #4294967295
 8000dc0:	f080 8088 	bcs.w	8000ed4 <__udivmoddi4+0x2bc>
 8000dc4:	4288      	cmp	r0, r1
 8000dc6:	f240 8085 	bls.w	8000ed4 <__udivmoddi4+0x2bc>
 8000dca:	f1a8 0802 	sub.w	r8, r8, #2
 8000dce:	4461      	add	r1, ip
 8000dd0:	1a09      	subs	r1, r1, r0
 8000dd2:	b2a4      	uxth	r4, r4
 8000dd4:	fbb1 f0f9 	udiv	r0, r1, r9
 8000dd8:	fb09 1110 	mls	r1, r9, r0, r1
 8000ddc:	ea44 4101 	orr.w	r1, r4, r1, lsl #16
 8000de0:	fb00 fe0e 	mul.w	lr, r0, lr
 8000de4:	458e      	cmp	lr, r1
 8000de6:	d908      	bls.n	8000dfa <__udivmoddi4+0x1e2>
 8000de8:	eb1c 0101 	adds.w	r1, ip, r1
 8000dec:	f100 34ff 	add.w	r4, r0, #4294967295
 8000df0:	d26c      	bcs.n	8000ecc <__udivmoddi4+0x2b4>
 8000df2:	458e      	cmp	lr, r1
 8000df4:	d96a      	bls.n	8000ecc <__udivmoddi4+0x2b4>
 8000df6:	3802      	subs	r0, #2
 8000df8:	4461      	add	r1, ip
 8000dfa:	ea40 4008 	orr.w	r0, r0, r8, lsl #16
 8000dfe:	fba0 9402 	umull	r9, r4, r0, r2
 8000e02:	eba1 010e 	sub.w	r1, r1, lr
 8000e06:	42a1      	cmp	r1, r4
 8000e08:	46c8      	mov	r8, r9
 8000e0a:	46a6      	mov	lr, r4
 8000e0c:	d356      	bcc.n	8000ebc <__udivmoddi4+0x2a4>
 8000e0e:	d053      	beq.n	8000eb8 <__udivmoddi4+0x2a0>
 8000e10:	b15d      	cbz	r5, 8000e2a <__udivmoddi4+0x212>
 8000e12:	ebb3 0208 	subs.w	r2, r3, r8
 8000e16:	eb61 010e 	sbc.w	r1, r1, lr
 8000e1a:	fa01 f707 	lsl.w	r7, r1, r7
 8000e1e:	fa22 f306 	lsr.w	r3, r2, r6
 8000e22:	40f1      	lsrs	r1, r6
 8000e24:	431f      	orrs	r7, r3
 8000e26:	e9c5 7100 	strd	r7, r1, [r5]
 8000e2a:	2600      	movs	r6, #0
 8000e2c:	4631      	mov	r1, r6
 8000e2e:	e8bd 87f0 	ldmia.w	sp!, {r4, r5, r6, r7, r8, r9, sl, pc}
 8000e32:	f1c2 0320 	rsb	r3, r2, #32
 8000e36:	40d8      	lsrs	r0, r3
 8000e38:	fa0c fc02 	lsl.w	ip, ip, r2
 8000e3c:	fa21 f303 	lsr.w	r3, r1, r3
 8000e40:	4091      	lsls	r1, r2
 8000e42:	4301      	orrs	r1, r0
 8000e44:	ea4f 471c 	mov.w	r7, ip, lsr #16
 8000e48:	fa1f fe8c 	uxth.w	lr, ip
 8000e4c:	fbb3 f0f7 	udiv	r0, r3, r7
 8000e50:	fb07 3610 	mls	r6, r7, r0, r3
 8000e54:	0c0b      	lsrs	r3, r1, #16
 8000e56:	ea43 4306 	orr.w	r3, r3, r6, lsl #16
 8000e5a:	fb00 f60e 	mul.w	r6, r0, lr
 8000e5e:	429e      	cmp	r6, r3
 8000e60:	fa04 f402 	lsl.w	r4, r4, r2
 8000e64:	d908      	bls.n	8000e78 <__udivmoddi4+0x260>
 8000e66:	eb1c 0303 	adds.w	r3, ip, r3
 8000e6a:	f100 38ff 	add.w	r8, r0, #4294967295
 8000e6e:	d22f      	bcs.n	8000ed0 <__udivmoddi4+0x2b8>
 8000e70:	429e      	cmp	r6, r3
 8000e72:	d92d      	bls.n	8000ed0 <__udivmoddi4+0x2b8>
 8000e74:	3802      	subs	r0, #2
 8000e76:	4463      	add	r3, ip
 8000e78:	1b9b      	subs	r3, r3, r6
 8000e7a:	b289      	uxth	r1, r1
 8000e7c:	fbb3 f6f7 	udiv	r6, r3, r7
 8000e80:	fb07 3316 	mls	r3, r7, r6, r3
 8000e84:	ea41 4103 	orr.w	r1, r1, r3, lsl #16
 8000e88:	fb06 f30e 	mul.w	r3, r6, lr
 8000e8c:	428b      	cmp	r3, r1
 8000e8e:	d908      	bls.n	8000ea2 <__udivmoddi4+0x28a>
 8000e90:	eb1c 0101 	adds.w	r1, ip, r1
 8000e94:	f106 38ff 	add.w	r8, r6, #4294967295
 8000e98:	d216      	bcs.n	8000ec8 <__udivmoddi4+0x2b0>
 8000e9a:	428b      	cmp	r3, r1
 8000e9c:	d914      	bls.n	8000ec8 <__udivmoddi4+0x2b0>
 8000e9e:	3e02      	subs	r6, #2
 8000ea0:	4461      	add	r1, ip
 8000ea2:	1ac9      	subs	r1, r1, r3
 8000ea4:	ea46 4600 	orr.w	r6, r6, r0, lsl #16
 8000ea8:	e738      	b.n	8000d1c <__udivmoddi4+0x104>
 8000eaa:	462e      	mov	r6, r5
 8000eac:	4628      	mov	r0, r5
 8000eae:	e705      	b.n	8000cbc <__udivmoddi4+0xa4>
 8000eb0:	4606      	mov	r6, r0
 8000eb2:	e6e3      	b.n	8000c7c <__udivmoddi4+0x64>
 8000eb4:	4618      	mov	r0, r3
 8000eb6:	e6f8      	b.n	8000caa <__udivmoddi4+0x92>
 8000eb8:	454b      	cmp	r3, r9
 8000eba:	d2a9      	bcs.n	8000e10 <__udivmoddi4+0x1f8>
 8000ebc:	ebb9 0802 	subs.w	r8, r9, r2
 8000ec0:	eb64 0e0c 	sbc.w	lr, r4, ip
 8000ec4:	3801      	subs	r0, #1
 8000ec6:	e7a3      	b.n	8000e10 <__udivmoddi4+0x1f8>
 8000ec8:	4646      	mov	r6, r8
 8000eca:	e7ea      	b.n	8000ea2 <__udivmoddi4+0x28a>
 8000ecc:	4620      	mov	r0, r4
 8000ece:	e794      	b.n	8000dfa <__udivmoddi4+0x1e2>
 8000ed0:	4640      	mov	r0, r8
 8000ed2:	e7d1      	b.n	8000e78 <__udivmoddi4+0x260>
 8000ed4:	46d0      	mov	r8, sl
 8000ed6:	e77b      	b.n	8000dd0 <__udivmoddi4+0x1b8>
 8000ed8:	3b02      	subs	r3, #2
 8000eda:	4461      	add	r1, ip
 8000edc:	e732      	b.n	8000d44 <__udivmoddi4+0x12c>
 8000ede:	4630      	mov	r0, r6
 8000ee0:	e709      	b.n	8000cf6 <__udivmoddi4+0xde>
 8000ee2:	4464      	add	r4, ip
 8000ee4:	3802      	subs	r0, #2
 8000ee6:	e742      	b.n	8000d6e <__udivmoddi4+0x156>

08000ee8 <__aeabi_idiv0>:
 8000ee8:	4770      	bx	lr
 8000eea:	bf00      	nop

08000eec <MX_DMA_Init>:

/**
  * Enable DMA controller clock
  */
void MX_DMA_Init(void)
{
 8000eec:	b580      	push	{r7, lr}
 8000eee:	b082      	sub	sp, #8
 8000ef0:	af00      	add	r7, sp, #0

  /* DMA controller clock enable */
  __HAL_RCC_DMA2_CLK_ENABLE();
 8000ef2:	2300      	movs	r3, #0
 8000ef4:	607b      	str	r3, [r7, #4]
 8000ef6:	4b10      	ldr	r3, [pc, #64]	; (8000f38 <MX_DMA_Init+0x4c>)
 8000ef8:	6b1b      	ldr	r3, [r3, #48]	; 0x30
 8000efa:	4a0f      	ldr	r2, [pc, #60]	; (8000f38 <MX_DMA_Init+0x4c>)
 8000efc:	f443 0380 	orr.w	r3, r3, #4194304	; 0x400000
 8000f00:	6313      	str	r3, [r2, #48]	; 0x30
 8000f02:	4b0d      	ldr	r3, [pc, #52]	; (8000f38 <MX_DMA_Init+0x4c>)
 8000f04:	6b1b      	ldr	r3, [r3, #48]	; 0x30
 8000f06:	f403 0380 	and.w	r3, r3, #4194304	; 0x400000
 8000f0a:	607b      	str	r3, [r7, #4]
 8000f0c:	687b      	ldr	r3, [r7, #4]

  /* DMA interrupt init */
  /* DMA2_Stream0_IRQn interrupt configuration */
  HAL_NVIC_SetPriority(DMA2_Stream0_IRQn, 1, 0);
 8000f0e:	2200      	movs	r2, #0
 8000f10:	2101      	movs	r1, #1
 8000f12:	2038      	movs	r0, #56	; 0x38
 8000f14:	f004 fb2f 	bl	8005576 <HAL_NVIC_SetPriority>
  HAL_NVIC_EnableIRQ(DMA2_Stream0_IRQn);
 8000f18:	2038      	movs	r0, #56	; 0x38
 8000f1a:	f004 fb48 	bl	80055ae <HAL_NVIC_EnableIRQ>
  /* DMA2_Stream3_IRQn interrupt configuration */
  HAL_NVIC_SetPriority(DMA2_Stream3_IRQn, 1, 0);
 8000f1e:	2200      	movs	r2, #0
 8000f20:	2101      	movs	r1, #1
 8000f22:	203b      	movs	r0, #59	; 0x3b
 8000f24:	f004 fb27 	bl	8005576 <HAL_NVIC_SetPriority>
  HAL_NVIC_EnableIRQ(DMA2_Stream3_IRQn);
 8000f28:	203b      	movs	r0, #59	; 0x3b
 8000f2a:	f004 fb40 	bl	80055ae <HAL_NVIC_EnableIRQ>

}
 8000f2e:	bf00      	nop
 8000f30:	3708      	adds	r7, #8
 8000f32:	46bd      	mov	sp, r7
 8000f34:	bd80      	pop	{r7, pc}
 8000f36:	bf00      	nop
 8000f38:	40023800 	.word	0x40023800

08000f3c <MX_FSMC_Init>:

SRAM_HandleTypeDef hsram4;

/* FSMC initialization function */
void MX_FSMC_Init(void)
{
 8000f3c:	b580      	push	{r7, lr}
 8000f3e:	b08e      	sub	sp, #56	; 0x38
 8000f40:	af00      	add	r7, sp, #0
  /* USER CODE BEGIN FSMC_Init 0 */

  /* USER CODE END FSMC_Init 0 */

  FSMC_NORSRAM_TimingTypeDef Timing = {0};
 8000f42:	f107 031c 	add.w	r3, r7, #28
 8000f46:	2200      	movs	r2, #0
 8000f48:	601a      	str	r2, [r3, #0]
 8000f4a:	605a      	str	r2, [r3, #4]
 8000f4c:	609a      	str	r2, [r3, #8]
 8000f4e:	60da      	str	r2, [r3, #12]
 8000f50:	611a      	str	r2, [r3, #16]
 8000f52:	615a      	str	r2, [r3, #20]
 8000f54:	619a      	str	r2, [r3, #24]
  FSMC_NORSRAM_TimingTypeDef ExtTiming = {0};
 8000f56:	463b      	mov	r3, r7
 8000f58:	2200      	movs	r2, #0
 8000f5a:	601a      	str	r2, [r3, #0]
 8000f5c:	605a      	str	r2, [r3, #4]
 8000f5e:	609a      	str	r2, [r3, #8]
 8000f60:	60da      	str	r2, [r3, #12]
 8000f62:	611a      	str	r2, [r3, #16]
 8000f64:	615a      	str	r2, [r3, #20]
 8000f66:	619a      	str	r2, [r3, #24]

  /* USER CODE END FSMC_Init 1 */

  /** Perform the SRAM4 memory initialization sequence
  */
  hsram4.Instance = FSMC_NORSRAM_DEVICE;
 8000f68:	4b2f      	ldr	r3, [pc, #188]	; (8001028 <MX_FSMC_Init+0xec>)
 8000f6a:	f04f 4220 	mov.w	r2, #2684354560	; 0xa0000000
 8000f6e:	601a      	str	r2, [r3, #0]
  hsram4.Extended = FSMC_NORSRAM_EXTENDED_DEVICE;
 8000f70:	4b2d      	ldr	r3, [pc, #180]	; (8001028 <MX_FSMC_Init+0xec>)
 8000f72:	4a2e      	ldr	r2, [pc, #184]	; (800102c <MX_FSMC_Init+0xf0>)
 8000f74:	605a      	str	r2, [r3, #4]
  /* hsram4.Init */
  hsram4.Init.NSBank = FSMC_NORSRAM_BANK4;
 8000f76:	4b2c      	ldr	r3, [pc, #176]	; (8001028 <MX_FSMC_Init+0xec>)
 8000f78:	2206      	movs	r2, #6
 8000f7a:	609a      	str	r2, [r3, #8]
  hsram4.Init.DataAddressMux = FSMC_DATA_ADDRESS_MUX_DISABLE;
 8000f7c:	4b2a      	ldr	r3, [pc, #168]	; (8001028 <MX_FSMC_Init+0xec>)
 8000f7e:	2200      	movs	r2, #0
 8000f80:	60da      	str	r2, [r3, #12]
  hsram4.Init.MemoryType = FSMC_MEMORY_TYPE_SRAM;
 8000f82:	4b29      	ldr	r3, [pc, #164]	; (8001028 <MX_FSMC_Init+0xec>)
 8000f84:	2200      	movs	r2, #0
 8000f86:	611a      	str	r2, [r3, #16]
  hsram4.Init.MemoryDataWidth = FSMC_NORSRAM_MEM_BUS_WIDTH_16;
 8000f88:	4b27      	ldr	r3, [pc, #156]	; (8001028 <MX_FSMC_Init+0xec>)
 8000f8a:	2210      	movs	r2, #16
 8000f8c:	615a      	str	r2, [r3, #20]
  hsram4.Init.BurstAccessMode = FSMC_BURST_ACCESS_MODE_DISABLE;
 8000f8e:	4b26      	ldr	r3, [pc, #152]	; (8001028 <MX_FSMC_Init+0xec>)
 8000f90:	2200      	movs	r2, #0
 8000f92:	619a      	str	r2, [r3, #24]
  hsram4.Init.WaitSignalPolarity = FSMC_WAIT_SIGNAL_POLARITY_LOW;
 8000f94:	4b24      	ldr	r3, [pc, #144]	; (8001028 <MX_FSMC_Init+0xec>)
 8000f96:	2200      	movs	r2, #0
 8000f98:	61da      	str	r2, [r3, #28]
  hsram4.Init.WrapMode = FSMC_WRAP_MODE_DISABLE;
 8000f9a:	4b23      	ldr	r3, [pc, #140]	; (8001028 <MX_FSMC_Init+0xec>)
 8000f9c:	2200      	movs	r2, #0
 8000f9e:	621a      	str	r2, [r3, #32]
  hsram4.Init.WaitSignalActive = FSMC_WAIT_TIMING_BEFORE_WS;
 8000fa0:	4b21      	ldr	r3, [pc, #132]	; (8001028 <MX_FSMC_Init+0xec>)
 8000fa2:	2200      	movs	r2, #0
 8000fa4:	625a      	str	r2, [r3, #36]	; 0x24
  hsram4.Init.WriteOperation = FSMC_WRITE_OPERATION_ENABLE;
 8000fa6:	4b20      	ldr	r3, [pc, #128]	; (8001028 <MX_FSMC_Init+0xec>)
 8000fa8:	f44f 5280 	mov.w	r2, #4096	; 0x1000
 8000fac:	629a      	str	r2, [r3, #40]	; 0x28
  hsram4.Init.WaitSignal = FSMC_WAIT_SIGNAL_DISABLE;
 8000fae:	4b1e      	ldr	r3, [pc, #120]	; (8001028 <MX_FSMC_Init+0xec>)
 8000fb0:	2200      	movs	r2, #0
 8000fb2:	62da      	str	r2, [r3, #44]	; 0x2c
  hsram4.Init.ExtendedMode = FSMC_EXTENDED_MODE_ENABLE;
 8000fb4:	4b1c      	ldr	r3, [pc, #112]	; (8001028 <MX_FSMC_Init+0xec>)
 8000fb6:	f44f 4280 	mov.w	r2, #16384	; 0x4000
 8000fba:	631a      	str	r2, [r3, #48]	; 0x30
  hsram4.Init.AsynchronousWait = FSMC_ASYNCHRONOUS_WAIT_DISABLE;
 8000fbc:	4b1a      	ldr	r3, [pc, #104]	; (8001028 <MX_FSMC_Init+0xec>)
 8000fbe:	2200      	movs	r2, #0
 8000fc0:	635a      	str	r2, [r3, #52]	; 0x34
  hsram4.Init.WriteBurst = FSMC_WRITE_BURST_DISABLE;
 8000fc2:	4b19      	ldr	r3, [pc, #100]	; (8001028 <MX_FSMC_Init+0xec>)
 8000fc4:	2200      	movs	r2, #0
 8000fc6:	639a      	str	r2, [r3, #56]	; 0x38
  hsram4.Init.PageSize = FSMC_PAGE_SIZE_NONE;
 8000fc8:	4b17      	ldr	r3, [pc, #92]	; (8001028 <MX_FSMC_Init+0xec>)
 8000fca:	2200      	movs	r2, #0
 8000fcc:	645a      	str	r2, [r3, #68]	; 0x44
  /* Timing */
  Timing.AddressSetupTime = 2;
 8000fce:	2302      	movs	r3, #2
 8000fd0:	61fb      	str	r3, [r7, #28]
  Timing.AddressHoldTime = 15;
 8000fd2:	230f      	movs	r3, #15
 8000fd4:	623b      	str	r3, [r7, #32]
  Timing.DataSetupTime = 16;
 8000fd6:	2310      	movs	r3, #16
 8000fd8:	627b      	str	r3, [r7, #36]	; 0x24
  Timing.BusTurnAroundDuration = 0;
 8000fda:	2300      	movs	r3, #0
 8000fdc:	62bb      	str	r3, [r7, #40]	; 0x28
  Timing.CLKDivision = 16;
 8000fde:	2310      	movs	r3, #16
 8000fe0:	62fb      	str	r3, [r7, #44]	; 0x2c
  Timing.DataLatency = 17;
 8000fe2:	2311      	movs	r3, #17
 8000fe4:	633b      	str	r3, [r7, #48]	; 0x30
  Timing.AccessMode = FSMC_ACCESS_MODE_A;
 8000fe6:	2300      	movs	r3, #0
 8000fe8:	637b      	str	r3, [r7, #52]	; 0x34
  /* ExtTiming */
  ExtTiming.AddressSetupTime = 4;
 8000fea:	2304      	movs	r3, #4
 8000fec:	603b      	str	r3, [r7, #0]
  ExtTiming.AddressHoldTime = 15;
 8000fee:	230f      	movs	r3, #15
 8000ff0:	607b      	str	r3, [r7, #4]
  ExtTiming.DataSetupTime = 9;
 8000ff2:	2309      	movs	r3, #9
 8000ff4:	60bb      	str	r3, [r7, #8]
  ExtTiming.BusTurnAroundDuration = 0;
 8000ff6:	2300      	movs	r3, #0
 8000ff8:	60fb      	str	r3, [r7, #12]
  ExtTiming.CLKDivision = 16;
 8000ffa:	2310      	movs	r3, #16
 8000ffc:	613b      	str	r3, [r7, #16]
  ExtTiming.DataLatency = 17;
 8000ffe:	2311      	movs	r3, #17
 8001000:	617b      	str	r3, [r7, #20]
  ExtTiming.AccessMode = FSMC_ACCESS_MODE_A;
 8001002:	2300      	movs	r3, #0
 8001004:	61bb      	str	r3, [r7, #24]

  if (HAL_SRAM_Init(&hsram4, &Timing, &ExtTiming) != HAL_OK)
 8001006:	463a      	mov	r2, r7
 8001008:	f107 031c 	add.w	r3, r7, #28
 800100c:	4619      	mov	r1, r3
 800100e:	4806      	ldr	r0, [pc, #24]	; (8001028 <MX_FSMC_Init+0xec>)
 8001010:	f006 fe1e 	bl	8007c50 <HAL_SRAM_Init>
 8001014:	4603      	mov	r3, r0
 8001016:	2b00      	cmp	r3, #0
 8001018:	d001      	beq.n	800101e <MX_FSMC_Init+0xe2>
  {
    Error_Handler( );
 800101a:	f000 fa9b 	bl	8001554 <Error_Handler>
  }

  /* USER CODE BEGIN FSMC_Init 2 */

  /* USER CODE END FSMC_Init 2 */
}
 800101e:	bf00      	nop
 8001020:	3738      	adds	r7, #56	; 0x38
 8001022:	46bd      	mov	sp, r7
 8001024:	bd80      	pop	{r7, pc}
 8001026:	bf00      	nop
 8001028:	200001fc 	.word	0x200001fc
 800102c:	a0000104 	.word	0xa0000104

08001030 <HAL_FSMC_MspInit>:

static uint32_t FSMC_Initialized = 0;

static void HAL_FSMC_MspInit(void){
 8001030:	b580      	push	{r7, lr}
 8001032:	b086      	sub	sp, #24
 8001034:	af00      	add	r7, sp, #0
  /* USER CODE BEGIN FSMC_MspInit 0 */

  /* USER CODE END FSMC_MspInit 0 */
  GPIO_InitTypeDef GPIO_InitStruct = {0};
 8001036:	1d3b      	adds	r3, r7, #4
 8001038:	2200      	movs	r2, #0
 800103a:	601a      	str	r2, [r3, #0]
 800103c:	605a      	str	r2, [r3, #4]
 800103e:	609a      	str	r2, [r3, #8]
 8001040:	60da      	str	r2, [r3, #12]
 8001042:	611a      	str	r2, [r3, #16]
  if (FSMC_Initialized) {
 8001044:	4b2c      	ldr	r3, [pc, #176]	; (80010f8 <HAL_FSMC_MspInit+0xc8>)
 8001046:	681b      	ldr	r3, [r3, #0]
 8001048:	2b00      	cmp	r3, #0
 800104a:	d151      	bne.n	80010f0 <HAL_FSMC_MspInit+0xc0>
    return;
  }
  FSMC_Initialized = 1;
 800104c:	4b2a      	ldr	r3, [pc, #168]	; (80010f8 <HAL_FSMC_MspInit+0xc8>)
 800104e:	2201      	movs	r2, #1
 8001050:	601a      	str	r2, [r3, #0]

  /* Peripheral clock enable */
  __HAL_RCC_FSMC_CLK_ENABLE();
 8001052:	2300      	movs	r3, #0
 8001054:	603b      	str	r3, [r7, #0]
 8001056:	4b29      	ldr	r3, [pc, #164]	; (80010fc <HAL_FSMC_MspInit+0xcc>)
 8001058:	6b9b      	ldr	r3, [r3, #56]	; 0x38
 800105a:	4a28      	ldr	r2, [pc, #160]	; (80010fc <HAL_FSMC_MspInit+0xcc>)
 800105c:	f043 0301 	orr.w	r3, r3, #1
 8001060:	6393      	str	r3, [r2, #56]	; 0x38
 8001062:	4b26      	ldr	r3, [pc, #152]	; (80010fc <HAL_FSMC_MspInit+0xcc>)
 8001064:	6b9b      	ldr	r3, [r3, #56]	; 0x38
 8001066:	f003 0301 	and.w	r3, r3, #1
 800106a:	603b      	str	r3, [r7, #0]
 800106c:	683b      	ldr	r3, [r7, #0]
  PD4   ------> FSMC_NOE
  PD5   ------> FSMC_NWE
  PG12   ------> FSMC_NE4
  */
  /* GPIO_InitStruct */
  GPIO_InitStruct.Pin = GPIO_PIN_12;
 800106e:	f44f 5380 	mov.w	r3, #4096	; 0x1000
 8001072:	607b      	str	r3, [r7, #4]
  GPIO_InitStruct.Mode = GPIO_MODE_AF_PP;
 8001074:	2302      	movs	r3, #2
 8001076:	60bb      	str	r3, [r7, #8]
  GPIO_InitStruct.Pull = GPIO_NOPULL;
 8001078:	2300      	movs	r3, #0
 800107a:	60fb      	str	r3, [r7, #12]
  GPIO_InitStruct.Speed = GPIO_SPEED_FREQ_VERY_HIGH;
 800107c:	2303      	movs	r3, #3
 800107e:	613b      	str	r3, [r7, #16]
  GPIO_InitStruct.Alternate = GPIO_AF12_FSMC;
 8001080:	230c      	movs	r3, #12
 8001082:	617b      	str	r3, [r7, #20]

  HAL_GPIO_Init(GPIOF, &GPIO_InitStruct);
 8001084:	1d3b      	adds	r3, r7, #4
 8001086:	4619      	mov	r1, r3
 8001088:	481d      	ldr	r0, [pc, #116]	; (8001100 <HAL_FSMC_MspInit+0xd0>)
 800108a:	f004 fe1b 	bl	8005cc4 <HAL_GPIO_Init>

  /* GPIO_InitStruct */
  GPIO_InitStruct.Pin = GPIO_PIN_7|GPIO_PIN_8|GPIO_PIN_9|GPIO_PIN_10
 800108e:	f64f 7380 	movw	r3, #65408	; 0xff80
 8001092:	607b      	str	r3, [r7, #4]
                          |GPIO_PIN_11|GPIO_PIN_12|GPIO_PIN_13|GPIO_PIN_14
                          |GPIO_PIN_15;
  GPIO_InitStruct.Mode = GPIO_MODE_AF_PP;
 8001094:	2302      	movs	r3, #2
 8001096:	60bb      	str	r3, [r7, #8]
  GPIO_InitStruct.Pull = GPIO_NOPULL;
 8001098:	2300      	movs	r3, #0
 800109a:	60fb      	str	r3, [r7, #12]
  GPIO_InitStruct.Speed = GPIO_SPEED_FREQ_VERY_HIGH;
 800109c:	2303      	movs	r3, #3
 800109e:	613b      	str	r3, [r7, #16]
  GPIO_InitStruct.Alternate = GPIO_AF12_FSMC;
 80010a0:	230c      	movs	r3, #12
 80010a2:	617b      	str	r3, [r7, #20]

  HAL_GPIO_Init(GPIOE, &GPIO_InitStruct);
 80010a4:	1d3b      	adds	r3, r7, #4
 80010a6:	4619      	mov	r1, r3
 80010a8:	4816      	ldr	r0, [pc, #88]	; (8001104 <HAL_FSMC_MspInit+0xd4>)
 80010aa:	f004 fe0b 	bl	8005cc4 <HAL_GPIO_Init>

  /* GPIO_InitStruct */
  GPIO_InitStruct.Pin = GPIO_PIN_8|GPIO_PIN_9|GPIO_PIN_10|GPIO_PIN_14
 80010ae:	f24c 7333 	movw	r3, #50995	; 0xc733
 80010b2:	607b      	str	r3, [r7, #4]
                          |GPIO_PIN_15|GPIO_PIN_0|GPIO_PIN_1|GPIO_PIN_4
                          |GPIO_PIN_5;
  GPIO_InitStruct.Mode = GPIO_MODE_AF_PP;
 80010b4:	2302      	movs	r3, #2
 80010b6:	60bb      	str	r3, [r7, #8]
  GPIO_InitStruct.Pull = GPIO_NOPULL;
 80010b8:	2300      	movs	r3, #0
 80010ba:	60fb      	str	r3, [r7, #12]
  GPIO_InitStruct.Speed = GPIO_SPEED_FREQ_VERY_HIGH;
 80010bc:	2303      	movs	r3, #3
 80010be:	613b      	str	r3, [r7, #16]
  GPIO_InitStruct.Alternate = GPIO_AF12_FSMC;
 80010c0:	230c      	movs	r3, #12
 80010c2:	617b      	str	r3, [r7, #20]

  HAL_GPIO_Init(GPIOD, &GPIO_InitStruct);
 80010c4:	1d3b      	adds	r3, r7, #4
 80010c6:	4619      	mov	r1, r3
 80010c8:	480f      	ldr	r0, [pc, #60]	; (8001108 <HAL_FSMC_MspInit+0xd8>)
 80010ca:	f004 fdfb 	bl	8005cc4 <HAL_GPIO_Init>

  /* GPIO_InitStruct */
  GPIO_InitStruct.Pin = GPIO_PIN_12;
 80010ce:	f44f 5380 	mov.w	r3, #4096	; 0x1000
 80010d2:	607b      	str	r3, [r7, #4]
  GPIO_InitStruct.Mode = GPIO_MODE_AF_PP;
 80010d4:	2302      	movs	r3, #2
 80010d6:	60bb      	str	r3, [r7, #8]
  GPIO_InitStruct.Pull = GPIO_NOPULL;
 80010d8:	2300      	movs	r3, #0
 80010da:	60fb      	str	r3, [r7, #12]
  GPIO_InitStruct.Speed = GPIO_SPEED_FREQ_VERY_HIGH;
 80010dc:	2303      	movs	r3, #3
 80010de:	613b      	str	r3, [r7, #16]
  GPIO_InitStruct.Alternate = GPIO_AF12_FSMC;
 80010e0:	230c      	movs	r3, #12
 80010e2:	617b      	str	r3, [r7, #20]

  HAL_GPIO_Init(GPIOG, &GPIO_InitStruct);
 80010e4:	1d3b      	adds	r3, r7, #4
 80010e6:	4619      	mov	r1, r3
 80010e8:	4808      	ldr	r0, [pc, #32]	; (800110c <HAL_FSMC_MspInit+0xdc>)
 80010ea:	f004 fdeb 	bl	8005cc4 <HAL_GPIO_Init>
 80010ee:	e000      	b.n	80010f2 <HAL_FSMC_MspInit+0xc2>
    return;
 80010f0:	bf00      	nop

  /* USER CODE BEGIN FSMC_MspInit 1 */

  /* USER CODE END FSMC_MspInit 1 */
}
 80010f2:	3718      	adds	r7, #24
 80010f4:	46bd      	mov	sp, r7
 80010f6:	bd80      	pop	{r7, pc}
 80010f8:	2000024c 	.word	0x2000024c
 80010fc:	40023800 	.word	0x40023800
 8001100:	40021400 	.word	0x40021400
 8001104:	40021000 	.word	0x40021000
 8001108:	40020c00 	.word	0x40020c00
 800110c:	40021800 	.word	0x40021800

08001110 <HAL_SRAM_MspInit>:

void HAL_SRAM_MspInit(SRAM_HandleTypeDef* sramHandle){
 8001110:	b580      	push	{r7, lr}
 8001112:	b082      	sub	sp, #8
 8001114:	af00      	add	r7, sp, #0
 8001116:	6078      	str	r0, [r7, #4]
  /* USER CODE BEGIN SRAM_MspInit 0 */

  /* USER CODE END SRAM_MspInit 0 */
  HAL_FSMC_MspInit();
 8001118:	f7ff ff8a 	bl	8001030 <HAL_FSMC_MspInit>
  /* USER CODE BEGIN SRAM_MspInit 1 */

  /* USER CODE END SRAM_MspInit 1 */
}
 800111c:	bf00      	nop
 800111e:	3708      	adds	r7, #8
 8001120:	46bd      	mov	sp, r7
 8001122:	bd80      	pop	{r7, pc}

08001124 <MX_GPIO_Init>:
        * Output
        * EVENT_OUT
        * EXTI
*/
void MX_GPIO_Init(void)
{
 8001124:	b580      	push	{r7, lr}
 8001126:	b08c      	sub	sp, #48	; 0x30
 8001128:	af00      	add	r7, sp, #0

  GPIO_InitTypeDef GPIO_InitStruct = {0};
 800112a:	f107 031c 	add.w	r3, r7, #28
 800112e:	2200      	movs	r2, #0
 8001130:	601a      	str	r2, [r3, #0]
 8001132:	605a      	str	r2, [r3, #4]
 8001134:	609a      	str	r2, [r3, #8]
 8001136:	60da      	str	r2, [r3, #12]
 8001138:	611a      	str	r2, [r3, #16]

  /* GPIO Ports Clock Enable */
  __HAL_RCC_GPIOE_CLK_ENABLE();
 800113a:	2300      	movs	r3, #0
 800113c:	61bb      	str	r3, [r7, #24]
 800113e:	4b56      	ldr	r3, [pc, #344]	; (8001298 <MX_GPIO_Init+0x174>)
 8001140:	6b1b      	ldr	r3, [r3, #48]	; 0x30
 8001142:	4a55      	ldr	r2, [pc, #340]	; (8001298 <MX_GPIO_Init+0x174>)
 8001144:	f043 0310 	orr.w	r3, r3, #16
 8001148:	6313      	str	r3, [r2, #48]	; 0x30
 800114a:	4b53      	ldr	r3, [pc, #332]	; (8001298 <MX_GPIO_Init+0x174>)
 800114c:	6b1b      	ldr	r3, [r3, #48]	; 0x30
 800114e:	f003 0310 	and.w	r3, r3, #16
 8001152:	61bb      	str	r3, [r7, #24]
 8001154:	69bb      	ldr	r3, [r7, #24]
  __HAL_RCC_GPIOF_CLK_ENABLE();
 8001156:	2300      	movs	r3, #0
 8001158:	617b      	str	r3, [r7, #20]
 800115a:	4b4f      	ldr	r3, [pc, #316]	; (8001298 <MX_GPIO_Init+0x174>)
 800115c:	6b1b      	ldr	r3, [r3, #48]	; 0x30
 800115e:	4a4e      	ldr	r2, [pc, #312]	; (8001298 <MX_GPIO_Init+0x174>)
 8001160:	f043 0320 	orr.w	r3, r3, #32
 8001164:	6313      	str	r3, [r2, #48]	; 0x30
 8001166:	4b4c      	ldr	r3, [pc, #304]	; (8001298 <MX_GPIO_Init+0x174>)
 8001168:	6b1b      	ldr	r3, [r3, #48]	; 0x30
 800116a:	f003 0320 	and.w	r3, r3, #32
 800116e:	617b      	str	r3, [r7, #20]
 8001170:	697b      	ldr	r3, [r7, #20]
  __HAL_RCC_GPIOH_CLK_ENABLE();
 8001172:	2300      	movs	r3, #0
 8001174:	613b      	str	r3, [r7, #16]
 8001176:	4b48      	ldr	r3, [pc, #288]	; (8001298 <MX_GPIO_Init+0x174>)
 8001178:	6b1b      	ldr	r3, [r3, #48]	; 0x30
 800117a:	4a47      	ldr	r2, [pc, #284]	; (8001298 <MX_GPIO_Init+0x174>)
 800117c:	f043 0380 	orr.w	r3, r3, #128	; 0x80
 8001180:	6313      	str	r3, [r2, #48]	; 0x30
 8001182:	4b45      	ldr	r3, [pc, #276]	; (8001298 <MX_GPIO_Init+0x174>)
 8001184:	6b1b      	ldr	r3, [r3, #48]	; 0x30
 8001186:	f003 0380 	and.w	r3, r3, #128	; 0x80
 800118a:	613b      	str	r3, [r7, #16]
 800118c:	693b      	ldr	r3, [r7, #16]
  __HAL_RCC_GPIOA_CLK_ENABLE();
 800118e:	2300      	movs	r3, #0
 8001190:	60fb      	str	r3, [r7, #12]
 8001192:	4b41      	ldr	r3, [pc, #260]	; (8001298 <MX_GPIO_Init+0x174>)
 8001194:	6b1b      	ldr	r3, [r3, #48]	; 0x30
 8001196:	4a40      	ldr	r2, [pc, #256]	; (8001298 <MX_GPIO_Init+0x174>)
 8001198:	f043 0301 	orr.w	r3, r3, #1
 800119c:	6313      	str	r3, [r2, #48]	; 0x30
 800119e:	4b3e      	ldr	r3, [pc, #248]	; (8001298 <MX_GPIO_Init+0x174>)
 80011a0:	6b1b      	ldr	r3, [r3, #48]	; 0x30
 80011a2:	f003 0301 	and.w	r3, r3, #1
 80011a6:	60fb      	str	r3, [r7, #12]
 80011a8:	68fb      	ldr	r3, [r7, #12]
  __HAL_RCC_GPIOB_CLK_ENABLE();
 80011aa:	2300      	movs	r3, #0
 80011ac:	60bb      	str	r3, [r7, #8]
 80011ae:	4b3a      	ldr	r3, [pc, #232]	; (8001298 <MX_GPIO_Init+0x174>)
 80011b0:	6b1b      	ldr	r3, [r3, #48]	; 0x30
 80011b2:	4a39      	ldr	r2, [pc, #228]	; (8001298 <MX_GPIO_Init+0x174>)
 80011b4:	f043 0302 	orr.w	r3, r3, #2
 80011b8:	6313      	str	r3, [r2, #48]	; 0x30
 80011ba:	4b37      	ldr	r3, [pc, #220]	; (8001298 <MX_GPIO_Init+0x174>)
 80011bc:	6b1b      	ldr	r3, [r3, #48]	; 0x30
 80011be:	f003 0302 	and.w	r3, r3, #2
 80011c2:	60bb      	str	r3, [r7, #8]
 80011c4:	68bb      	ldr	r3, [r7, #8]
  __HAL_RCC_GPIOD_CLK_ENABLE();
 80011c6:	2300      	movs	r3, #0
 80011c8:	607b      	str	r3, [r7, #4]
 80011ca:	4b33      	ldr	r3, [pc, #204]	; (8001298 <MX_GPIO_Init+0x174>)
 80011cc:	6b1b      	ldr	r3, [r3, #48]	; 0x30
 80011ce:	4a32      	ldr	r2, [pc, #200]	; (8001298 <MX_GPIO_Init+0x174>)
 80011d0:	f043 0308 	orr.w	r3, r3, #8
 80011d4:	6313      	str	r3, [r2, #48]	; 0x30
 80011d6:	4b30      	ldr	r3, [pc, #192]	; (8001298 <MX_GPIO_Init+0x174>)
 80011d8:	6b1b      	ldr	r3, [r3, #48]	; 0x30
 80011da:	f003 0308 	and.w	r3, r3, #8
 80011de:	607b      	str	r3, [r7, #4]
 80011e0:	687b      	ldr	r3, [r7, #4]
  __HAL_RCC_GPIOG_CLK_ENABLE();
 80011e2:	2300      	movs	r3, #0
 80011e4:	603b      	str	r3, [r7, #0]
 80011e6:	4b2c      	ldr	r3, [pc, #176]	; (8001298 <MX_GPIO_Init+0x174>)
 80011e8:	6b1b      	ldr	r3, [r3, #48]	; 0x30
 80011ea:	4a2b      	ldr	r2, [pc, #172]	; (8001298 <MX_GPIO_Init+0x174>)
 80011ec:	f043 0340 	orr.w	r3, r3, #64	; 0x40
 80011f0:	6313      	str	r3, [r2, #48]	; 0x30
 80011f2:	4b29      	ldr	r3, [pc, #164]	; (8001298 <MX_GPIO_Init+0x174>)
 80011f4:	6b1b      	ldr	r3, [r3, #48]	; 0x30
 80011f6:	f003 0340 	and.w	r3, r3, #64	; 0x40
 80011fa:	603b      	str	r3, [r7, #0]
 80011fc:	683b      	ldr	r3, [r7, #0]

  /*Configure GPIO pin Output Level */
  HAL_GPIO_WritePin(GPIOF, LED1_Pin|LED2_Pin, GPIO_PIN_RESET);
 80011fe:	2200      	movs	r2, #0
 8001200:	f44f 61c0 	mov.w	r1, #1536	; 0x600
 8001204:	4825      	ldr	r0, [pc, #148]	; (800129c <MX_GPIO_Init+0x178>)
 8001206:	f004 ff11 	bl	800602c <HAL_GPIO_WritePin>

  /*Configure GPIO pin Output Level */
  HAL_GPIO_WritePin(GPIOB, GPIO_PIN_14, GPIO_PIN_SET);
 800120a:	2201      	movs	r2, #1
 800120c:	f44f 4180 	mov.w	r1, #16384	; 0x4000
 8001210:	4823      	ldr	r0, [pc, #140]	; (80012a0 <MX_GPIO_Init+0x17c>)
 8001212:	f004 ff0b 	bl	800602c <HAL_GPIO_WritePin>

  /*Configure GPIO pin Output Level */
  HAL_GPIO_WritePin(LCD_BL_GPIO_Port, LCD_BL_Pin, GPIO_PIN_RESET);
 8001216:	2200      	movs	r2, #0
 8001218:	f44f 4100 	mov.w	r1, #32768	; 0x8000
 800121c:	4820      	ldr	r0, [pc, #128]	; (80012a0 <MX_GPIO_Init+0x17c>)
 800121e:	f004 ff05 	bl	800602c <HAL_GPIO_WritePin>

  /*Configure GPIO pins : PEPin PEPin PEPin */
  GPIO_InitStruct.Pin = KeyLeft_Pin|KeyDown_Pin|KeyRight_Pin;
 8001222:	231c      	movs	r3, #28
 8001224:	61fb      	str	r3, [r7, #28]
  GPIO_InitStruct.Mode = GPIO_MODE_INPUT;
 8001226:	2300      	movs	r3, #0
 8001228:	623b      	str	r3, [r7, #32]
  GPIO_InitStruct.Pull = GPIO_PULLUP;
 800122a:	2301      	movs	r3, #1
 800122c:	627b      	str	r3, [r7, #36]	; 0x24
  HAL_GPIO_Init(GPIOE, &GPIO_InitStruct);
 800122e:	f107 031c 	add.w	r3, r7, #28
 8001232:	4619      	mov	r1, r3
 8001234:	481b      	ldr	r0, [pc, #108]	; (80012a4 <MX_GPIO_Init+0x180>)
 8001236:	f004 fd45 	bl	8005cc4 <HAL_GPIO_Init>

  /*Configure GPIO pins : PFPin PFPin */
  GPIO_InitStruct.Pin = LED1_Pin|LED2_Pin;
 800123a:	f44f 63c0 	mov.w	r3, #1536	; 0x600
 800123e:	61fb      	str	r3, [r7, #28]
  GPIO_InitStruct.Mode = GPIO_MODE_OUTPUT_PP;
 8001240:	2301      	movs	r3, #1
 8001242:	623b      	str	r3, [r7, #32]
  GPIO_InitStruct.Pull = GPIO_NOPULL;
 8001244:	2300      	movs	r3, #0
 8001246:	627b      	str	r3, [r7, #36]	; 0x24
  GPIO_InitStruct.Speed = GPIO_SPEED_FREQ_LOW;
 8001248:	2300      	movs	r3, #0
 800124a:	62bb      	str	r3, [r7, #40]	; 0x28
  HAL_GPIO_Init(GPIOF, &GPIO_InitStruct);
 800124c:	f107 031c 	add.w	r3, r7, #28
 8001250:	4619      	mov	r1, r3
 8001252:	4812      	ldr	r0, [pc, #72]	; (800129c <MX_GPIO_Init+0x178>)
 8001254:	f004 fd36 	bl	8005cc4 <HAL_GPIO_Init>

  /*Configure GPIO pin : PtPin */
  GPIO_InitStruct.Pin = KeyUp_Pin;
 8001258:	2301      	movs	r3, #1
 800125a:	61fb      	str	r3, [r7, #28]
  GPIO_InitStruct.Mode = GPIO_MODE_INPUT;
 800125c:	2300      	movs	r3, #0
 800125e:	623b      	str	r3, [r7, #32]
  GPIO_InitStruct.Pull = GPIO_PULLDOWN;
 8001260:	2302      	movs	r3, #2
 8001262:	627b      	str	r3, [r7, #36]	; 0x24
  HAL_GPIO_Init(KeyUp_GPIO_Port, &GPIO_InitStruct);
 8001264:	f107 031c 	add.w	r3, r7, #28
 8001268:	4619      	mov	r1, r3
 800126a:	480f      	ldr	r0, [pc, #60]	; (80012a8 <MX_GPIO_Init+0x184>)
 800126c:	f004 fd2a 	bl	8005cc4 <HAL_GPIO_Init>

  /*Configure GPIO pins : PB14 PBPin */
  GPIO_InitStruct.Pin = GPIO_PIN_14|LCD_BL_Pin;
 8001270:	f44f 4340 	mov.w	r3, #49152	; 0xc000
 8001274:	61fb      	str	r3, [r7, #28]
  GPIO_InitStruct.Mode = GPIO_MODE_OUTPUT_PP;
 8001276:	2301      	movs	r3, #1
 8001278:	623b      	str	r3, [r7, #32]
  GPIO_InitStruct.Pull = GPIO_NOPULL;
 800127a:	2300      	movs	r3, #0
 800127c:	627b      	str	r3, [r7, #36]	; 0x24
  GPIO_InitStruct.Speed = GPIO_SPEED_FREQ_LOW;
 800127e:	2300      	movs	r3, #0
 8001280:	62bb      	str	r3, [r7, #40]	; 0x28
  HAL_GPIO_Init(GPIOB, &GPIO_InitStruct);
 8001282:	f107 031c 	add.w	r3, r7, #28
 8001286:	4619      	mov	r1, r3
 8001288:	4805      	ldr	r0, [pc, #20]	; (80012a0 <MX_GPIO_Init+0x17c>)
 800128a:	f004 fd1b 	bl	8005cc4 <HAL_GPIO_Init>

}
 800128e:	bf00      	nop
 8001290:	3730      	adds	r7, #48	; 0x30
 8001292:	46bd      	mov	sp, r7
 8001294:	bd80      	pop	{r7, pc}
 8001296:	bf00      	nop
 8001298:	40023800 	.word	0x40023800
 800129c:	40021400 	.word	0x40021400
 80012a0:	40020400 	.word	0x40020400
 80012a4:	40021000 	.word	0x40021000
 80012a8:	40020000 	.word	0x40020000

080012ac <main>:
/**
  * @brief  The application entry point.
  * @retval int
  */
int main(void)
{
 80012ac:	b580      	push	{r7, lr}
 80012ae:	b084      	sub	sp, #16
 80012b0:	af02      	add	r7, sp, #8
  /* USER CODE END 1 */

  /* MCU Configuration--------------------------------------------------------*/

  /* Reset of all peripherals, Initializes the Flash interface and the Systick. */
  HAL_Init();
 80012b2:	f003 ffef 	bl	8005294 <HAL_Init>
  /* USER CODE BEGIN Init */

  /* USER CODE END Init */

  /* Configure the system clock */
  SystemClock_Config();
 80012b6:	f000 f8e3 	bl	8001480 <SystemClock_Config>
  /* USER CODE BEGIN SysInit */

  /* USER CODE END SysInit */

  /* Initialize all configured peripherals */
  MX_GPIO_Init();
 80012ba:	f7ff ff33 	bl	8001124 <MX_GPIO_Init>
  MX_DMA_Init();
 80012be:	f7ff fe15 	bl	8000eec <MX_DMA_Init>
  MX_FSMC_Init();
 80012c2:	f7ff fe3b 	bl	8000f3c <MX_FSMC_Init>
  MX_SPI1_Init();
 80012c6:	f000 f94b 	bl	8001560 <MX_SPI1_Init>
  /* USER CODE BEGIN 2 */
  lcd_init();
 80012ca:	f001 f929 	bl	8002520 <lcd_init>
  lcd_show_str(10, 0*30 + 10, 24, "Demo16_2:SPI-DMA Read/Write", RED);
 80012ce:	f44f 4378 	mov.w	r3, #63488	; 0xf800
 80012d2:	9300      	str	r3, [sp, #0]
 80012d4:	4b5f      	ldr	r3, [pc, #380]	; (8001454 <main+0x1a8>)
 80012d6:	2218      	movs	r2, #24
 80012d8:	210a      	movs	r1, #10
 80012da:	200a      	movs	r0, #10
 80012dc:	f001 fbe4 	bl	8002aa8 <lcd_show_str>
  lcd_show_str(10, 1*30 + 10, 24, "128M-bit --Flash Memory", RED);
 80012e0:	f44f 4378 	mov.w	r3, #63488	; 0xf800
 80012e4:	9300      	str	r3, [sp, #0]
 80012e6:	4b5c      	ldr	r3, [pc, #368]	; (8001458 <main+0x1ac>)
 80012e8:	2218      	movs	r2, #24
 80012ea:	2128      	movs	r1, #40	; 0x28
 80012ec:	200a      	movs	r0, #10
 80012ee:	f001 fbdb 	bl	8002aa8 <lcd_show_str>

  Flash_TestReadStatus();
 80012f2:	f000 fa17 	bl	8001724 <Flash_TestReadStatus>

  lcd_show_str(10, 6*30 + 10, 24, "[1]KeyUp    = Erase Chip", RED);
 80012f6:	f44f 4378 	mov.w	r3, #63488	; 0xf800
 80012fa:	9300      	str	r3, [sp, #0]
 80012fc:	4b57      	ldr	r3, [pc, #348]	; (800145c <main+0x1b0>)
 80012fe:	2218      	movs	r2, #24
 8001300:	21be      	movs	r1, #190	; 0xbe
 8001302:	200a      	movs	r0, #10
 8001304:	f001 fbd0 	bl	8002aa8 <lcd_show_str>
  lcd_show_str(10, 7*30 + 10, 24, "[2]KeyDown  = Erase Sector 0", RED);
 8001308:	f44f 4378 	mov.w	r3, #63488	; 0xf800
 800130c:	9300      	str	r3, [sp, #0]
 800130e:	4b54      	ldr	r3, [pc, #336]	; (8001460 <main+0x1b4>)
 8001310:	2218      	movs	r2, #24
 8001312:	21dc      	movs	r1, #220	; 0xdc
 8001314:	200a      	movs	r0, #10
 8001316:	f001 fbc7 	bl	8002aa8 <lcd_show_str>
  lcd_show_str(10, 8*30 + 10, 24, "[3]KeyLeft  = Write Page 3", RED);
 800131a:	f44f 4378 	mov.w	r3, #63488	; 0xf800
 800131e:	9300      	str	r3, [sp, #0]
 8001320:	4b50      	ldr	r3, [pc, #320]	; (8001464 <main+0x1b8>)
 8001322:	2218      	movs	r2, #24
 8001324:	21fa      	movs	r1, #250	; 0xfa
 8001326:	200a      	movs	r0, #10
 8001328:	f001 fbbe 	bl	8002aa8 <lcd_show_str>
  lcd_show_str(10, 9*30 + 10, 24, "[4]KeyRight = Read Page 3", RED);
 800132c:	f44f 4378 	mov.w	r3, #63488	; 0xf800
 8001330:	9300      	str	r3, [sp, #0]
 8001332:	4b4d      	ldr	r3, [pc, #308]	; (8001468 <main+0x1bc>)
 8001334:	2218      	movs	r2, #24
 8001336:	f44f 718c 	mov.w	r1, #280	; 0x118
 800133a:	200a      	movs	r0, #10
 800133c:	f001 fbb4 	bl	8002aa8 <lcd_show_str>

  /* Infinite loop */
  /* USER CODE BEGIN WHILE */
  while (1)
  {
	  KEYS curkey = ScanPressedKey(KEY_WAIT_ALWAYS);
 8001340:	2000      	movs	r0, #0
 8001342:	f000 fcc7 	bl	8001cd4 <ScanPressedKey>
 8001346:	4603      	mov	r3, r0
 8001348:	71fb      	strb	r3, [r7, #7]
	  switch (curkey) {
 800134a:	79fb      	ldrb	r3, [r7, #7]
 800134c:	3b01      	subs	r3, #1
 800134e:	2b03      	cmp	r3, #3
 8001350:	d871      	bhi.n	8001436 <main+0x18a>
 8001352:	a201      	add	r2, pc, #4	; (adr r2, 8001358 <main+0xac>)
 8001354:	f852 f023 	ldr.w	pc, [r2, r3, lsl #2]
 8001358:	080013fb 	.word	0x080013fb
 800135c:	08001419 	.word	0x08001419
 8001360:	08001369 	.word	0x08001369
 8001364:	080013af 	.word	0x080013af
		  case KEY_UP:
			  lcd_fill(0, 10*30 + 10, 479, 799, WHITE);
 8001368:	f64f 73ff 	movw	r3, #65535	; 0xffff
 800136c:	9300      	str	r3, [sp, #0]
 800136e:	f240 331f 	movw	r3, #799	; 0x31f
 8001372:	f240 12df 	movw	r2, #479	; 0x1df
 8001376:	f44f 719b 	mov.w	r1, #310	; 0x136
 800137a:	2000      	movs	r0, #0
 800137c:	f001 fa78 	bl	8002870 <lcd_fill>
			  lcd_show_str(10,11*30 + 10, 24, "Erasing chip, about 30 sec...", RED);
 8001380:	f44f 4378 	mov.w	r3, #63488	; 0xf800
 8001384:	9300      	str	r3, [sp, #0]
 8001386:	4b39      	ldr	r3, [pc, #228]	; (800146c <main+0x1c0>)
 8001388:	2218      	movs	r2, #24
 800138a:	f44f 71aa 	mov.w	r1, #340	; 0x154
 800138e:	200a      	movs	r0, #10
 8001390:	f001 fb8a 	bl	8002aa8 <lcd_show_str>
			  Flash_EraseChip();
 8001394:	f003 feda 	bl	800514c <Flash_EraseChip>
			  lcd_show_str(10,12*30 + 10, 24, "Chip is erased.              ", RED);
 8001398:	f44f 4378 	mov.w	r3, #63488	; 0xf800
 800139c:	9300      	str	r3, [sp, #0]
 800139e:	4b34      	ldr	r3, [pc, #208]	; (8001470 <main+0x1c4>)
 80013a0:	2218      	movs	r2, #24
 80013a2:	f44f 71b9 	mov.w	r1, #370	; 0x172
 80013a6:	200a      	movs	r0, #10
 80013a8:	f001 fb7e 	bl	8002aa8 <lcd_show_str>
			  break;
 80013ac:	e043      	b.n	8001436 <main+0x18a>
		  case KEY_DOWN:
			  lcd_fill(0, 10*30 + 10, 479, 799, WHITE);
 80013ae:	f64f 73ff 	movw	r3, #65535	; 0xffff
 80013b2:	9300      	str	r3, [sp, #0]
 80013b4:	f240 331f 	movw	r3, #799	; 0x31f
 80013b8:	f240 12df 	movw	r2, #479	; 0x1df
 80013bc:	f44f 719b 	mov.w	r1, #310	; 0x136
 80013c0:	2000      	movs	r0, #0
 80013c2:	f001 fa55 	bl	8002870 <lcd_fill>
			  lcd_show_str(10,11*30 + 10, 24, "Erasing Sector 0(16 pages)...", RED);
 80013c6:	f44f 4378 	mov.w	r3, #63488	; 0xf800
 80013ca:	9300      	str	r3, [sp, #0]
 80013cc:	4b29      	ldr	r3, [pc, #164]	; (8001474 <main+0x1c8>)
 80013ce:	2218      	movs	r2, #24
 80013d0:	f44f 71aa 	mov.w	r1, #340	; 0x154
 80013d4:	200a      	movs	r0, #10
 80013d6:	f001 fb67 	bl	8002aa8 <lcd_show_str>
			  uint32_t globalAddr = 0;
 80013da:	2300      	movs	r3, #0
 80013dc:	603b      	str	r3, [r7, #0]
			  Flash_EraseBlock64K(globalAddr);
 80013de:	6838      	ldr	r0, [r7, #0]
 80013e0:	f003 ff04 	bl	80051ec <Flash_EraseBlock64K>
			  lcd_show_str(10,12*30 + 10, 24, "Sector 0 is erased.           ", RED);
 80013e4:	f44f 4378 	mov.w	r3, #63488	; 0xf800
 80013e8:	9300      	str	r3, [sp, #0]
 80013ea:	4b23      	ldr	r3, [pc, #140]	; (8001478 <main+0x1cc>)
 80013ec:	2218      	movs	r2, #24
 80013ee:	f44f 71b9 	mov.w	r1, #370	; 0x172
 80013f2:	200a      	movs	r0, #10
 80013f4:	f001 fb58 	bl	8002aa8 <lcd_show_str>
			  break;
 80013f8:	e01d      	b.n	8001436 <main+0x18a>
		  case KEY_LEFT:
			  lcd_fill(0, 10*30 + 10, 479, 799, WHITE);
 80013fa:	f64f 73ff 	movw	r3, #65535	; 0xffff
 80013fe:	9300      	str	r3, [sp, #0]
 8001400:	f240 331f 	movw	r3, #799	; 0x31f
 8001404:	f240 12df 	movw	r2, #479	; 0x1df
 8001408:	f44f 719b 	mov.w	r1, #310	; 0x136
 800140c:	2000      	movs	r0, #0
 800140e:	f001 fa2f 	bl	8002870 <lcd_fill>
			  Flash_TestWriteDMA();
 8001412:	f000 fa4f 	bl	80018b4 <Flash_TestWriteDMA>
			  break;
 8001416:	e00e      	b.n	8001436 <main+0x18a>
		  case KEY_RIGHT:
			  lcd_fill(0, 10*30 + 10, 479, 799, WHITE);
 8001418:	f64f 73ff 	movw	r3, #65535	; 0xffff
 800141c:	9300      	str	r3, [sp, #0]
 800141e:	f240 331f 	movw	r3, #799	; 0x31f
 8001422:	f240 12df 	movw	r2, #479	; 0x1df
 8001426:	f44f 719b 	mov.w	r1, #310	; 0x136
 800142a:	2000      	movs	r0, #0
 800142c:	f001 fa20 	bl	8002870 <lcd_fill>
			  Flash_TestReadDMA();
 8001430:	f000 fa94 	bl	800195c <Flash_TestReadDMA>
			  break;
 8001434:	bf00      	nop
	  }
	  lcd_show_str(10,18*30 + 10, 24, "**Reselect menu or reset**", RED);
 8001436:	f44f 4378 	mov.w	r3, #63488	; 0xf800
 800143a:	9300      	str	r3, [sp, #0]
 800143c:	4b0f      	ldr	r3, [pc, #60]	; (800147c <main+0x1d0>)
 800143e:	2218      	movs	r2, #24
 8001440:	f240 2126 	movw	r1, #550	; 0x226
 8001444:	200a      	movs	r0, #10
 8001446:	f001 fb2f 	bl	8002aa8 <lcd_show_str>
	  HAL_Delay(500);
 800144a:	f44f 70fa 	mov.w	r0, #500	; 0x1f4
 800144e:	f003 ff93 	bl	8005378 <HAL_Delay>
  {
 8001452:	e775      	b.n	8001340 <main+0x94>
 8001454:	0800acd0 	.word	0x0800acd0
 8001458:	0800acec 	.word	0x0800acec
 800145c:	0800ad04 	.word	0x0800ad04
 8001460:	0800ad20 	.word	0x0800ad20
 8001464:	0800ad40 	.word	0x0800ad40
 8001468:	0800ad5c 	.word	0x0800ad5c
 800146c:	0800ad78 	.word	0x0800ad78
 8001470:	0800ad98 	.word	0x0800ad98
 8001474:	0800adb8 	.word	0x0800adb8
 8001478:	0800add8 	.word	0x0800add8
 800147c:	0800adf8 	.word	0x0800adf8

08001480 <SystemClock_Config>:
/**
  * @brief System Clock Configuration
  * @retval None
  */
void SystemClock_Config(void)
{
 8001480:	b580      	push	{r7, lr}
 8001482:	b094      	sub	sp, #80	; 0x50
 8001484:	af00      	add	r7, sp, #0
  RCC_OscInitTypeDef RCC_OscInitStruct = {0};
 8001486:	f107 0320 	add.w	r3, r7, #32
 800148a:	2230      	movs	r2, #48	; 0x30
 800148c:	2100      	movs	r1, #0
 800148e:	4618      	mov	r0, r3
 8001490:	f006 fd28 	bl	8007ee4 <memset>
  RCC_ClkInitTypeDef RCC_ClkInitStruct = {0};
 8001494:	f107 030c 	add.w	r3, r7, #12
 8001498:	2200      	movs	r2, #0
 800149a:	601a      	str	r2, [r3, #0]
 800149c:	605a      	str	r2, [r3, #4]
 800149e:	609a      	str	r2, [r3, #8]
 80014a0:	60da      	str	r2, [r3, #12]
 80014a2:	611a      	str	r2, [r3, #16]

  /** Configure the main internal regulator output voltage
  */
  __HAL_RCC_PWR_CLK_ENABLE();
 80014a4:	2300      	movs	r3, #0
 80014a6:	60bb      	str	r3, [r7, #8]
 80014a8:	4b28      	ldr	r3, [pc, #160]	; (800154c <SystemClock_Config+0xcc>)
 80014aa:	6c1b      	ldr	r3, [r3, #64]	; 0x40
 80014ac:	4a27      	ldr	r2, [pc, #156]	; (800154c <SystemClock_Config+0xcc>)
 80014ae:	f043 5380 	orr.w	r3, r3, #268435456	; 0x10000000
 80014b2:	6413      	str	r3, [r2, #64]	; 0x40
 80014b4:	4b25      	ldr	r3, [pc, #148]	; (800154c <SystemClock_Config+0xcc>)
 80014b6:	6c1b      	ldr	r3, [r3, #64]	; 0x40
 80014b8:	f003 5380 	and.w	r3, r3, #268435456	; 0x10000000
 80014bc:	60bb      	str	r3, [r7, #8]
 80014be:	68bb      	ldr	r3, [r7, #8]
  __HAL_PWR_VOLTAGESCALING_CONFIG(PWR_REGULATOR_VOLTAGE_SCALE1);
 80014c0:	2300      	movs	r3, #0
 80014c2:	607b      	str	r3, [r7, #4]
 80014c4:	4b22      	ldr	r3, [pc, #136]	; (8001550 <SystemClock_Config+0xd0>)
 80014c6:	681b      	ldr	r3, [r3, #0]
 80014c8:	4a21      	ldr	r2, [pc, #132]	; (8001550 <SystemClock_Config+0xd0>)
 80014ca:	f443 4380 	orr.w	r3, r3, #16384	; 0x4000
 80014ce:	6013      	str	r3, [r2, #0]
 80014d0:	4b1f      	ldr	r3, [pc, #124]	; (8001550 <SystemClock_Config+0xd0>)
 80014d2:	681b      	ldr	r3, [r3, #0]
 80014d4:	f403 4380 	and.w	r3, r3, #16384	; 0x4000
 80014d8:	607b      	str	r3, [r7, #4]
 80014da:	687b      	ldr	r3, [r7, #4]

  /** Initializes the RCC Oscillators according to the specified parameters
  * in the RCC_OscInitTypeDef structure.
  */
  RCC_OscInitStruct.OscillatorType = RCC_OSCILLATORTYPE_HSE;
 80014dc:	2301      	movs	r3, #1
 80014de:	623b      	str	r3, [r7, #32]
  RCC_OscInitStruct.HSEState = RCC_HSE_ON;
 80014e0:	f44f 3380 	mov.w	r3, #65536	; 0x10000
 80014e4:	627b      	str	r3, [r7, #36]	; 0x24
  RCC_OscInitStruct.PLL.PLLState = RCC_PLL_ON;
 80014e6:	2302      	movs	r3, #2
 80014e8:	63bb      	str	r3, [r7, #56]	; 0x38
  RCC_OscInitStruct.PLL.PLLSource = RCC_PLLSOURCE_HSE;
 80014ea:	f44f 0380 	mov.w	r3, #4194304	; 0x400000
 80014ee:	63fb      	str	r3, [r7, #60]	; 0x3c
  RCC_OscInitStruct.PLL.PLLM = 4;
 80014f0:	2304      	movs	r3, #4
 80014f2:	643b      	str	r3, [r7, #64]	; 0x40
  RCC_OscInitStruct.PLL.PLLN = 100;
 80014f4:	2364      	movs	r3, #100	; 0x64
 80014f6:	647b      	str	r3, [r7, #68]	; 0x44
  RCC_OscInitStruct.PLL.PLLP = RCC_PLLP_DIV2;
 80014f8:	2302      	movs	r3, #2
 80014fa:	64bb      	str	r3, [r7, #72]	; 0x48
  RCC_OscInitStruct.PLL.PLLQ = 4;
 80014fc:	2304      	movs	r3, #4
 80014fe:	64fb      	str	r3, [r7, #76]	; 0x4c
  if (HAL_RCC_OscConfig(&RCC_OscInitStruct) != HAL_OK)
 8001500:	f107 0320 	add.w	r3, r7, #32
 8001504:	4618      	mov	r0, r3
 8001506:	f004 fdab 	bl	8006060 <HAL_RCC_OscConfig>
 800150a:	4603      	mov	r3, r0
 800150c:	2b00      	cmp	r3, #0
 800150e:	d001      	beq.n	8001514 <SystemClock_Config+0x94>
  {
    Error_Handler();
 8001510:	f000 f820 	bl	8001554 <Error_Handler>
  }

  /** Initializes the CPU, AHB and APB buses clocks
  */
  RCC_ClkInitStruct.ClockType = RCC_CLOCKTYPE_HCLK|RCC_CLOCKTYPE_SYSCLK
 8001514:	230f      	movs	r3, #15
 8001516:	60fb      	str	r3, [r7, #12]
                              |RCC_CLOCKTYPE_PCLK1|RCC_CLOCKTYPE_PCLK2;
  RCC_ClkInitStruct.SYSCLKSource = RCC_SYSCLKSOURCE_PLLCLK;
 8001518:	2302      	movs	r3, #2
 800151a:	613b      	str	r3, [r7, #16]
  RCC_ClkInitStruct.AHBCLKDivider = RCC_SYSCLK_DIV1;
 800151c:	2300      	movs	r3, #0
 800151e:	617b      	str	r3, [r7, #20]
  RCC_ClkInitStruct.APB1CLKDivider = RCC_HCLK_DIV4;
 8001520:	f44f 53a0 	mov.w	r3, #5120	; 0x1400
 8001524:	61bb      	str	r3, [r7, #24]
  RCC_ClkInitStruct.APB2CLKDivider = RCC_HCLK_DIV2;
 8001526:	f44f 5380 	mov.w	r3, #4096	; 0x1000
 800152a:	61fb      	str	r3, [r7, #28]

  if (HAL_RCC_ClockConfig(&RCC_ClkInitStruct, FLASH_LATENCY_3) != HAL_OK)
 800152c:	f107 030c 	add.w	r3, r7, #12
 8001530:	2103      	movs	r1, #3
 8001532:	4618      	mov	r0, r3
 8001534:	f005 f80c 	bl	8006550 <HAL_RCC_ClockConfig>
 8001538:	4603      	mov	r3, r0
 800153a:	2b00      	cmp	r3, #0
 800153c:	d001      	beq.n	8001542 <SystemClock_Config+0xc2>
  {
    Error_Handler();
 800153e:	f000 f809 	bl	8001554 <Error_Handler>
  }
}
 8001542:	bf00      	nop
 8001544:	3750      	adds	r7, #80	; 0x50
 8001546:	46bd      	mov	sp, r7
 8001548:	bd80      	pop	{r7, pc}
 800154a:	bf00      	nop
 800154c:	40023800 	.word	0x40023800
 8001550:	40007000 	.word	0x40007000

08001554 <Error_Handler>:
/**
  * @brief  This function is executed in case of error occurrence.
  * @retval None
  */
void Error_Handler(void)
{
 8001554:	b480      	push	{r7}
 8001556:	af00      	add	r7, sp, #0
  \details Disables IRQ interrupts by setting the I-bit in the CPSR.
           Can only be executed in Privileged modes.
 */
__STATIC_FORCEINLINE void __disable_irq(void)
{
  __ASM volatile ("cpsid i" : : : "memory");
 8001558:	b672      	cpsid	i
}
 800155a:	bf00      	nop
  /* USER CODE BEGIN Error_Handler_Debug */
  /* User can add his own implementation to report the HAL error return state */
  __disable_irq();
  while (1)
 800155c:	e7fe      	b.n	800155c <Error_Handler+0x8>
	...

08001560 <MX_SPI1_Init>:
DMA_HandleTypeDef hdma_spi1_tx;
DMA_HandleTypeDef hdma_spi1_rx;

/* SPI1 init function */
void MX_SPI1_Init(void)
{
 8001560:	b580      	push	{r7, lr}
 8001562:	af00      	add	r7, sp, #0
  /* USER CODE END SPI1_Init 0 */

  /* USER CODE BEGIN SPI1_Init 1 */

  /* USER CODE END SPI1_Init 1 */
  hspi1.Instance = SPI1;
 8001564:	4b17      	ldr	r3, [pc, #92]	; (80015c4 <MX_SPI1_Init+0x64>)
 8001566:	4a18      	ldr	r2, [pc, #96]	; (80015c8 <MX_SPI1_Init+0x68>)
 8001568:	601a      	str	r2, [r3, #0]
  hspi1.Init.Mode = SPI_MODE_MASTER;
 800156a:	4b16      	ldr	r3, [pc, #88]	; (80015c4 <MX_SPI1_Init+0x64>)
 800156c:	f44f 7282 	mov.w	r2, #260	; 0x104
 8001570:	605a      	str	r2, [r3, #4]
  hspi1.Init.Direction = SPI_DIRECTION_2LINES;
 8001572:	4b14      	ldr	r3, [pc, #80]	; (80015c4 <MX_SPI1_Init+0x64>)
 8001574:	2200      	movs	r2, #0
 8001576:	609a      	str	r2, [r3, #8]
  hspi1.Init.DataSize = SPI_DATASIZE_8BIT;
 8001578:	4b12      	ldr	r3, [pc, #72]	; (80015c4 <MX_SPI1_Init+0x64>)
 800157a:	2200      	movs	r2, #0
 800157c:	60da      	str	r2, [r3, #12]
  hspi1.Init.CLKPolarity = SPI_POLARITY_HIGH;
 800157e:	4b11      	ldr	r3, [pc, #68]	; (80015c4 <MX_SPI1_Init+0x64>)
 8001580:	2202      	movs	r2, #2
 8001582:	611a      	str	r2, [r3, #16]
  hspi1.Init.CLKPhase = SPI_PHASE_2EDGE;
 8001584:	4b0f      	ldr	r3, [pc, #60]	; (80015c4 <MX_SPI1_Init+0x64>)
 8001586:	2201      	movs	r2, #1
 8001588:	615a      	str	r2, [r3, #20]
  hspi1.Init.NSS = SPI_NSS_SOFT;
 800158a:	4b0e      	ldr	r3, [pc, #56]	; (80015c4 <MX_SPI1_Init+0x64>)
 800158c:	f44f 7200 	mov.w	r2, #512	; 0x200
 8001590:	619a      	str	r2, [r3, #24]
  hspi1.Init.BaudRatePrescaler = SPI_BAUDRATEPRESCALER_8;
 8001592:	4b0c      	ldr	r3, [pc, #48]	; (80015c4 <MX_SPI1_Init+0x64>)
 8001594:	2210      	movs	r2, #16
 8001596:	61da      	str	r2, [r3, #28]
  hspi1.Init.FirstBit = SPI_FIRSTBIT_MSB;
 8001598:	4b0a      	ldr	r3, [pc, #40]	; (80015c4 <MX_SPI1_Init+0x64>)
 800159a:	2200      	movs	r2, #0
 800159c:	621a      	str	r2, [r3, #32]
  hspi1.Init.TIMode = SPI_TIMODE_DISABLE;
 800159e:	4b09      	ldr	r3, [pc, #36]	; (80015c4 <MX_SPI1_Init+0x64>)
 80015a0:	2200      	movs	r2, #0
 80015a2:	625a      	str	r2, [r3, #36]	; 0x24
  hspi1.Init.CRCCalculation = SPI_CRCCALCULATION_DISABLE;
 80015a4:	4b07      	ldr	r3, [pc, #28]	; (80015c4 <MX_SPI1_Init+0x64>)
 80015a6:	2200      	movs	r2, #0
 80015a8:	629a      	str	r2, [r3, #40]	; 0x28
  hspi1.Init.CRCPolynomial = 10;
 80015aa:	4b06      	ldr	r3, [pc, #24]	; (80015c4 <MX_SPI1_Init+0x64>)
 80015ac:	220a      	movs	r2, #10
 80015ae:	62da      	str	r2, [r3, #44]	; 0x2c
  if (HAL_SPI_Init(&hspi1) != HAL_OK)
 80015b0:	4804      	ldr	r0, [pc, #16]	; (80015c4 <MX_SPI1_Init+0x64>)
 80015b2:	f005 f9b9 	bl	8006928 <HAL_SPI_Init>
 80015b6:	4603      	mov	r3, r0
 80015b8:	2b00      	cmp	r3, #0
 80015ba:	d001      	beq.n	80015c0 <MX_SPI1_Init+0x60>
  {
    Error_Handler();
 80015bc:	f7ff ffca 	bl	8001554 <Error_Handler>
  }
  /* USER CODE BEGIN SPI1_Init 2 */

  /* USER CODE END SPI1_Init 2 */

}
 80015c0:	bf00      	nop
 80015c2:	bd80      	pop	{r7, pc}
 80015c4:	20000450 	.word	0x20000450
 80015c8:	40013000 	.word	0x40013000

080015cc <HAL_SPI_MspInit>:

void HAL_SPI_MspInit(SPI_HandleTypeDef* spiHandle)
{
 80015cc:	b580      	push	{r7, lr}
 80015ce:	b08a      	sub	sp, #40	; 0x28
 80015d0:	af00      	add	r7, sp, #0
 80015d2:	6078      	str	r0, [r7, #4]

  GPIO_InitTypeDef GPIO_InitStruct = {0};
 80015d4:	f107 0314 	add.w	r3, r7, #20
 80015d8:	2200      	movs	r2, #0
 80015da:	601a      	str	r2, [r3, #0]
 80015dc:	605a      	str	r2, [r3, #4]
 80015de:	609a      	str	r2, [r3, #8]
 80015e0:	60da      	str	r2, [r3, #12]
 80015e2:	611a      	str	r2, [r3, #16]
  if(spiHandle->Instance==SPI1)
 80015e4:	687b      	ldr	r3, [r7, #4]
 80015e6:	681b      	ldr	r3, [r3, #0]
 80015e8:	4a47      	ldr	r2, [pc, #284]	; (8001708 <HAL_SPI_MspInit+0x13c>)
 80015ea:	4293      	cmp	r3, r2
 80015ec:	f040 8088 	bne.w	8001700 <HAL_SPI_MspInit+0x134>
  {
  /* USER CODE BEGIN SPI1_MspInit 0 */

  /* USER CODE END SPI1_MspInit 0 */
    /* SPI1 clock enable */
    __HAL_RCC_SPI1_CLK_ENABLE();
 80015f0:	2300      	movs	r3, #0
 80015f2:	613b      	str	r3, [r7, #16]
 80015f4:	4b45      	ldr	r3, [pc, #276]	; (800170c <HAL_SPI_MspInit+0x140>)
 80015f6:	6c5b      	ldr	r3, [r3, #68]	; 0x44
 80015f8:	4a44      	ldr	r2, [pc, #272]	; (800170c <HAL_SPI_MspInit+0x140>)
 80015fa:	f443 5380 	orr.w	r3, r3, #4096	; 0x1000
 80015fe:	6453      	str	r3, [r2, #68]	; 0x44
 8001600:	4b42      	ldr	r3, [pc, #264]	; (800170c <HAL_SPI_MspInit+0x140>)
 8001602:	6c5b      	ldr	r3, [r3, #68]	; 0x44
 8001604:	f403 5380 	and.w	r3, r3, #4096	; 0x1000
 8001608:	613b      	str	r3, [r7, #16]
 800160a:	693b      	ldr	r3, [r7, #16]

    __HAL_RCC_GPIOB_CLK_ENABLE();
 800160c:	2300      	movs	r3, #0
 800160e:	60fb      	str	r3, [r7, #12]
 8001610:	4b3e      	ldr	r3, [pc, #248]	; (800170c <HAL_SPI_MspInit+0x140>)
 8001612:	6b1b      	ldr	r3, [r3, #48]	; 0x30
 8001614:	4a3d      	ldr	r2, [pc, #244]	; (800170c <HAL_SPI_MspInit+0x140>)
 8001616:	f043 0302 	orr.w	r3, r3, #2
 800161a:	6313      	str	r3, [r2, #48]	; 0x30
 800161c:	4b3b      	ldr	r3, [pc, #236]	; (800170c <HAL_SPI_MspInit+0x140>)
 800161e:	6b1b      	ldr	r3, [r3, #48]	; 0x30
 8001620:	f003 0302 	and.w	r3, r3, #2
 8001624:	60fb      	str	r3, [r7, #12]
 8001626:	68fb      	ldr	r3, [r7, #12]
    /**SPI1 GPIO Configuration
    PB3     ------> SPI1_SCK
    PB4     ------> SPI1_MISO
    PB5     ------> SPI1_MOSI
    */
    GPIO_InitStruct.Pin = GPIO_PIN_3|GPIO_PIN_4|GPIO_PIN_5;
 8001628:	2338      	movs	r3, #56	; 0x38
 800162a:	617b      	str	r3, [r7, #20]
    GPIO_InitStruct.Mode = GPIO_MODE_AF_PP;
 800162c:	2302      	movs	r3, #2
 800162e:	61bb      	str	r3, [r7, #24]
    GPIO_InitStruct.Pull = GPIO_NOPULL;
 8001630:	2300      	movs	r3, #0
 8001632:	61fb      	str	r3, [r7, #28]
    GPIO_InitStruct.Speed = GPIO_SPEED_FREQ_VERY_HIGH;
 8001634:	2303      	movs	r3, #3
 8001636:	623b      	str	r3, [r7, #32]
    GPIO_InitStruct.Alternate = GPIO_AF5_SPI1;
 8001638:	2305      	movs	r3, #5
 800163a:	627b      	str	r3, [r7, #36]	; 0x24
    HAL_GPIO_Init(GPIOB, &GPIO_InitStruct);
 800163c:	f107 0314 	add.w	r3, r7, #20
 8001640:	4619      	mov	r1, r3
 8001642:	4833      	ldr	r0, [pc, #204]	; (8001710 <HAL_SPI_MspInit+0x144>)
 8001644:	f004 fb3e 	bl	8005cc4 <HAL_GPIO_Init>

    /* SPI1 DMA Init */
    /* SPI1_TX Init */
    hdma_spi1_tx.Instance = DMA2_Stream3;
 8001648:	4b32      	ldr	r3, [pc, #200]	; (8001714 <HAL_SPI_MspInit+0x148>)
 800164a:	4a33      	ldr	r2, [pc, #204]	; (8001718 <HAL_SPI_MspInit+0x14c>)
 800164c:	601a      	str	r2, [r3, #0]
    hdma_spi1_tx.Init.Channel = DMA_CHANNEL_3;
 800164e:	4b31      	ldr	r3, [pc, #196]	; (8001714 <HAL_SPI_MspInit+0x148>)
 8001650:	f04f 62c0 	mov.w	r2, #100663296	; 0x6000000
 8001654:	605a      	str	r2, [r3, #4]
    hdma_spi1_tx.Init.Direction = DMA_MEMORY_TO_PERIPH;
 8001656:	4b2f      	ldr	r3, [pc, #188]	; (8001714 <HAL_SPI_MspInit+0x148>)
 8001658:	2240      	movs	r2, #64	; 0x40
 800165a:	609a      	str	r2, [r3, #8]
    hdma_spi1_tx.Init.PeriphInc = DMA_PINC_DISABLE;
 800165c:	4b2d      	ldr	r3, [pc, #180]	; (8001714 <HAL_SPI_MspInit+0x148>)
 800165e:	2200      	movs	r2, #0
 8001660:	60da      	str	r2, [r3, #12]
    hdma_spi1_tx.Init.MemInc = DMA_MINC_ENABLE;
 8001662:	4b2c      	ldr	r3, [pc, #176]	; (8001714 <HAL_SPI_MspInit+0x148>)
 8001664:	f44f 6280 	mov.w	r2, #1024	; 0x400
 8001668:	611a      	str	r2, [r3, #16]
    hdma_spi1_tx.Init.PeriphDataAlignment = DMA_PDATAALIGN_BYTE;
 800166a:	4b2a      	ldr	r3, [pc, #168]	; (8001714 <HAL_SPI_MspInit+0x148>)
 800166c:	2200      	movs	r2, #0
 800166e:	615a      	str	r2, [r3, #20]
    hdma_spi1_tx.Init.MemDataAlignment = DMA_MDATAALIGN_BYTE;
 8001670:	4b28      	ldr	r3, [pc, #160]	; (8001714 <HAL_SPI_MspInit+0x148>)
 8001672:	2200      	movs	r2, #0
 8001674:	619a      	str	r2, [r3, #24]
    hdma_spi1_tx.Init.Mode = DMA_NORMAL;
 8001676:	4b27      	ldr	r3, [pc, #156]	; (8001714 <HAL_SPI_MspInit+0x148>)
 8001678:	2200      	movs	r2, #0
 800167a:	61da      	str	r2, [r3, #28]
    hdma_spi1_tx.Init.Priority = DMA_PRIORITY_LOW;
 800167c:	4b25      	ldr	r3, [pc, #148]	; (8001714 <HAL_SPI_MspInit+0x148>)
 800167e:	2200      	movs	r2, #0
 8001680:	621a      	str	r2, [r3, #32]
    hdma_spi1_tx.Init.FIFOMode = DMA_FIFOMODE_DISABLE;
 8001682:	4b24      	ldr	r3, [pc, #144]	; (8001714 <HAL_SPI_MspInit+0x148>)
 8001684:	2200      	movs	r2, #0
 8001686:	625a      	str	r2, [r3, #36]	; 0x24
    if (HAL_DMA_Init(&hdma_spi1_tx) != HAL_OK)
 8001688:	4822      	ldr	r0, [pc, #136]	; (8001714 <HAL_SPI_MspInit+0x148>)
 800168a:	f003 ffab 	bl	80055e4 <HAL_DMA_Init>
 800168e:	4603      	mov	r3, r0
 8001690:	2b00      	cmp	r3, #0
 8001692:	d001      	beq.n	8001698 <HAL_SPI_MspInit+0xcc>
    {
      Error_Handler();
 8001694:	f7ff ff5e 	bl	8001554 <Error_Handler>
    }

    __HAL_LINKDMA(spiHandle,hdmatx,hdma_spi1_tx);
 8001698:	687b      	ldr	r3, [r7, #4]
 800169a:	4a1e      	ldr	r2, [pc, #120]	; (8001714 <HAL_SPI_MspInit+0x148>)
 800169c:	649a      	str	r2, [r3, #72]	; 0x48
 800169e:	4a1d      	ldr	r2, [pc, #116]	; (8001714 <HAL_SPI_MspInit+0x148>)
 80016a0:	687b      	ldr	r3, [r7, #4]
 80016a2:	6393      	str	r3, [r2, #56]	; 0x38

    /* SPI1_RX Init */
    hdma_spi1_rx.Instance = DMA2_Stream0;
 80016a4:	4b1d      	ldr	r3, [pc, #116]	; (800171c <HAL_SPI_MspInit+0x150>)
 80016a6:	4a1e      	ldr	r2, [pc, #120]	; (8001720 <HAL_SPI_MspInit+0x154>)
 80016a8:	601a      	str	r2, [r3, #0]
    hdma_spi1_rx.Init.Channel = DMA_CHANNEL_3;
 80016aa:	4b1c      	ldr	r3, [pc, #112]	; (800171c <HAL_SPI_MspInit+0x150>)
 80016ac:	f04f 62c0 	mov.w	r2, #100663296	; 0x6000000
 80016b0:	605a      	str	r2, [r3, #4]
    hdma_spi1_rx.Init.Direction = DMA_PERIPH_TO_MEMORY;
 80016b2:	4b1a      	ldr	r3, [pc, #104]	; (800171c <HAL_SPI_MspInit+0x150>)
 80016b4:	2200      	movs	r2, #0
 80016b6:	609a      	str	r2, [r3, #8]
    hdma_spi1_rx.Init.PeriphInc = DMA_PINC_DISABLE;
 80016b8:	4b18      	ldr	r3, [pc, #96]	; (800171c <HAL_SPI_MspInit+0x150>)
 80016ba:	2200      	movs	r2, #0
 80016bc:	60da      	str	r2, [r3, #12]
    hdma_spi1_rx.Init.MemInc = DMA_MINC_ENABLE;
 80016be:	4b17      	ldr	r3, [pc, #92]	; (800171c <HAL_SPI_MspInit+0x150>)
 80016c0:	f44f 6280 	mov.w	r2, #1024	; 0x400
 80016c4:	611a      	str	r2, [r3, #16]
    hdma_spi1_rx.Init.PeriphDataAlignment = DMA_PDATAALIGN_BYTE;
 80016c6:	4b15      	ldr	r3, [pc, #84]	; (800171c <HAL_SPI_MspInit+0x150>)
 80016c8:	2200      	movs	r2, #0
 80016ca:	615a      	str	r2, [r3, #20]
    hdma_spi1_rx.Init.MemDataAlignment = DMA_MDATAALIGN_BYTE;
 80016cc:	4b13      	ldr	r3, [pc, #76]	; (800171c <HAL_SPI_MspInit+0x150>)
 80016ce:	2200      	movs	r2, #0
 80016d0:	619a      	str	r2, [r3, #24]
    hdma_spi1_rx.Init.Mode = DMA_NORMAL;
 80016d2:	4b12      	ldr	r3, [pc, #72]	; (800171c <HAL_SPI_MspInit+0x150>)
 80016d4:	2200      	movs	r2, #0
 80016d6:	61da      	str	r2, [r3, #28]
    hdma_spi1_rx.Init.Priority = DMA_PRIORITY_LOW;
 80016d8:	4b10      	ldr	r3, [pc, #64]	; (800171c <HAL_SPI_MspInit+0x150>)
 80016da:	2200      	movs	r2, #0
 80016dc:	621a      	str	r2, [r3, #32]
    hdma_spi1_rx.Init.FIFOMode = DMA_FIFOMODE_DISABLE;
 80016de:	4b0f      	ldr	r3, [pc, #60]	; (800171c <HAL_SPI_MspInit+0x150>)
 80016e0:	2200      	movs	r2, #0
 80016e2:	625a      	str	r2, [r3, #36]	; 0x24
    if (HAL_DMA_Init(&hdma_spi1_rx) != HAL_OK)
 80016e4:	480d      	ldr	r0, [pc, #52]	; (800171c <HAL_SPI_MspInit+0x150>)
 80016e6:	f003 ff7d 	bl	80055e4 <HAL_DMA_Init>
 80016ea:	4603      	mov	r3, r0
 80016ec:	2b00      	cmp	r3, #0
 80016ee:	d001      	beq.n	80016f4 <HAL_SPI_MspInit+0x128>
    {
      Error_Handler();
 80016f0:	f7ff ff30 	bl	8001554 <Error_Handler>
    }

    __HAL_LINKDMA(spiHandle,hdmarx,hdma_spi1_rx);
 80016f4:	687b      	ldr	r3, [r7, #4]
 80016f6:	4a09      	ldr	r2, [pc, #36]	; (800171c <HAL_SPI_MspInit+0x150>)
 80016f8:	64da      	str	r2, [r3, #76]	; 0x4c
 80016fa:	4a08      	ldr	r2, [pc, #32]	; (800171c <HAL_SPI_MspInit+0x150>)
 80016fc:	687b      	ldr	r3, [r7, #4]
 80016fe:	6393      	str	r3, [r2, #56]	; 0x38

  /* USER CODE BEGIN SPI1_MspInit 1 */

  /* USER CODE END SPI1_MspInit 1 */
  }
}
 8001700:	bf00      	nop
 8001702:	3728      	adds	r7, #40	; 0x28
 8001704:	46bd      	mov	sp, r7
 8001706:	bd80      	pop	{r7, pc}
 8001708:	40013000 	.word	0x40013000
 800170c:	40023800 	.word	0x40023800
 8001710:	40020400 	.word	0x40020400
 8001714:	200004a8 	.word	0x200004a8
 8001718:	40026458 	.word	0x40026458
 800171c:	20000508 	.word	0x20000508
 8001720:	40026410 	.word	0x40026410

08001724 <Flash_TestReadStatus>:
  /* USER CODE END SPI1_MspDeInit 1 */
  }
}

/* USER CODE BEGIN 1 */
void Flash_TestReadStatus() {
 8001724:	b580      	push	{r7, lr}
 8001726:	b09a      	sub	sp, #104	; 0x68
 8001728:	af02      	add	r7, sp, #8
	uint16_t devID = Flash_ReadID();
 800172a:	f003 fcad 	bl	8005088 <Flash_ReadID>
 800172e:	4603      	mov	r3, r0
 8001730:	f8a7 305e 	strh.w	r3, [r7, #94]	; 0x5e

	uint8_t tempStrDevID[30];
	sprintf(tempStrDevID, "Device ID = 0x%04X", devID);
 8001734:	f8b7 205e 	ldrh.w	r2, [r7, #94]	; 0x5e
 8001738:	f107 0340 	add.w	r3, r7, #64	; 0x40
 800173c:	4953      	ldr	r1, [pc, #332]	; (800188c <Flash_TestReadStatus+0x168>)
 800173e:	4618      	mov	r0, r3
 8001740:	f007 f842 	bl	80087c8 <siprintf>
	lcd_show_str(10, 2*30 + 10, 24, tempStrDevID, RED);
 8001744:	f107 0340 	add.w	r3, r7, #64	; 0x40
 8001748:	f44f 4278 	mov.w	r2, #63488	; 0xf800
 800174c:	9200      	str	r2, [sp, #0]
 800174e:	2218      	movs	r2, #24
 8001750:	2146      	movs	r1, #70	; 0x46
 8001752:	200a      	movs	r0, #10
 8001754:	f001 f9a8 	bl	8002aa8 <lcd_show_str>

	switch (devID) {
 8001758:	f8b7 305e 	ldrh.w	r3, [r7, #94]	; 0x5e
 800175c:	f64e 7217 	movw	r2, #61207	; 0xef17
 8001760:	4293      	cmp	r3, r2
 8001762:	d024      	beq.n	80017ae <Flash_TestReadStatus+0x8a>
 8001764:	f64e 7217 	movw	r2, #61207	; 0xef17
 8001768:	4293      	cmp	r3, r2
 800176a:	dc5c      	bgt.n	8001826 <Flash_TestReadStatus+0x102>
 800176c:	f64c 0217 	movw	r2, #51223	; 0xc817
 8001770:	4293      	cmp	r3, r2
 8001772:	d026      	beq.n	80017c2 <Flash_TestReadStatus+0x9e>
 8001774:	f64c 0217 	movw	r2, #51223	; 0xc817
 8001778:	4293      	cmp	r3, r2
 800177a:	dc54      	bgt.n	8001826 <Flash_TestReadStatus+0x102>
 800177c:	f24a 1217 	movw	r2, #41239	; 0xa117
 8001780:	4293      	cmp	r3, r2
 8001782:	d046      	beq.n	8001812 <Flash_TestReadStatus+0xee>
 8001784:	f24a 1217 	movw	r2, #41239	; 0xa117
 8001788:	4293      	cmp	r3, r2
 800178a:	dc4c      	bgt.n	8001826 <Flash_TestReadStatus+0x102>
 800178c:	f242 0218 	movw	r2, #8216	; 0x2018
 8001790:	4293      	cmp	r3, r2
 8001792:	d02a      	beq.n	80017ea <Flash_TestReadStatus+0xc6>
 8001794:	f242 0218 	movw	r2, #8216	; 0x2018
 8001798:	4293      	cmp	r3, r2
 800179a:	dc44      	bgt.n	8001826 <Flash_TestReadStatus+0x102>
 800179c:	f641 4217 	movw	r2, #7191	; 0x1c17
 80017a0:	4293      	cmp	r3, r2
 80017a2:	d018      	beq.n	80017d6 <Flash_TestReadStatus+0xb2>
 80017a4:	f242 0217 	movw	r2, #8215	; 0x2017
 80017a8:	4293      	cmp	r3, r2
 80017aa:	d028      	beq.n	80017fe <Flash_TestReadStatus+0xda>
 80017ac:	e03b      	b.n	8001826 <Flash_TestReadStatus+0x102>
	case 0xEF17:
		lcd_show_str(10, 3*30 + 10, 24, "The chip is: W25Q128", RED);
 80017ae:	f44f 4378 	mov.w	r3, #63488	; 0xf800
 80017b2:	9300      	str	r3, [sp, #0]
 80017b4:	4b36      	ldr	r3, [pc, #216]	; (8001890 <Flash_TestReadStatus+0x16c>)
 80017b6:	2218      	movs	r2, #24
 80017b8:	2164      	movs	r1, #100	; 0x64
 80017ba:	200a      	movs	r0, #10
 80017bc:	f001 f974 	bl	8002aa8 <lcd_show_str>
		break;
 80017c0:	e03a      	b.n	8001838 <Flash_TestReadStatus+0x114>
	case 0xC817:
		lcd_show_str(10, 3*30 + 10, 24, "The chip is: GD25Q128", RED);
 80017c2:	f44f 4378 	mov.w	r3, #63488	; 0xf800
 80017c6:	9300      	str	r3, [sp, #0]
 80017c8:	4b32      	ldr	r3, [pc, #200]	; (8001894 <Flash_TestReadStatus+0x170>)
 80017ca:	2218      	movs	r2, #24
 80017cc:	2164      	movs	r1, #100	; 0x64
 80017ce:	200a      	movs	r0, #10
 80017d0:	f001 f96a 	bl	8002aa8 <lcd_show_str>
		break;
 80017d4:	e030      	b.n	8001838 <Flash_TestReadStatus+0x114>
	case 0x1C17:
		lcd_show_str(10, 3*30 + 10, 24, "The chip is: EN25Q128", RED);
 80017d6:	f44f 4378 	mov.w	r3, #63488	; 0xf800
 80017da:	9300      	str	r3, [sp, #0]
 80017dc:	4b2e      	ldr	r3, [pc, #184]	; (8001898 <Flash_TestReadStatus+0x174>)
 80017de:	2218      	movs	r2, #24
 80017e0:	2164      	movs	r1, #100	; 0x64
 80017e2:	200a      	movs	r0, #10
 80017e4:	f001 f960 	bl	8002aa8 <lcd_show_str>
		break;
 80017e8:	e026      	b.n	8001838 <Flash_TestReadStatus+0x114>
	case 0x2018:
		lcd_show_str(10, 3*30 + 10, 24, "The chip is: N25Q128", RED);
 80017ea:	f44f 4378 	mov.w	r3, #63488	; 0xf800
 80017ee:	9300      	str	r3, [sp, #0]
 80017f0:	4b2a      	ldr	r3, [pc, #168]	; (800189c <Flash_TestReadStatus+0x178>)
 80017f2:	2218      	movs	r2, #24
 80017f4:	2164      	movs	r1, #100	; 0x64
 80017f6:	200a      	movs	r0, #10
 80017f8:	f001 f956 	bl	8002aa8 <lcd_show_str>
		break;
 80017fc:	e01c      	b.n	8001838 <Flash_TestReadStatus+0x114>
	case 0x2017:
		lcd_show_str(10, 3*30 + 10, 24, "The chip is: XMN25QH128", RED);
 80017fe:	f44f 4378 	mov.w	r3, #63488	; 0xf800
 8001802:	9300      	str	r3, [sp, #0]
 8001804:	4b26      	ldr	r3, [pc, #152]	; (80018a0 <Flash_TestReadStatus+0x17c>)
 8001806:	2218      	movs	r2, #24
 8001808:	2164      	movs	r1, #100	; 0x64
 800180a:	200a      	movs	r0, #10
 800180c:	f001 f94c 	bl	8002aa8 <lcd_show_str>
		break;
 8001810:	e012      	b.n	8001838 <Flash_TestReadStatus+0x114>
	case 0xA117:
		lcd_show_str(10, 3*30 + 10, 24, "The chip is: FM25Q128", RED);
 8001812:	f44f 4378 	mov.w	r3, #63488	; 0xf800
 8001816:	9300      	str	r3, [sp, #0]
 8001818:	4b22      	ldr	r3, [pc, #136]	; (80018a4 <Flash_TestReadStatus+0x180>)
 800181a:	2218      	movs	r2, #24
 800181c:	2164      	movs	r1, #100	; 0x64
 800181e:	200a      	movs	r0, #10
 8001820:	f001 f942 	bl	8002aa8 <lcd_show_str>
		break;
 8001824:	e008      	b.n	8001838 <Flash_TestReadStatus+0x114>
//		break;
//	case 0x:
//		lcd_show_str(10, 3*30 + 10, 24, "The chip is: BY25Q128", RED);
//		break;
	default:
		lcd_show_str(10, 3*30 + 10, 24, "Unknown type", RED);
 8001826:	f44f 4378 	mov.w	r3, #63488	; 0xf800
 800182a:	9300      	str	r3, [sp, #0]
 800182c:	4b1e      	ldr	r3, [pc, #120]	; (80018a8 <Flash_TestReadStatus+0x184>)
 800182e:	2218      	movs	r2, #24
 8001830:	2164      	movs	r1, #100	; 0x64
 8001832:	200a      	movs	r0, #10
 8001834:	f001 f938 	bl	8002aa8 <lcd_show_str>
	}

	uint8_t tempStrSR1[30];
	sprintf(tempStrSR1, "Status Reg1 = 0x%X", Flash_ReadSR1());
 8001838:	f003 fb78 	bl	8004f2c <Flash_ReadSR1>
 800183c:	4603      	mov	r3, r0
 800183e:	461a      	mov	r2, r3
 8001840:	f107 0320 	add.w	r3, r7, #32
 8001844:	4919      	ldr	r1, [pc, #100]	; (80018ac <Flash_TestReadStatus+0x188>)
 8001846:	4618      	mov	r0, r3
 8001848:	f006 ffbe 	bl	80087c8 <siprintf>
	lcd_show_str(10, 4*30 + 10, 24, tempStrSR1, RED);
 800184c:	f107 0320 	add.w	r3, r7, #32
 8001850:	f44f 4278 	mov.w	r2, #63488	; 0xf800
 8001854:	9200      	str	r2, [sp, #0]
 8001856:	2218      	movs	r2, #24
 8001858:	2182      	movs	r1, #130	; 0x82
 800185a:	200a      	movs	r0, #10
 800185c:	f001 f924 	bl	8002aa8 <lcd_show_str>

	uint8_t tempStrSR2[30];
	sprintf(tempStrSR2, "Status Reg2 = 0x%X", Flash_ReadSR2());
 8001860:	f003 fb84 	bl	8004f6c <Flash_ReadSR2>
 8001864:	4603      	mov	r3, r0
 8001866:	461a      	mov	r2, r3
 8001868:	463b      	mov	r3, r7
 800186a:	4911      	ldr	r1, [pc, #68]	; (80018b0 <Flash_TestReadStatus+0x18c>)
 800186c:	4618      	mov	r0, r3
 800186e:	f006 ffab 	bl	80087c8 <siprintf>
	lcd_show_str(10, 5*30 + 10, 24, tempStrSR2, RED);
 8001872:	463b      	mov	r3, r7
 8001874:	f44f 4278 	mov.w	r2, #63488	; 0xf800
 8001878:	9200      	str	r2, [sp, #0]
 800187a:	2218      	movs	r2, #24
 800187c:	21a0      	movs	r1, #160	; 0xa0
 800187e:	200a      	movs	r0, #10
 8001880:	f001 f912 	bl	8002aa8 <lcd_show_str>
}
 8001884:	bf00      	nop
 8001886:	3760      	adds	r7, #96	; 0x60
 8001888:	46bd      	mov	sp, r7
 800188a:	bd80      	pop	{r7, pc}
 800188c:	0800ae14 	.word	0x0800ae14
 8001890:	0800ae28 	.word	0x0800ae28
 8001894:	0800ae40 	.word	0x0800ae40
 8001898:	0800ae58 	.word	0x0800ae58
 800189c:	0800ae70 	.word	0x0800ae70
 80018a0:	0800ae88 	.word	0x0800ae88
 80018a4:	0800aea0 	.word	0x0800aea0
 80018a8:	0800aeb8 	.word	0x0800aeb8
 80018ac:	0800aec8 	.word	0x0800aec8
 80018b0:	0800aedc 	.word	0x0800aedc

080018b4 <Flash_TestWriteDMA>:
	sprintf(tempStrRandData, "Page1[12]=%d,[136]=%d,[210]=%d",
			randData12, randData136, randData210);
	lcd_show_str(10, 15*30 + 10, 24, tempStrRandData, RED);
}

void Flash_TestWriteDMA() {
 80018b4:	b580      	push	{r7, lr}
 80018b6:	b086      	sub	sp, #24
 80018b8:	af02      	add	r7, sp, #8
	uint8_t BlockNo = 0;
 80018ba:	2300      	movs	r3, #0
 80018bc:	737b      	strb	r3, [r7, #13]
	uint8_t SubSectorNo = 0;
 80018be:	2300      	movs	r3, #0
 80018c0:	733b      	strb	r3, [r7, #12]
	uint8_t SubPageNo = 3;
 80018c2:	2303      	movs	r3, #3
 80018c4:	72fb      	strb	r3, [r7, #11]
	uint32_t memAddress = Flash_Addr_byBlockSectorPage(BlockNo, SubSectorNo, SubPageNo);
 80018c6:	7afa      	ldrb	r2, [r7, #11]
 80018c8:	7b39      	ldrb	r1, [r7, #12]
 80018ca:	7b7b      	ldrb	r3, [r7, #13]
 80018cc:	4618      	mov	r0, r3
 80018ce:	f003 fb8b 	bl	8004fe8 <Flash_Addr_byBlockSectorPage>
 80018d2:	6078      	str	r0, [r7, #4]

	for (uint16_t i = 0; i < FLASH_PAGE_SIZE; ++i) {
 80018d4:	2300      	movs	r3, #0
 80018d6:	81fb      	strh	r3, [r7, #14]
 80018d8:	e007      	b.n	80018ea <Flash_TestWriteDMA+0x36>
		bufPageRead[i] = i;
 80018da:	89fb      	ldrh	r3, [r7, #14]
 80018dc:	89fa      	ldrh	r2, [r7, #14]
 80018de:	b2d1      	uxtb	r1, r2
 80018e0:	4a0d      	ldr	r2, [pc, #52]	; (8001918 <Flash_TestWriteDMA+0x64>)
 80018e2:	54d1      	strb	r1, [r2, r3]
	for (uint16_t i = 0; i < FLASH_PAGE_SIZE; ++i) {
 80018e4:	89fb      	ldrh	r3, [r7, #14]
 80018e6:	3301      	adds	r3, #1
 80018e8:	81fb      	strh	r3, [r7, #14]
 80018ea:	89fb      	ldrh	r3, [r7, #14]
 80018ec:	2bff      	cmp	r3, #255	; 0xff
 80018ee:	d9f4      	bls.n	80018da <Flash_TestWriteDMA+0x26>
	}

	Flash_WriteInPage_DMA(memAddress, bufPageRead, FLASH_PAGE_SIZE);
 80018f0:	f44f 7280 	mov.w	r2, #256	; 0x100
 80018f4:	4908      	ldr	r1, [pc, #32]	; (8001918 <Flash_TestWriteDMA+0x64>)
 80018f6:	6878      	ldr	r0, [r7, #4]
 80018f8:	f003 fc44 	bl	8005184 <Flash_WriteInPage_DMA>
	lcd_show_str(10, 11*30 + 10, 24, "Writing Page3 in DMA mode.", RED);
 80018fc:	f44f 4378 	mov.w	r3, #63488	; 0xf800
 8001900:	9300      	str	r3, [sp, #0]
 8001902:	4b06      	ldr	r3, [pc, #24]	; (800191c <Flash_TestWriteDMA+0x68>)
 8001904:	2218      	movs	r2, #24
 8001906:	f44f 71aa 	mov.w	r1, #340	; 0x154
 800190a:	200a      	movs	r0, #10
 800190c:	f001 f8cc 	bl	8002aa8 <lcd_show_str>
}
 8001910:	bf00      	nop
 8001912:	3710      	adds	r7, #16
 8001914:	46bd      	mov	sp, r7
 8001916:	bd80      	pop	{r7, pc}
 8001918:	20000250 	.word	0x20000250
 800191c:	0800afb8 	.word	0x0800afb8

08001920 <HAL_SPI_TxCpltCallback>:

void HAL_SPI_TxCpltCallback(SPI_HandleTypeDef *hspi) {
 8001920:	b580      	push	{r7, lr}
 8001922:	b084      	sub	sp, #16
 8001924:	af02      	add	r7, sp, #8
 8001926:	6078      	str	r0, [r7, #4]
	__Deselect_Flash();	//CS=1
 8001928:	2201      	movs	r2, #1
 800192a:	f44f 4180 	mov.w	r1, #16384	; 0x4000
 800192e:	4809      	ldr	r0, [pc, #36]	; (8001954 <HAL_SPI_TxCpltCallback+0x34>)
 8001930:	f004 fb7c 	bl	800602c <HAL_GPIO_WritePin>
	Flash_Wait_Busy();
 8001934:	f003 fc8e 	bl	8005254 <Flash_Wait_Busy>
	lcd_show_str(10, 12*30 + 10, 24, "DMA Writing complete.", RED);
 8001938:	f44f 4378 	mov.w	r3, #63488	; 0xf800
 800193c:	9300      	str	r3, [sp, #0]
 800193e:	4b06      	ldr	r3, [pc, #24]	; (8001958 <HAL_SPI_TxCpltCallback+0x38>)
 8001940:	2218      	movs	r2, #24
 8001942:	f44f 71b9 	mov.w	r1, #370	; 0x172
 8001946:	200a      	movs	r0, #10
 8001948:	f001 f8ae 	bl	8002aa8 <lcd_show_str>
}
 800194c:	bf00      	nop
 800194e:	3708      	adds	r7, #8
 8001950:	46bd      	mov	sp, r7
 8001952:	bd80      	pop	{r7, pc}
 8001954:	40020400 	.word	0x40020400
 8001958:	0800afd4 	.word	0x0800afd4

0800195c <Flash_TestReadDMA>:

void Flash_TestReadDMA() {
 800195c:	b580      	push	{r7, lr}
 800195e:	b082      	sub	sp, #8
 8001960:	af00      	add	r7, sp, #0
	uint8_t BlockNo = 0;
 8001962:	2300      	movs	r3, #0
 8001964:	71fb      	strb	r3, [r7, #7]
	uint8_t SubSectorNo = 0;
 8001966:	2300      	movs	r3, #0
 8001968:	71bb      	strb	r3, [r7, #6]
	uint8_t SubPageNo = 3;
 800196a:	2303      	movs	r3, #3
 800196c:	717b      	strb	r3, [r7, #5]
	uint32_t memAddress = Flash_Addr_byBlockSectorPage(BlockNo, SubSectorNo, SubPageNo);
 800196e:	797a      	ldrb	r2, [r7, #5]
 8001970:	79b9      	ldrb	r1, [r7, #6]
 8001972:	79fb      	ldrb	r3, [r7, #7]
 8001974:	4618      	mov	r0, r3
 8001976:	f003 fb37 	bl	8004fe8 <Flash_Addr_byBlockSectorPage>
 800197a:	6038      	str	r0, [r7, #0]
	Flash_ReadBytes_DMA(memAddress, bufPageWrite, FLASH_PAGE_SIZE);
 800197c:	f44f 7280 	mov.w	r2, #256	; 0x100
 8001980:	4903      	ldr	r1, [pc, #12]	; (8001990 <Flash_TestReadDMA+0x34>)
 8001982:	6838      	ldr	r0, [r7, #0]
 8001984:	f003 fbb2 	bl	80050ec <Flash_ReadBytes_DMA>
}
 8001988:	bf00      	nop
 800198a:	3708      	adds	r7, #8
 800198c:	46bd      	mov	sp, r7
 800198e:	bd80      	pop	{r7, pc}
 8001990:	20000350 	.word	0x20000350

08001994 <HAL_SPI_RxCpltCallback>:

void HAL_SPI_RxCpltCallback(SPI_HandleTypeDef *hspi) {
 8001994:	b580      	push	{r7, lr}
 8001996:	b092      	sub	sp, #72	; 0x48
 8001998:	af02      	add	r7, sp, #8
 800199a:	6078      	str	r0, [r7, #4]
	__Deselect_Flash();	//CS=1
 800199c:	2201      	movs	r2, #1
 800199e:	f44f 4180 	mov.w	r1, #16384	; 0x4000
 80019a2:	4814      	ldr	r0, [pc, #80]	; (80019f4 <HAL_SPI_RxCpltCallback+0x60>)
 80019a4:	f004 fb42 	bl	800602c <HAL_GPIO_WritePin>
	Flash_Wait_Busy();
 80019a8:	f003 fc54 	bl	8005254 <Flash_Wait_Busy>
	lcd_show_str(10, 11*30 + 10, 24, "DMA reading complete.", RED);
 80019ac:	f44f 4378 	mov.w	r3, #63488	; 0xf800
 80019b0:	9300      	str	r3, [sp, #0]
 80019b2:	4b11      	ldr	r3, [pc, #68]	; (80019f8 <HAL_SPI_RxCpltCallback+0x64>)
 80019b4:	2218      	movs	r2, #24
 80019b6:	f44f 71aa 	mov.w	r1, #340	; 0x154
 80019ba:	200a      	movs	r0, #10
 80019bc:	f001 f874 	bl	8002aa8 <lcd_show_str>

	uint8_t tempStr[50];
	sprintf(tempStr, "Page3[26] = %d, [205] = %d",
			bufPageWrite[26], bufPageWrite[205]);
 80019c0:	4b0e      	ldr	r3, [pc, #56]	; (80019fc <HAL_SPI_RxCpltCallback+0x68>)
 80019c2:	7e9b      	ldrb	r3, [r3, #26]
	sprintf(tempStr, "Page3[26] = %d, [205] = %d",
 80019c4:	461a      	mov	r2, r3
			bufPageWrite[26], bufPageWrite[205]);
 80019c6:	4b0d      	ldr	r3, [pc, #52]	; (80019fc <HAL_SPI_RxCpltCallback+0x68>)
 80019c8:	f893 30cd 	ldrb.w	r3, [r3, #205]	; 0xcd
	sprintf(tempStr, "Page3[26] = %d, [205] = %d",
 80019cc:	f107 000c 	add.w	r0, r7, #12
 80019d0:	490b      	ldr	r1, [pc, #44]	; (8001a00 <HAL_SPI_RxCpltCallback+0x6c>)
 80019d2:	f006 fef9 	bl	80087c8 <siprintf>
	lcd_show_str(10, 12*30 + 10, 24, tempStr, RED);
 80019d6:	f107 030c 	add.w	r3, r7, #12
 80019da:	f44f 4278 	mov.w	r2, #63488	; 0xf800
 80019de:	9200      	str	r2, [sp, #0]
 80019e0:	2218      	movs	r2, #24
 80019e2:	f44f 71b9 	mov.w	r1, #370	; 0x172
 80019e6:	200a      	movs	r0, #10
 80019e8:	f001 f85e 	bl	8002aa8 <lcd_show_str>

}
 80019ec:	bf00      	nop
 80019ee:	3740      	adds	r7, #64	; 0x40
 80019f0:	46bd      	mov	sp, r7
 80019f2:	bd80      	pop	{r7, pc}
 80019f4:	40020400 	.word	0x40020400
 80019f8:	0800afec 	.word	0x0800afec
 80019fc:	20000350 	.word	0x20000350
 8001a00:	0800b004 	.word	0x0800b004

08001a04 <HAL_MspInit>:
/* USER CODE END 0 */
/**
  * Initializes the Global MSP.
  */
void HAL_MspInit(void)
{
 8001a04:	b480      	push	{r7}
 8001a06:	b083      	sub	sp, #12
 8001a08:	af00      	add	r7, sp, #0
  /* USER CODE BEGIN MspInit 0 */

  /* USER CODE END MspInit 0 */

  __HAL_RCC_SYSCFG_CLK_ENABLE();
 8001a0a:	2300      	movs	r3, #0
 8001a0c:	607b      	str	r3, [r7, #4]
 8001a0e:	4b10      	ldr	r3, [pc, #64]	; (8001a50 <HAL_MspInit+0x4c>)
 8001a10:	6c5b      	ldr	r3, [r3, #68]	; 0x44
 8001a12:	4a0f      	ldr	r2, [pc, #60]	; (8001a50 <HAL_MspInit+0x4c>)
 8001a14:	f443 4380 	orr.w	r3, r3, #16384	; 0x4000
 8001a18:	6453      	str	r3, [r2, #68]	; 0x44
 8001a1a:	4b0d      	ldr	r3, [pc, #52]	; (8001a50 <HAL_MspInit+0x4c>)
 8001a1c:	6c5b      	ldr	r3, [r3, #68]	; 0x44
 8001a1e:	f403 4380 	and.w	r3, r3, #16384	; 0x4000
 8001a22:	607b      	str	r3, [r7, #4]
 8001a24:	687b      	ldr	r3, [r7, #4]
  __HAL_RCC_PWR_CLK_ENABLE();
 8001a26:	2300      	movs	r3, #0
 8001a28:	603b      	str	r3, [r7, #0]
 8001a2a:	4b09      	ldr	r3, [pc, #36]	; (8001a50 <HAL_MspInit+0x4c>)
 8001a2c:	6c1b      	ldr	r3, [r3, #64]	; 0x40
 8001a2e:	4a08      	ldr	r2, [pc, #32]	; (8001a50 <HAL_MspInit+0x4c>)
 8001a30:	f043 5380 	orr.w	r3, r3, #268435456	; 0x10000000
 8001a34:	6413      	str	r3, [r2, #64]	; 0x40
 8001a36:	4b06      	ldr	r3, [pc, #24]	; (8001a50 <HAL_MspInit+0x4c>)
 8001a38:	6c1b      	ldr	r3, [r3, #64]	; 0x40
 8001a3a:	f003 5380 	and.w	r3, r3, #268435456	; 0x10000000
 8001a3e:	603b      	str	r3, [r7, #0]
 8001a40:	683b      	ldr	r3, [r7, #0]
  /* System interrupt init*/

  /* USER CODE BEGIN MspInit 1 */

  /* USER CODE END MspInit 1 */
}
 8001a42:	bf00      	nop
 8001a44:	370c      	adds	r7, #12
 8001a46:	46bd      	mov	sp, r7
 8001a48:	f85d 7b04 	ldr.w	r7, [sp], #4
 8001a4c:	4770      	bx	lr
 8001a4e:	bf00      	nop
 8001a50:	40023800 	.word	0x40023800

08001a54 <NMI_Handler>:
/******************************************************************************/
/**
  * @brief This function handles Non maskable interrupt.
  */
void NMI_Handler(void)
{
 8001a54:	b480      	push	{r7}
 8001a56:	af00      	add	r7, sp, #0
  /* USER CODE BEGIN NonMaskableInt_IRQn 0 */

  /* USER CODE END NonMaskableInt_IRQn 0 */
  /* USER CODE BEGIN NonMaskableInt_IRQn 1 */
  while (1)
 8001a58:	e7fe      	b.n	8001a58 <NMI_Handler+0x4>

08001a5a <HardFault_Handler>:

/**
  * @brief This function handles Hard fault interrupt.
  */
void HardFault_Handler(void)
{
 8001a5a:	b480      	push	{r7}
 8001a5c:	af00      	add	r7, sp, #0
  /* USER CODE BEGIN HardFault_IRQn 0 */

  /* USER CODE END HardFault_IRQn 0 */
  while (1)
 8001a5e:	e7fe      	b.n	8001a5e <HardFault_Handler+0x4>

08001a60 <MemManage_Handler>:

/**
  * @brief This function handles Memory management fault.
  */
void MemManage_Handler(void)
{
 8001a60:	b480      	push	{r7}
 8001a62:	af00      	add	r7, sp, #0
  /* USER CODE BEGIN MemoryManagement_IRQn 0 */

  /* USER CODE END MemoryManagement_IRQn 0 */
  while (1)
 8001a64:	e7fe      	b.n	8001a64 <MemManage_Handler+0x4>

08001a66 <BusFault_Handler>:

/**
  * @brief This function handles Pre-fetch fault, memory access fault.
  */
void BusFault_Handler(void)
{
 8001a66:	b480      	push	{r7}
 8001a68:	af00      	add	r7, sp, #0
  /* USER CODE BEGIN BusFault_IRQn 0 */

  /* USER CODE END BusFault_IRQn 0 */
  while (1)
 8001a6a:	e7fe      	b.n	8001a6a <BusFault_Handler+0x4>

08001a6c <UsageFault_Handler>:

/**
  * @brief This function handles Undefined instruction or illegal state.
  */
void UsageFault_Handler(void)
{
 8001a6c:	b480      	push	{r7}
 8001a6e:	af00      	add	r7, sp, #0
  /* USER CODE BEGIN UsageFault_IRQn 0 */

  /* USER CODE END UsageFault_IRQn 0 */
  while (1)
 8001a70:	e7fe      	b.n	8001a70 <UsageFault_Handler+0x4>

08001a72 <SVC_Handler>:

/**
  * @brief This function handles System service call via SWI instruction.
  */
void SVC_Handler(void)
{
 8001a72:	b480      	push	{r7}
 8001a74:	af00      	add	r7, sp, #0

  /* USER CODE END SVCall_IRQn 0 */
  /* USER CODE BEGIN SVCall_IRQn 1 */

  /* USER CODE END SVCall_IRQn 1 */
}
 8001a76:	bf00      	nop
 8001a78:	46bd      	mov	sp, r7
 8001a7a:	f85d 7b04 	ldr.w	r7, [sp], #4
 8001a7e:	4770      	bx	lr

08001a80 <DebugMon_Handler>:

/**
  * @brief This function handles Debug monitor.
  */
void DebugMon_Handler(void)
{
 8001a80:	b480      	push	{r7}
 8001a82:	af00      	add	r7, sp, #0

  /* USER CODE END DebugMonitor_IRQn 0 */
  /* USER CODE BEGIN DebugMonitor_IRQn 1 */

  /* USER CODE END DebugMonitor_IRQn 1 */
}
 8001a84:	bf00      	nop
 8001a86:	46bd      	mov	sp, r7
 8001a88:	f85d 7b04 	ldr.w	r7, [sp], #4
 8001a8c:	4770      	bx	lr

08001a8e <PendSV_Handler>:

/**
  * @brief This function handles Pendable request for system service.
  */
void PendSV_Handler(void)
{
 8001a8e:	b480      	push	{r7}
 8001a90:	af00      	add	r7, sp, #0

  /* USER CODE END PendSV_IRQn 0 */
  /* USER CODE BEGIN PendSV_IRQn 1 */

  /* USER CODE END PendSV_IRQn 1 */
}
 8001a92:	bf00      	nop
 8001a94:	46bd      	mov	sp, r7
 8001a96:	f85d 7b04 	ldr.w	r7, [sp], #4
 8001a9a:	4770      	bx	lr

08001a9c <SysTick_Handler>:

/**
  * @brief This function handles System tick timer.
  */
void SysTick_Handler(void)
{
 8001a9c:	b580      	push	{r7, lr}
 8001a9e:	af00      	add	r7, sp, #0
  /* USER CODE BEGIN SysTick_IRQn 0 */

  /* USER CODE END SysTick_IRQn 0 */
  HAL_IncTick();
 8001aa0:	f003 fc4a 	bl	8005338 <HAL_IncTick>
  /* USER CODE BEGIN SysTick_IRQn 1 */

  /* USER CODE END SysTick_IRQn 1 */
}
 8001aa4:	bf00      	nop
 8001aa6:	bd80      	pop	{r7, pc}

08001aa8 <DMA2_Stream0_IRQHandler>:

/**
  * @brief This function handles DMA2 stream0 global interrupt.
  */
void DMA2_Stream0_IRQHandler(void)
{
 8001aa8:	b580      	push	{r7, lr}
 8001aaa:	af00      	add	r7, sp, #0
  /* USER CODE BEGIN DMA2_Stream0_IRQn 0 */

  /* USER CODE END DMA2_Stream0_IRQn 0 */
  HAL_DMA_IRQHandler(&hdma_spi1_rx);
 8001aac:	4802      	ldr	r0, [pc, #8]	; (8001ab8 <DMA2_Stream0_IRQHandler+0x10>)
 8001aae:	f003 fe9f 	bl	80057f0 <HAL_DMA_IRQHandler>
  /* USER CODE BEGIN DMA2_Stream0_IRQn 1 */

  /* USER CODE END DMA2_Stream0_IRQn 1 */
}
 8001ab2:	bf00      	nop
 8001ab4:	bd80      	pop	{r7, pc}
 8001ab6:	bf00      	nop
 8001ab8:	20000508 	.word	0x20000508

08001abc <DMA2_Stream3_IRQHandler>:

/**
  * @brief This function handles DMA2 stream3 global interrupt.
  */
void DMA2_Stream3_IRQHandler(void)
{
 8001abc:	b580      	push	{r7, lr}
 8001abe:	af00      	add	r7, sp, #0
  /* USER CODE BEGIN DMA2_Stream3_IRQn 0 */

  /* USER CODE END DMA2_Stream3_IRQn 0 */
  HAL_DMA_IRQHandler(&hdma_spi1_tx);
 8001ac0:	4802      	ldr	r0, [pc, #8]	; (8001acc <DMA2_Stream3_IRQHandler+0x10>)
 8001ac2:	f003 fe95 	bl	80057f0 <HAL_DMA_IRQHandler>
  /* USER CODE BEGIN DMA2_Stream3_IRQn 1 */

  /* USER CODE END DMA2_Stream3_IRQn 1 */
}
 8001ac6:	bf00      	nop
 8001ac8:	bd80      	pop	{r7, pc}
 8001aca:	bf00      	nop
 8001acc:	200004a8 	.word	0x200004a8

08001ad0 <_getpid>:
void initialise_monitor_handles()
{
}

int _getpid(void)
{
 8001ad0:	b480      	push	{r7}
 8001ad2:	af00      	add	r7, sp, #0
	return 1;
 8001ad4:	2301      	movs	r3, #1
}
 8001ad6:	4618      	mov	r0, r3
 8001ad8:	46bd      	mov	sp, r7
 8001ada:	f85d 7b04 	ldr.w	r7, [sp], #4
 8001ade:	4770      	bx	lr

08001ae0 <_kill>:

int _kill(int pid, int sig)
{
 8001ae0:	b580      	push	{r7, lr}
 8001ae2:	b082      	sub	sp, #8
 8001ae4:	af00      	add	r7, sp, #0
 8001ae6:	6078      	str	r0, [r7, #4]
 8001ae8:	6039      	str	r1, [r7, #0]
	errno = EINVAL;
 8001aea:	f006 f9d1 	bl	8007e90 <__errno>
 8001aee:	4603      	mov	r3, r0
 8001af0:	2216      	movs	r2, #22
 8001af2:	601a      	str	r2, [r3, #0]
	return -1;
 8001af4:	f04f 33ff 	mov.w	r3, #4294967295
}
 8001af8:	4618      	mov	r0, r3
 8001afa:	3708      	adds	r7, #8
 8001afc:	46bd      	mov	sp, r7
 8001afe:	bd80      	pop	{r7, pc}

08001b00 <_exit>:

void _exit (int status)
{
 8001b00:	b580      	push	{r7, lr}
 8001b02:	b082      	sub	sp, #8
 8001b04:	af00      	add	r7, sp, #0
 8001b06:	6078      	str	r0, [r7, #4]
	_kill(status, -1);
 8001b08:	f04f 31ff 	mov.w	r1, #4294967295
 8001b0c:	6878      	ldr	r0, [r7, #4]
 8001b0e:	f7ff ffe7 	bl	8001ae0 <_kill>
	while (1) {}		/* Make sure we hang here */
 8001b12:	e7fe      	b.n	8001b12 <_exit+0x12>

08001b14 <_read>:
}

__attribute__((weak)) int _read(int file, char *ptr, int len)
{
 8001b14:	b580      	push	{r7, lr}
 8001b16:	b086      	sub	sp, #24
 8001b18:	af00      	add	r7, sp, #0
 8001b1a:	60f8      	str	r0, [r7, #12]
 8001b1c:	60b9      	str	r1, [r7, #8]
 8001b1e:	607a      	str	r2, [r7, #4]
	int DataIdx;

	for (DataIdx = 0; DataIdx < len; DataIdx++)
 8001b20:	2300      	movs	r3, #0
 8001b22:	617b      	str	r3, [r7, #20]
 8001b24:	e00a      	b.n	8001b3c <_read+0x28>
	{
		*ptr++ = __io_getchar();
 8001b26:	f3af 8000 	nop.w
 8001b2a:	4601      	mov	r1, r0
 8001b2c:	68bb      	ldr	r3, [r7, #8]
 8001b2e:	1c5a      	adds	r2, r3, #1
 8001b30:	60ba      	str	r2, [r7, #8]
 8001b32:	b2ca      	uxtb	r2, r1
 8001b34:	701a      	strb	r2, [r3, #0]
	for (DataIdx = 0; DataIdx < len; DataIdx++)
 8001b36:	697b      	ldr	r3, [r7, #20]
 8001b38:	3301      	adds	r3, #1
 8001b3a:	617b      	str	r3, [r7, #20]
 8001b3c:	697a      	ldr	r2, [r7, #20]
 8001b3e:	687b      	ldr	r3, [r7, #4]
 8001b40:	429a      	cmp	r2, r3
 8001b42:	dbf0      	blt.n	8001b26 <_read+0x12>
	}

return len;
 8001b44:	687b      	ldr	r3, [r7, #4]
}
 8001b46:	4618      	mov	r0, r3
 8001b48:	3718      	adds	r7, #24
 8001b4a:	46bd      	mov	sp, r7
 8001b4c:	bd80      	pop	{r7, pc}

08001b4e <_write>:

__attribute__((weak)) int _write(int file, char *ptr, int len)
{
 8001b4e:	b580      	push	{r7, lr}
 8001b50:	b086      	sub	sp, #24
 8001b52:	af00      	add	r7, sp, #0
 8001b54:	60f8      	str	r0, [r7, #12]
 8001b56:	60b9      	str	r1, [r7, #8]
 8001b58:	607a      	str	r2, [r7, #4]
	int DataIdx;

	for (DataIdx = 0; DataIdx < len; DataIdx++)
 8001b5a:	2300      	movs	r3, #0
 8001b5c:	617b      	str	r3, [r7, #20]
 8001b5e:	e009      	b.n	8001b74 <_write+0x26>
	{
		__io_putchar(*ptr++);
 8001b60:	68bb      	ldr	r3, [r7, #8]
 8001b62:	1c5a      	adds	r2, r3, #1
 8001b64:	60ba      	str	r2, [r7, #8]
 8001b66:	781b      	ldrb	r3, [r3, #0]
 8001b68:	4618      	mov	r0, r3
 8001b6a:	f3af 8000 	nop.w
	for (DataIdx = 0; DataIdx < len; DataIdx++)
 8001b6e:	697b      	ldr	r3, [r7, #20]
 8001b70:	3301      	adds	r3, #1
 8001b72:	617b      	str	r3, [r7, #20]
 8001b74:	697a      	ldr	r2, [r7, #20]
 8001b76:	687b      	ldr	r3, [r7, #4]
 8001b78:	429a      	cmp	r2, r3
 8001b7a:	dbf1      	blt.n	8001b60 <_write+0x12>
	}
	return len;
 8001b7c:	687b      	ldr	r3, [r7, #4]
}
 8001b7e:	4618      	mov	r0, r3
 8001b80:	3718      	adds	r7, #24
 8001b82:	46bd      	mov	sp, r7
 8001b84:	bd80      	pop	{r7, pc}

08001b86 <_close>:

int _close(int file)
{
 8001b86:	b480      	push	{r7}
 8001b88:	b083      	sub	sp, #12
 8001b8a:	af00      	add	r7, sp, #0
 8001b8c:	6078      	str	r0, [r7, #4]
	return -1;
 8001b8e:	f04f 33ff 	mov.w	r3, #4294967295
}
 8001b92:	4618      	mov	r0, r3
 8001b94:	370c      	adds	r7, #12
 8001b96:	46bd      	mov	sp, r7
 8001b98:	f85d 7b04 	ldr.w	r7, [sp], #4
 8001b9c:	4770      	bx	lr

08001b9e <_fstat>:


int _fstat(int file, struct stat *st)
{
 8001b9e:	b480      	push	{r7}
 8001ba0:	b083      	sub	sp, #12
 8001ba2:	af00      	add	r7, sp, #0
 8001ba4:	6078      	str	r0, [r7, #4]
 8001ba6:	6039      	str	r1, [r7, #0]
	st->st_mode = S_IFCHR;
 8001ba8:	683b      	ldr	r3, [r7, #0]
 8001baa:	f44f 5200 	mov.w	r2, #8192	; 0x2000
 8001bae:	605a      	str	r2, [r3, #4]
	return 0;
 8001bb0:	2300      	movs	r3, #0
}
 8001bb2:	4618      	mov	r0, r3
 8001bb4:	370c      	adds	r7, #12
 8001bb6:	46bd      	mov	sp, r7
 8001bb8:	f85d 7b04 	ldr.w	r7, [sp], #4
 8001bbc:	4770      	bx	lr

08001bbe <_isatty>:

int _isatty(int file)
{
 8001bbe:	b480      	push	{r7}
 8001bc0:	b083      	sub	sp, #12
 8001bc2:	af00      	add	r7, sp, #0
 8001bc4:	6078      	str	r0, [r7, #4]
	return 1;
 8001bc6:	2301      	movs	r3, #1
}
 8001bc8:	4618      	mov	r0, r3
 8001bca:	370c      	adds	r7, #12
 8001bcc:	46bd      	mov	sp, r7
 8001bce:	f85d 7b04 	ldr.w	r7, [sp], #4
 8001bd2:	4770      	bx	lr

08001bd4 <_lseek>:

int _lseek(int file, int ptr, int dir)
{
 8001bd4:	b480      	push	{r7}
 8001bd6:	b085      	sub	sp, #20
 8001bd8:	af00      	add	r7, sp, #0
 8001bda:	60f8      	str	r0, [r7, #12]
 8001bdc:	60b9      	str	r1, [r7, #8]
 8001bde:	607a      	str	r2, [r7, #4]
	return 0;
 8001be0:	2300      	movs	r3, #0
}
 8001be2:	4618      	mov	r0, r3
 8001be4:	3714      	adds	r7, #20
 8001be6:	46bd      	mov	sp, r7
 8001be8:	f85d 7b04 	ldr.w	r7, [sp], #4
 8001bec:	4770      	bx	lr
	...

08001bf0 <_sbrk>:
 *
 * @param incr Memory size
 * @return Pointer to allocated memory
 */
void *_sbrk(ptrdiff_t incr)
{
 8001bf0:	b580      	push	{r7, lr}
 8001bf2:	b086      	sub	sp, #24
 8001bf4:	af00      	add	r7, sp, #0
 8001bf6:	6078      	str	r0, [r7, #4]
  extern uint8_t _end; /* Symbol defined in the linker script */
  extern uint8_t _estack; /* Symbol defined in the linker script */
  extern uint32_t _Min_Stack_Size; /* Symbol defined in the linker script */
  const uint32_t stack_limit = (uint32_t)&_estack - (uint32_t)&_Min_Stack_Size;
 8001bf8:	4a14      	ldr	r2, [pc, #80]	; (8001c4c <_sbrk+0x5c>)
 8001bfa:	4b15      	ldr	r3, [pc, #84]	; (8001c50 <_sbrk+0x60>)
 8001bfc:	1ad3      	subs	r3, r2, r3
 8001bfe:	617b      	str	r3, [r7, #20]
  const uint8_t *max_heap = (uint8_t *)stack_limit;
 8001c00:	697b      	ldr	r3, [r7, #20]
 8001c02:	613b      	str	r3, [r7, #16]
  uint8_t *prev_heap_end;

  /* Initialize heap end at first call */
  if (NULL == __sbrk_heap_end)
 8001c04:	4b13      	ldr	r3, [pc, #76]	; (8001c54 <_sbrk+0x64>)
 8001c06:	681b      	ldr	r3, [r3, #0]
 8001c08:	2b00      	cmp	r3, #0
 8001c0a:	d102      	bne.n	8001c12 <_sbrk+0x22>
  {
    __sbrk_heap_end = &_end;
 8001c0c:	4b11      	ldr	r3, [pc, #68]	; (8001c54 <_sbrk+0x64>)
 8001c0e:	4a12      	ldr	r2, [pc, #72]	; (8001c58 <_sbrk+0x68>)
 8001c10:	601a      	str	r2, [r3, #0]
  }

  /* Protect heap from growing into the reserved MSP stack */
  if (__sbrk_heap_end + incr > max_heap)
 8001c12:	4b10      	ldr	r3, [pc, #64]	; (8001c54 <_sbrk+0x64>)
 8001c14:	681a      	ldr	r2, [r3, #0]
 8001c16:	687b      	ldr	r3, [r7, #4]
 8001c18:	4413      	add	r3, r2
 8001c1a:	693a      	ldr	r2, [r7, #16]
 8001c1c:	429a      	cmp	r2, r3
 8001c1e:	d207      	bcs.n	8001c30 <_sbrk+0x40>
  {
    errno = ENOMEM;
 8001c20:	f006 f936 	bl	8007e90 <__errno>
 8001c24:	4603      	mov	r3, r0
 8001c26:	220c      	movs	r2, #12
 8001c28:	601a      	str	r2, [r3, #0]
    return (void *)-1;
 8001c2a:	f04f 33ff 	mov.w	r3, #4294967295
 8001c2e:	e009      	b.n	8001c44 <_sbrk+0x54>
  }

  prev_heap_end = __sbrk_heap_end;
 8001c30:	4b08      	ldr	r3, [pc, #32]	; (8001c54 <_sbrk+0x64>)
 8001c32:	681b      	ldr	r3, [r3, #0]
 8001c34:	60fb      	str	r3, [r7, #12]
  __sbrk_heap_end += incr;
 8001c36:	4b07      	ldr	r3, [pc, #28]	; (8001c54 <_sbrk+0x64>)
 8001c38:	681a      	ldr	r2, [r3, #0]
 8001c3a:	687b      	ldr	r3, [r7, #4]
 8001c3c:	4413      	add	r3, r2
 8001c3e:	4a05      	ldr	r2, [pc, #20]	; (8001c54 <_sbrk+0x64>)
 8001c40:	6013      	str	r3, [r2, #0]

  return (void *)prev_heap_end;
 8001c42:	68fb      	ldr	r3, [r7, #12]
}
 8001c44:	4618      	mov	r0, r3
 8001c46:	3718      	adds	r7, #24
 8001c48:	46bd      	mov	sp, r7
 8001c4a:	bd80      	pop	{r7, pc}
 8001c4c:	20020000 	.word	0x20020000
 8001c50:	00000400 	.word	0x00000400
 8001c54:	20000568 	.word	0x20000568
 8001c58:	200005e0 	.word	0x200005e0

08001c5c <SystemInit>:
  *         configuration.
  * @param  None
  * @retval None
  */
void SystemInit(void)
{
 8001c5c:	b480      	push	{r7}
 8001c5e:	af00      	add	r7, sp, #0
  /* FPU settings ------------------------------------------------------------*/
  #if (__FPU_PRESENT == 1) && (__FPU_USED == 1)
    SCB->CPACR |= ((3UL << 10*2)|(3UL << 11*2));  /* set CP10 and CP11 Full Access */
 8001c60:	4b06      	ldr	r3, [pc, #24]	; (8001c7c <SystemInit+0x20>)
 8001c62:	f8d3 3088 	ldr.w	r3, [r3, #136]	; 0x88
 8001c66:	4a05      	ldr	r2, [pc, #20]	; (8001c7c <SystemInit+0x20>)
 8001c68:	f443 0370 	orr.w	r3, r3, #15728640	; 0xf00000
 8001c6c:	f8c2 3088 	str.w	r3, [r2, #136]	; 0x88

  /* Configure the Vector Table location -------------------------------------*/
#if defined(USER_VECT_TAB_ADDRESS)
  SCB->VTOR = VECT_TAB_BASE_ADDRESS | VECT_TAB_OFFSET; /* Vector Table Relocation in Internal SRAM */
#endif /* USER_VECT_TAB_ADDRESS */
}
 8001c70:	bf00      	nop
 8001c72:	46bd      	mov	sp, r7
 8001c74:	f85d 7b04 	ldr.w	r7, [sp], #4
 8001c78:	4770      	bx	lr
 8001c7a:	bf00      	nop
 8001c7c:	e000ed00 	.word	0xe000ed00

08001c80 <Reset_Handler>:

    .section  .text.Reset_Handler
  .weak  Reset_Handler
  .type  Reset_Handler, %function
Reset_Handler:  
  ldr   sp, =_estack     /* set stack pointer */
 8001c80:	f8df d034 	ldr.w	sp, [pc, #52]	; 8001cb8 <LoopFillZerobss+0x12>

/* Copy the data segment initializers from flash to SRAM */  
  ldr r0, =_sdata
 8001c84:	480d      	ldr	r0, [pc, #52]	; (8001cbc <LoopFillZerobss+0x16>)
  ldr r1, =_edata
 8001c86:	490e      	ldr	r1, [pc, #56]	; (8001cc0 <LoopFillZerobss+0x1a>)
  ldr r2, =_sidata
 8001c88:	4a0e      	ldr	r2, [pc, #56]	; (8001cc4 <LoopFillZerobss+0x1e>)
  movs r3, #0
 8001c8a:	2300      	movs	r3, #0
  b LoopCopyDataInit
 8001c8c:	e002      	b.n	8001c94 <LoopCopyDataInit>

08001c8e <CopyDataInit>:

CopyDataInit:
  ldr r4, [r2, r3]
 8001c8e:	58d4      	ldr	r4, [r2, r3]
  str r4, [r0, r3]
 8001c90:	50c4      	str	r4, [r0, r3]
  adds r3, r3, #4
 8001c92:	3304      	adds	r3, #4

08001c94 <LoopCopyDataInit>:

LoopCopyDataInit:
  adds r4, r0, r3
 8001c94:	18c4      	adds	r4, r0, r3
  cmp r4, r1
 8001c96:	428c      	cmp	r4, r1
  bcc CopyDataInit
 8001c98:	d3f9      	bcc.n	8001c8e <CopyDataInit>
  
/* Zero fill the bss segment. */
  ldr r2, =_sbss
 8001c9a:	4a0b      	ldr	r2, [pc, #44]	; (8001cc8 <LoopFillZerobss+0x22>)
  ldr r4, =_ebss
 8001c9c:	4c0b      	ldr	r4, [pc, #44]	; (8001ccc <LoopFillZerobss+0x26>)
  movs r3, #0
 8001c9e:	2300      	movs	r3, #0
  b LoopFillZerobss
 8001ca0:	e001      	b.n	8001ca6 <LoopFillZerobss>

08001ca2 <FillZerobss>:

FillZerobss:
  str  r3, [r2]
 8001ca2:	6013      	str	r3, [r2, #0]
  adds r2, r2, #4
 8001ca4:	3204      	adds	r2, #4

08001ca6 <LoopFillZerobss>:

LoopFillZerobss:
  cmp r2, r4
 8001ca6:	42a2      	cmp	r2, r4
  bcc FillZerobss
 8001ca8:	d3fb      	bcc.n	8001ca2 <FillZerobss>

/* Call the clock system initialization function.*/
  bl  SystemInit   
 8001caa:	f7ff ffd7 	bl	8001c5c <SystemInit>
/* Call static constructors */
    bl __libc_init_array
 8001cae:	f006 f8f5 	bl	8007e9c <__libc_init_array>
/* Call the application's entry point.*/
  bl  main
 8001cb2:	f7ff fafb 	bl	80012ac <main>
  bx  lr    
 8001cb6:	4770      	bx	lr
  ldr   sp, =_estack     /* set stack pointer */
 8001cb8:	20020000 	.word	0x20020000
  ldr r0, =_sdata
 8001cbc:	20000000 	.word	0x20000000
  ldr r1, =_edata
 8001cc0:	200001e0 	.word	0x200001e0
  ldr r2, =_sidata
 8001cc4:	0800e3a4 	.word	0x0800e3a4
  ldr r2, =_sbss
 8001cc8:	200001e0 	.word	0x200001e0
  ldr r4, =_ebss
 8001ccc:	200005e0 	.word	0x200005e0

08001cd0 <ADC_IRQHandler>:
 * @retval None       
*/
    .section  .text.Default_Handler,"ax",%progbits
Default_Handler:
Infinite_Loop:
  b  Infinite_Loop
 8001cd0:	e7fe      	b.n	8001cd0 <ADC_IRQHandler>
	...

08001cd4 <ScanPressedKey>:
#include "keyled.h"

KEYS ScanPressedKey(uint32_t timeout)
{
 8001cd4:	b580      	push	{r7, lr}
 8001cd6:	b084      	sub	sp, #16
 8001cd8:	af00      	add	r7, sp, #0
 8001cda:	6078      	str	r0, [r7, #4]
	uint32_t tickstart = HAL_GetTick();
 8001cdc:	f003 fb40 	bl	8005360 <HAL_GetTick>
 8001ce0:	60f8      	str	r0, [r7, #12]
	const uint32_t btnDelay = 20;
 8001ce2:	2314      	movs	r3, #20
 8001ce4:	60bb      	str	r3, [r7, #8]
	while (1)
	{
#ifdef KeyRight_Pin
		if (HAL_GPIO_ReadPin(KeyRight_GPIO_Port, KeyRight_Pin) == GPIO_PIN_RESET)
 8001ce6:	2110      	movs	r1, #16
 8001ce8:	482e      	ldr	r0, [pc, #184]	; (8001da4 <ScanPressedKey+0xd0>)
 8001cea:	f004 f987 	bl	8005ffc <HAL_GPIO_ReadPin>
 8001cee:	4603      	mov	r3, r0
 8001cf0:	2b00      	cmp	r3, #0
 8001cf2:	d10b      	bne.n	8001d0c <ScanPressedKey+0x38>
		{
			HAL_Delay(btnDelay);
 8001cf4:	68b8      	ldr	r0, [r7, #8]
 8001cf6:	f003 fb3f 	bl	8005378 <HAL_Delay>
			if (HAL_GPIO_ReadPin(KeyRight_GPIO_Port, KeyRight_Pin) == GPIO_PIN_RESET)
 8001cfa:	2110      	movs	r1, #16
 8001cfc:	4829      	ldr	r0, [pc, #164]	; (8001da4 <ScanPressedKey+0xd0>)
 8001cfe:	f004 f97d 	bl	8005ffc <HAL_GPIO_ReadPin>
 8001d02:	4603      	mov	r3, r0
 8001d04:	2b00      	cmp	r3, #0
 8001d06:	d101      	bne.n	8001d0c <ScanPressedKey+0x38>
				return KEY_RIGHT;
 8001d08:	2302      	movs	r3, #2
 8001d0a:	e046      	b.n	8001d9a <ScanPressedKey+0xc6>
		}
#endif
#ifdef KeyDown_Pin
		if (HAL_GPIO_ReadPin(KeyDown_GPIO_Port, KeyDown_Pin) == GPIO_PIN_RESET)
 8001d0c:	2108      	movs	r1, #8
 8001d0e:	4825      	ldr	r0, [pc, #148]	; (8001da4 <ScanPressedKey+0xd0>)
 8001d10:	f004 f974 	bl	8005ffc <HAL_GPIO_ReadPin>
 8001d14:	4603      	mov	r3, r0
 8001d16:	2b00      	cmp	r3, #0
 8001d18:	d10b      	bne.n	8001d32 <ScanPressedKey+0x5e>
		{
			HAL_Delay(btnDelay);
 8001d1a:	68b8      	ldr	r0, [r7, #8]
 8001d1c:	f003 fb2c 	bl	8005378 <HAL_Delay>
			if (HAL_GPIO_ReadPin(KeyDown_GPIO_Port, KeyDown_Pin) == GPIO_PIN_RESET)
 8001d20:	2108      	movs	r1, #8
 8001d22:	4820      	ldr	r0, [pc, #128]	; (8001da4 <ScanPressedKey+0xd0>)
 8001d24:	f004 f96a 	bl	8005ffc <HAL_GPIO_ReadPin>
 8001d28:	4603      	mov	r3, r0
 8001d2a:	2b00      	cmp	r3, #0
 8001d2c:	d101      	bne.n	8001d32 <ScanPressedKey+0x5e>
				return KEY_DOWN;
 8001d2e:	2304      	movs	r3, #4
 8001d30:	e033      	b.n	8001d9a <ScanPressedKey+0xc6>
		}
#endif
#ifdef KeyLeft_Pin
		if (HAL_GPIO_ReadPin(KeyLeft_GPIO_Port, KeyLeft_Pin) == GPIO_PIN_RESET)
 8001d32:	2104      	movs	r1, #4
 8001d34:	481b      	ldr	r0, [pc, #108]	; (8001da4 <ScanPressedKey+0xd0>)
 8001d36:	f004 f961 	bl	8005ffc <HAL_GPIO_ReadPin>
 8001d3a:	4603      	mov	r3, r0
 8001d3c:	2b00      	cmp	r3, #0
 8001d3e:	d10b      	bne.n	8001d58 <ScanPressedKey+0x84>
		{
			HAL_Delay(btnDelay);
 8001d40:	68b8      	ldr	r0, [r7, #8]
 8001d42:	f003 fb19 	bl	8005378 <HAL_Delay>
			if (HAL_GPIO_ReadPin(KeyLeft_GPIO_Port, KeyLeft_Pin) == GPIO_PIN_RESET)
 8001d46:	2104      	movs	r1, #4
 8001d48:	4816      	ldr	r0, [pc, #88]	; (8001da4 <ScanPressedKey+0xd0>)
 8001d4a:	f004 f957 	bl	8005ffc <HAL_GPIO_ReadPin>
 8001d4e:	4603      	mov	r3, r0
 8001d50:	2b00      	cmp	r3, #0
 8001d52:	d101      	bne.n	8001d58 <ScanPressedKey+0x84>
				return KEY_LEFT;
 8001d54:	2301      	movs	r3, #1
 8001d56:	e020      	b.n	8001d9a <ScanPressedKey+0xc6>
		}
#endif
#ifdef KeyUp_Pin
		if (HAL_GPIO_ReadPin(KeyUp_GPIO_Port, KeyUp_Pin) == GPIO_PIN_SET)
 8001d58:	2101      	movs	r1, #1
 8001d5a:	4813      	ldr	r0, [pc, #76]	; (8001da8 <ScanPressedKey+0xd4>)
 8001d5c:	f004 f94e 	bl	8005ffc <HAL_GPIO_ReadPin>
 8001d60:	4603      	mov	r3, r0
 8001d62:	2b01      	cmp	r3, #1
 8001d64:	d10b      	bne.n	8001d7e <ScanPressedKey+0xaa>
		{
			HAL_Delay(btnDelay);
 8001d66:	68b8      	ldr	r0, [r7, #8]
 8001d68:	f003 fb06 	bl	8005378 <HAL_Delay>
			if (HAL_GPIO_ReadPin(KeyUp_GPIO_Port, KeyUp_Pin) == GPIO_PIN_SET)
 8001d6c:	2101      	movs	r1, #1
 8001d6e:	480e      	ldr	r0, [pc, #56]	; (8001da8 <ScanPressedKey+0xd4>)
 8001d70:	f004 f944 	bl	8005ffc <HAL_GPIO_ReadPin>
 8001d74:	4603      	mov	r3, r0
 8001d76:	2b01      	cmp	r3, #1
 8001d78:	d101      	bne.n	8001d7e <ScanPressedKey+0xaa>
				return KEY_UP;
 8001d7a:	2303      	movs	r3, #3
 8001d7c:	e00d      	b.n	8001d9a <ScanPressedKey+0xc6>
		}
#endif
		if (timeout != KEY_WAIT_ALWAYS) {
 8001d7e:	687b      	ldr	r3, [r7, #4]
 8001d80:	2b00      	cmp	r3, #0
 8001d82:	d0b0      	beq.n	8001ce6 <ScanPressedKey+0x12>
			if ((HAL_GetTick() - tickstart) > timeout)
 8001d84:	f003 faec 	bl	8005360 <HAL_GetTick>
 8001d88:	4602      	mov	r2, r0
 8001d8a:	68fb      	ldr	r3, [r7, #12]
 8001d8c:	1ad3      	subs	r3, r2, r3
 8001d8e:	687a      	ldr	r2, [r7, #4]
 8001d90:	429a      	cmp	r2, r3
 8001d92:	d300      	bcc.n	8001d96 <ScanPressedKey+0xc2>
		if (HAL_GPIO_ReadPin(KeyRight_GPIO_Port, KeyRight_Pin) == GPIO_PIN_RESET)
 8001d94:	e7a7      	b.n	8001ce6 <ScanPressedKey+0x12>
				break;
 8001d96:	bf00      	nop
		}
	}
	return KEY_NONE;
 8001d98:	2300      	movs	r3, #0
}
 8001d9a:	4618      	mov	r0, r3
 8001d9c:	3710      	adds	r7, #16
 8001d9e:	46bd      	mov	sp, r7
 8001da0:	bd80      	pop	{r7, pc}
 8001da2:	bf00      	nop
 8001da4:	40021000 	.word	0x40021000
 8001da8:	40020000 	.word	0x40020000

08001dac <lcd_wr_data>:
 * @brief       LCD写数据
 * @param       data: 要写入的数据
 * @retval      无
 */
void lcd_wr_data(volatile uint16_t data)
{
 8001dac:	b480      	push	{r7}
 8001dae:	b083      	sub	sp, #12
 8001db0:	af00      	add	r7, sp, #0
 8001db2:	4603      	mov	r3, r0
 8001db4:	80fb      	strh	r3, [r7, #6]
    data = data;            /* 使用-O2优化的时候,必须插入的延时 */
 8001db6:	88fb      	ldrh	r3, [r7, #6]
 8001db8:	b29b      	uxth	r3, r3
 8001dba:	80fb      	strh	r3, [r7, #6]
    LCD->LCD_RAM = data;
 8001dbc:	4b04      	ldr	r3, [pc, #16]	; (8001dd0 <lcd_wr_data+0x24>)
 8001dbe:	88fa      	ldrh	r2, [r7, #6]
 8001dc0:	b292      	uxth	r2, r2
 8001dc2:	805a      	strh	r2, [r3, #2]
}
 8001dc4:	bf00      	nop
 8001dc6:	370c      	adds	r7, #12
 8001dc8:	46bd      	mov	sp, r7
 8001dca:	f85d 7b04 	ldr.w	r7, [sp], #4
 8001dce:	4770      	bx	lr
 8001dd0:	6c00007e 	.word	0x6c00007e

08001dd4 <lcd_wr_regno>:
 * @brief       LCD写寄存器编号/地址函数
 * @param       regno: 寄存器编号/地址
 * @retval      无
 */
void lcd_wr_regno(volatile uint16_t regno)
{
 8001dd4:	b480      	push	{r7}
 8001dd6:	b083      	sub	sp, #12
 8001dd8:	af00      	add	r7, sp, #0
 8001dda:	4603      	mov	r3, r0
 8001ddc:	80fb      	strh	r3, [r7, #6]
    regno = regno;          /* 使用-O2优化的时候,必须插入的延时 */
 8001dde:	88fb      	ldrh	r3, [r7, #6]
 8001de0:	b29b      	uxth	r3, r3
 8001de2:	80fb      	strh	r3, [r7, #6]
    LCD->LCD_REG = regno;   /* 写入要写的寄存器序号 */
 8001de4:	4b04      	ldr	r3, [pc, #16]	; (8001df8 <lcd_wr_regno+0x24>)
 8001de6:	88fa      	ldrh	r2, [r7, #6]
 8001de8:	b292      	uxth	r2, r2
 8001dea:	801a      	strh	r2, [r3, #0]
}
 8001dec:	bf00      	nop
 8001dee:	370c      	adds	r7, #12
 8001df0:	46bd      	mov	sp, r7
 8001df2:	f85d 7b04 	ldr.w	r7, [sp], #4
 8001df6:	4770      	bx	lr
 8001df8:	6c00007e 	.word	0x6c00007e

08001dfc <lcd_write_reg>:
 * @param       regno:寄存器编号/地址
 * @param       data:要写入的数据
 * @retval      无
 */
void lcd_write_reg(uint16_t regno, uint16_t data)
{
 8001dfc:	b480      	push	{r7}
 8001dfe:	b083      	sub	sp, #12
 8001e00:	af00      	add	r7, sp, #0
 8001e02:	4603      	mov	r3, r0
 8001e04:	460a      	mov	r2, r1
 8001e06:	80fb      	strh	r3, [r7, #6]
 8001e08:	4613      	mov	r3, r2
 8001e0a:	80bb      	strh	r3, [r7, #4]
    LCD->LCD_REG = regno;   /* 写入要写的寄存器序号 */
 8001e0c:	4a05      	ldr	r2, [pc, #20]	; (8001e24 <lcd_write_reg+0x28>)
 8001e0e:	88fb      	ldrh	r3, [r7, #6]
 8001e10:	8013      	strh	r3, [r2, #0]
    LCD->LCD_RAM = data;    /* 写入数据 */
 8001e12:	4a04      	ldr	r2, [pc, #16]	; (8001e24 <lcd_write_reg+0x28>)
 8001e14:	88bb      	ldrh	r3, [r7, #4]
 8001e16:	8053      	strh	r3, [r2, #2]
}
 8001e18:	bf00      	nop
 8001e1a:	370c      	adds	r7, #12
 8001e1c:	46bd      	mov	sp, r7
 8001e1e:	f85d 7b04 	ldr.w	r7, [sp], #4
 8001e22:	4770      	bx	lr
 8001e24:	6c00007e 	.word	0x6c00007e

08001e28 <lcd_rd_data>:
 * @brief       LCD读数据
 * @param       无
 * @retval      读取到的数据
 */
static uint16_t lcd_rd_data(void)
{
 8001e28:	b480      	push	{r7}
 8001e2a:	b083      	sub	sp, #12
 8001e2c:	af00      	add	r7, sp, #0
    volatile uint16_t ram;  /* 防止被优化 */
    ram = LCD->LCD_RAM;
 8001e2e:	4b06      	ldr	r3, [pc, #24]	; (8001e48 <lcd_rd_data+0x20>)
 8001e30:	885b      	ldrh	r3, [r3, #2]
 8001e32:	b29b      	uxth	r3, r3
 8001e34:	80fb      	strh	r3, [r7, #6]
    return ram;
 8001e36:	88fb      	ldrh	r3, [r7, #6]
 8001e38:	b29b      	uxth	r3, r3
}
 8001e3a:	4618      	mov	r0, r3
 8001e3c:	370c      	adds	r7, #12
 8001e3e:	46bd      	mov	sp, r7
 8001e40:	f85d 7b04 	ldr.w	r7, [sp], #4
 8001e44:	4770      	bx	lr
 8001e46:	bf00      	nop
 8001e48:	6c00007e 	.word	0x6c00007e

08001e4c <lcd_write_ram_prepare>:
 * @brief       准备写GRAM
 * @param       无
 * @retval      无
 */
void lcd_write_ram_prepare(void)
{
 8001e4c:	b480      	push	{r7}
 8001e4e:	af00      	add	r7, sp, #0
    LCD->LCD_REG = lcddev.wramcmd;
 8001e50:	4b04      	ldr	r3, [pc, #16]	; (8001e64 <lcd_write_ram_prepare+0x18>)
 8001e52:	4a05      	ldr	r2, [pc, #20]	; (8001e68 <lcd_write_ram_prepare+0x1c>)
 8001e54:	8912      	ldrh	r2, [r2, #8]
 8001e56:	801a      	strh	r2, [r3, #0]
}
 8001e58:	bf00      	nop
 8001e5a:	46bd      	mov	sp, r7
 8001e5c:	f85d 7b04 	ldr.w	r7, [sp], #4
 8001e60:	4770      	bx	lr
 8001e62:	bf00      	nop
 8001e64:	6c00007e 	.word	0x6c00007e
 8001e68:	200005bc 	.word	0x200005bc

08001e6c <lcd_set_cursor>:
 * @brief       设置光标位置(对RGB屏无效)
 * @param       x,y: 坐标
 * @retval      无
 */
void lcd_set_cursor(uint16_t x, uint16_t y)
{
 8001e6c:	b580      	push	{r7, lr}
 8001e6e:	b082      	sub	sp, #8
 8001e70:	af00      	add	r7, sp, #0
 8001e72:	4603      	mov	r3, r0
 8001e74:	460a      	mov	r2, r1
 8001e76:	80fb      	strh	r3, [r7, #6]
 8001e78:	4613      	mov	r3, r2
 8001e7a:	80bb      	strh	r3, [r7, #4]
    if (lcddev.id == 0x1963)
 8001e7c:	4b65      	ldr	r3, [pc, #404]	; (8002014 <lcd_set_cursor+0x1a8>)
 8001e7e:	889b      	ldrh	r3, [r3, #4]
 8001e80:	f641 1263 	movw	r2, #6499	; 0x1963
 8001e84:	4293      	cmp	r3, r2
 8001e86:	d167      	bne.n	8001f58 <lcd_set_cursor+0xec>
    {
        if (lcddev.dir == 0)    /* 竖屏模式, x坐标需要变换 */
 8001e88:	4b62      	ldr	r3, [pc, #392]	; (8002014 <lcd_set_cursor+0x1a8>)
 8001e8a:	799b      	ldrb	r3, [r3, #6]
 8001e8c:	2b00      	cmp	r3, #0
 8001e8e:	d11e      	bne.n	8001ece <lcd_set_cursor+0x62>
        {
            x = lcddev.width - 1 - x;
 8001e90:	4b60      	ldr	r3, [pc, #384]	; (8002014 <lcd_set_cursor+0x1a8>)
 8001e92:	881a      	ldrh	r2, [r3, #0]
 8001e94:	88fb      	ldrh	r3, [r7, #6]
 8001e96:	1ad3      	subs	r3, r2, r3
 8001e98:	b29b      	uxth	r3, r3
 8001e9a:	3b01      	subs	r3, #1
 8001e9c:	80fb      	strh	r3, [r7, #6]
            lcd_wr_regno(lcddev.setxcmd);
 8001e9e:	4b5d      	ldr	r3, [pc, #372]	; (8002014 <lcd_set_cursor+0x1a8>)
 8001ea0:	895b      	ldrh	r3, [r3, #10]
 8001ea2:	4618      	mov	r0, r3
 8001ea4:	f7ff ff96 	bl	8001dd4 <lcd_wr_regno>
            lcd_wr_data(0);
 8001ea8:	2000      	movs	r0, #0
 8001eaa:	f7ff ff7f 	bl	8001dac <lcd_wr_data>
            lcd_wr_data(0);
 8001eae:	2000      	movs	r0, #0
 8001eb0:	f7ff ff7c 	bl	8001dac <lcd_wr_data>
            lcd_wr_data(x >> 8);
 8001eb4:	88fb      	ldrh	r3, [r7, #6]
 8001eb6:	0a1b      	lsrs	r3, r3, #8
 8001eb8:	b29b      	uxth	r3, r3
 8001eba:	4618      	mov	r0, r3
 8001ebc:	f7ff ff76 	bl	8001dac <lcd_wr_data>
            lcd_wr_data(x & 0xFF);
 8001ec0:	88fb      	ldrh	r3, [r7, #6]
 8001ec2:	b2db      	uxtb	r3, r3
 8001ec4:	b29b      	uxth	r3, r3
 8001ec6:	4618      	mov	r0, r3
 8001ec8:	f7ff ff70 	bl	8001dac <lcd_wr_data>
 8001ecc:	e021      	b.n	8001f12 <lcd_set_cursor+0xa6>
        }
        else                    /* 横屏模式 */
        {
            lcd_wr_regno(lcddev.setxcmd);
 8001ece:	4b51      	ldr	r3, [pc, #324]	; (8002014 <lcd_set_cursor+0x1a8>)
 8001ed0:	895b      	ldrh	r3, [r3, #10]
 8001ed2:	4618      	mov	r0, r3
 8001ed4:	f7ff ff7e 	bl	8001dd4 <lcd_wr_regno>
            lcd_wr_data(x >> 8);
 8001ed8:	88fb      	ldrh	r3, [r7, #6]
 8001eda:	0a1b      	lsrs	r3, r3, #8
 8001edc:	b29b      	uxth	r3, r3
 8001ede:	4618      	mov	r0, r3
 8001ee0:	f7ff ff64 	bl	8001dac <lcd_wr_data>
            lcd_wr_data(x & 0xFF);
 8001ee4:	88fb      	ldrh	r3, [r7, #6]
 8001ee6:	b2db      	uxtb	r3, r3
 8001ee8:	b29b      	uxth	r3, r3
 8001eea:	4618      	mov	r0, r3
 8001eec:	f7ff ff5e 	bl	8001dac <lcd_wr_data>
            lcd_wr_data((lcddev.width - 1) >> 8);
 8001ef0:	4b48      	ldr	r3, [pc, #288]	; (8002014 <lcd_set_cursor+0x1a8>)
 8001ef2:	881b      	ldrh	r3, [r3, #0]
 8001ef4:	3b01      	subs	r3, #1
 8001ef6:	121b      	asrs	r3, r3, #8
 8001ef8:	b29b      	uxth	r3, r3
 8001efa:	4618      	mov	r0, r3
 8001efc:	f7ff ff56 	bl	8001dac <lcd_wr_data>
            lcd_wr_data((lcddev.width - 1) & 0xFF);
 8001f00:	4b44      	ldr	r3, [pc, #272]	; (8002014 <lcd_set_cursor+0x1a8>)
 8001f02:	881b      	ldrh	r3, [r3, #0]
 8001f04:	3b01      	subs	r3, #1
 8001f06:	b29b      	uxth	r3, r3
 8001f08:	b2db      	uxtb	r3, r3
 8001f0a:	b29b      	uxth	r3, r3
 8001f0c:	4618      	mov	r0, r3
 8001f0e:	f7ff ff4d 	bl	8001dac <lcd_wr_data>
        }

        lcd_wr_regno(lcddev.setycmd);
 8001f12:	4b40      	ldr	r3, [pc, #256]	; (8002014 <lcd_set_cursor+0x1a8>)
 8001f14:	899b      	ldrh	r3, [r3, #12]
 8001f16:	4618      	mov	r0, r3
 8001f18:	f7ff ff5c 	bl	8001dd4 <lcd_wr_regno>
        lcd_wr_data(y >> 8);
 8001f1c:	88bb      	ldrh	r3, [r7, #4]
 8001f1e:	0a1b      	lsrs	r3, r3, #8
 8001f20:	b29b      	uxth	r3, r3
 8001f22:	4618      	mov	r0, r3
 8001f24:	f7ff ff42 	bl	8001dac <lcd_wr_data>
        lcd_wr_data(y & 0xFF);
 8001f28:	88bb      	ldrh	r3, [r7, #4]
 8001f2a:	b2db      	uxtb	r3, r3
 8001f2c:	b29b      	uxth	r3, r3
 8001f2e:	4618      	mov	r0, r3
 8001f30:	f7ff ff3c 	bl	8001dac <lcd_wr_data>
        lcd_wr_data((lcddev.height - 1) >> 8);
 8001f34:	4b37      	ldr	r3, [pc, #220]	; (8002014 <lcd_set_cursor+0x1a8>)
 8001f36:	885b      	ldrh	r3, [r3, #2]
 8001f38:	3b01      	subs	r3, #1
 8001f3a:	121b      	asrs	r3, r3, #8
 8001f3c:	b29b      	uxth	r3, r3
 8001f3e:	4618      	mov	r0, r3
 8001f40:	f7ff ff34 	bl	8001dac <lcd_wr_data>
        lcd_wr_data((lcddev.height - 1) & 0xFF);
 8001f44:	4b33      	ldr	r3, [pc, #204]	; (8002014 <lcd_set_cursor+0x1a8>)
 8001f46:	885b      	ldrh	r3, [r3, #2]
 8001f48:	3b01      	subs	r3, #1
 8001f4a:	b29b      	uxth	r3, r3
 8001f4c:	b2db      	uxtb	r3, r3
 8001f4e:	b29b      	uxth	r3, r3
 8001f50:	4618      	mov	r0, r3
 8001f52:	f7ff ff2b 	bl	8001dac <lcd_wr_data>
        lcd_wr_data(x & 0xFF);
        lcd_wr_regno(lcddev.setycmd);
        lcd_wr_data(y >> 8);
        lcd_wr_data(y & 0xFF);
    }
}
 8001f56:	e058      	b.n	800200a <lcd_set_cursor+0x19e>
    else if (lcddev.id == 0x5510)
 8001f58:	4b2e      	ldr	r3, [pc, #184]	; (8002014 <lcd_set_cursor+0x1a8>)
 8001f5a:	889b      	ldrh	r3, [r3, #4]
 8001f5c:	f245 5210 	movw	r2, #21776	; 0x5510
 8001f60:	4293      	cmp	r3, r2
 8001f62:	d130      	bne.n	8001fc6 <lcd_set_cursor+0x15a>
        lcd_wr_regno(lcddev.setxcmd);
 8001f64:	4b2b      	ldr	r3, [pc, #172]	; (8002014 <lcd_set_cursor+0x1a8>)
 8001f66:	895b      	ldrh	r3, [r3, #10]
 8001f68:	4618      	mov	r0, r3
 8001f6a:	f7ff ff33 	bl	8001dd4 <lcd_wr_regno>
        lcd_wr_data(x >> 8);
 8001f6e:	88fb      	ldrh	r3, [r7, #6]
 8001f70:	0a1b      	lsrs	r3, r3, #8
 8001f72:	b29b      	uxth	r3, r3
 8001f74:	4618      	mov	r0, r3
 8001f76:	f7ff ff19 	bl	8001dac <lcd_wr_data>
        lcd_wr_regno(lcddev.setxcmd + 1);
 8001f7a:	4b26      	ldr	r3, [pc, #152]	; (8002014 <lcd_set_cursor+0x1a8>)
 8001f7c:	895b      	ldrh	r3, [r3, #10]
 8001f7e:	3301      	adds	r3, #1
 8001f80:	b29b      	uxth	r3, r3
 8001f82:	4618      	mov	r0, r3
 8001f84:	f7ff ff26 	bl	8001dd4 <lcd_wr_regno>
        lcd_wr_data(x & 0xFF);
 8001f88:	88fb      	ldrh	r3, [r7, #6]
 8001f8a:	b2db      	uxtb	r3, r3
 8001f8c:	b29b      	uxth	r3, r3
 8001f8e:	4618      	mov	r0, r3
 8001f90:	f7ff ff0c 	bl	8001dac <lcd_wr_data>
        lcd_wr_regno(lcddev.setycmd);
 8001f94:	4b1f      	ldr	r3, [pc, #124]	; (8002014 <lcd_set_cursor+0x1a8>)
 8001f96:	899b      	ldrh	r3, [r3, #12]
 8001f98:	4618      	mov	r0, r3
 8001f9a:	f7ff ff1b 	bl	8001dd4 <lcd_wr_regno>
        lcd_wr_data(y >> 8);
 8001f9e:	88bb      	ldrh	r3, [r7, #4]
 8001fa0:	0a1b      	lsrs	r3, r3, #8
 8001fa2:	b29b      	uxth	r3, r3
 8001fa4:	4618      	mov	r0, r3
 8001fa6:	f7ff ff01 	bl	8001dac <lcd_wr_data>
        lcd_wr_regno(lcddev.setycmd + 1);
 8001faa:	4b1a      	ldr	r3, [pc, #104]	; (8002014 <lcd_set_cursor+0x1a8>)
 8001fac:	899b      	ldrh	r3, [r3, #12]
 8001fae:	3301      	adds	r3, #1
 8001fb0:	b29b      	uxth	r3, r3
 8001fb2:	4618      	mov	r0, r3
 8001fb4:	f7ff ff0e 	bl	8001dd4 <lcd_wr_regno>
        lcd_wr_data(y & 0xFF);
 8001fb8:	88bb      	ldrh	r3, [r7, #4]
 8001fba:	b2db      	uxtb	r3, r3
 8001fbc:	b29b      	uxth	r3, r3
 8001fbe:	4618      	mov	r0, r3
 8001fc0:	f7ff fef4 	bl	8001dac <lcd_wr_data>
}
 8001fc4:	e021      	b.n	800200a <lcd_set_cursor+0x19e>
        lcd_wr_regno(lcddev.setxcmd);
 8001fc6:	4b13      	ldr	r3, [pc, #76]	; (8002014 <lcd_set_cursor+0x1a8>)
 8001fc8:	895b      	ldrh	r3, [r3, #10]
 8001fca:	4618      	mov	r0, r3
 8001fcc:	f7ff ff02 	bl	8001dd4 <lcd_wr_regno>
        lcd_wr_data(x >> 8);
 8001fd0:	88fb      	ldrh	r3, [r7, #6]
 8001fd2:	0a1b      	lsrs	r3, r3, #8
 8001fd4:	b29b      	uxth	r3, r3
 8001fd6:	4618      	mov	r0, r3
 8001fd8:	f7ff fee8 	bl	8001dac <lcd_wr_data>
        lcd_wr_data(x & 0xFF);
 8001fdc:	88fb      	ldrh	r3, [r7, #6]
 8001fde:	b2db      	uxtb	r3, r3
 8001fe0:	b29b      	uxth	r3, r3
 8001fe2:	4618      	mov	r0, r3
 8001fe4:	f7ff fee2 	bl	8001dac <lcd_wr_data>
        lcd_wr_regno(lcddev.setycmd);
 8001fe8:	4b0a      	ldr	r3, [pc, #40]	; (8002014 <lcd_set_cursor+0x1a8>)
 8001fea:	899b      	ldrh	r3, [r3, #12]
 8001fec:	4618      	mov	r0, r3
 8001fee:	f7ff fef1 	bl	8001dd4 <lcd_wr_regno>
        lcd_wr_data(y >> 8);
 8001ff2:	88bb      	ldrh	r3, [r7, #4]
 8001ff4:	0a1b      	lsrs	r3, r3, #8
 8001ff6:	b29b      	uxth	r3, r3
 8001ff8:	4618      	mov	r0, r3
 8001ffa:	f7ff fed7 	bl	8001dac <lcd_wr_data>
        lcd_wr_data(y & 0xFF);
 8001ffe:	88bb      	ldrh	r3, [r7, #4]
 8002000:	b2db      	uxtb	r3, r3
 8002002:	b29b      	uxth	r3, r3
 8002004:	4618      	mov	r0, r3
 8002006:	f7ff fed1 	bl	8001dac <lcd_wr_data>
}
 800200a:	bf00      	nop
 800200c:	3708      	adds	r7, #8
 800200e:	46bd      	mov	sp, r7
 8002010:	bd80      	pop	{r7, pc}
 8002012:	bf00      	nop
 8002014:	200005bc 	.word	0x200005bc

08002018 <lcd_scan_dir>:
 *
 * @param       dir:0~7,代表8个方向(具体定义见lcd.h)
 * @retval      无
 */
void lcd_scan_dir(uint8_t dir)
{
 8002018:	b580      	push	{r7, lr}
 800201a:	b084      	sub	sp, #16
 800201c:	af00      	add	r7, sp, #0
 800201e:	4603      	mov	r3, r0
 8002020:	71fb      	strb	r3, [r7, #7]
    uint16_t regval = 0;
 8002022:	2300      	movs	r3, #0
 8002024:	81fb      	strh	r3, [r7, #14]
    uint16_t dirreg = 0;
 8002026:	2300      	movs	r3, #0
 8002028:	81bb      	strh	r3, [r7, #12]
    uint16_t temp;

    /* 横屏时，对1963不改变扫描方向！竖屏时1963改变方向(这里仅用于1963的特殊处理,对其他驱动IC无效) */
    if ((lcddev.dir == 1 && lcddev.id != 0x1963) || (lcddev.dir == 0 && lcddev.id == 0x1963))
 800202a:	4b9a      	ldr	r3, [pc, #616]	; (8002294 <lcd_scan_dir+0x27c>)
 800202c:	799b      	ldrb	r3, [r3, #6]
 800202e:	2b01      	cmp	r3, #1
 8002030:	d105      	bne.n	800203e <lcd_scan_dir+0x26>
 8002032:	4b98      	ldr	r3, [pc, #608]	; (8002294 <lcd_scan_dir+0x27c>)
 8002034:	889b      	ldrh	r3, [r3, #4]
 8002036:	f641 1263 	movw	r2, #6499	; 0x1963
 800203a:	4293      	cmp	r3, r2
 800203c:	d109      	bne.n	8002052 <lcd_scan_dir+0x3a>
 800203e:	4b95      	ldr	r3, [pc, #596]	; (8002294 <lcd_scan_dir+0x27c>)
 8002040:	799b      	ldrb	r3, [r3, #6]
 8002042:	2b00      	cmp	r3, #0
 8002044:	d134      	bne.n	80020b0 <lcd_scan_dir+0x98>
 8002046:	4b93      	ldr	r3, [pc, #588]	; (8002294 <lcd_scan_dir+0x27c>)
 8002048:	889b      	ldrh	r3, [r3, #4]
 800204a:	f641 1263 	movw	r2, #6499	; 0x1963
 800204e:	4293      	cmp	r3, r2
 8002050:	d12e      	bne.n	80020b0 <lcd_scan_dir+0x98>
    {
        switch (dir)   /* 方向转换 */
 8002052:	79fb      	ldrb	r3, [r7, #7]
 8002054:	2b07      	cmp	r3, #7
 8002056:	d82c      	bhi.n	80020b2 <lcd_scan_dir+0x9a>
 8002058:	a201      	add	r2, pc, #4	; (adr r2, 8002060 <lcd_scan_dir+0x48>)
 800205a:	f852 f023 	ldr.w	pc, [r2, r3, lsl #2]
 800205e:	bf00      	nop
 8002060:	08002081 	.word	0x08002081
 8002064:	08002087 	.word	0x08002087
 8002068:	0800208d 	.word	0x0800208d
 800206c:	08002093 	.word	0x08002093
 8002070:	08002099 	.word	0x08002099
 8002074:	0800209f 	.word	0x0800209f
 8002078:	080020a5 	.word	0x080020a5
 800207c:	080020ab 	.word	0x080020ab
        {
            case 0:
                dir = 6;
 8002080:	2306      	movs	r3, #6
 8002082:	71fb      	strb	r3, [r7, #7]
                break;
 8002084:	e015      	b.n	80020b2 <lcd_scan_dir+0x9a>

            case 1:
                dir = 7;
 8002086:	2307      	movs	r3, #7
 8002088:	71fb      	strb	r3, [r7, #7]
                break;
 800208a:	e012      	b.n	80020b2 <lcd_scan_dir+0x9a>

            case 2:
                dir = 4;
 800208c:	2304      	movs	r3, #4
 800208e:	71fb      	strb	r3, [r7, #7]
                break;
 8002090:	e00f      	b.n	80020b2 <lcd_scan_dir+0x9a>

            case 3:
                dir = 5;
 8002092:	2305      	movs	r3, #5
 8002094:	71fb      	strb	r3, [r7, #7]
                break;
 8002096:	e00c      	b.n	80020b2 <lcd_scan_dir+0x9a>

            case 4:
                dir = 1;
 8002098:	2301      	movs	r3, #1
 800209a:	71fb      	strb	r3, [r7, #7]
                break;
 800209c:	e009      	b.n	80020b2 <lcd_scan_dir+0x9a>

            case 5:
                dir = 0;
 800209e:	2300      	movs	r3, #0
 80020a0:	71fb      	strb	r3, [r7, #7]
                break;
 80020a2:	e006      	b.n	80020b2 <lcd_scan_dir+0x9a>

            case 6:
                dir = 3;
 80020a4:	2303      	movs	r3, #3
 80020a6:	71fb      	strb	r3, [r7, #7]
                break;
 80020a8:	e003      	b.n	80020b2 <lcd_scan_dir+0x9a>

            case 7:
                dir = 2;
 80020aa:	2302      	movs	r3, #2
 80020ac:	71fb      	strb	r3, [r7, #7]
                break;
 80020ae:	e000      	b.n	80020b2 <lcd_scan_dir+0x9a>
        }
    }
 80020b0:	bf00      	nop


    /* 根据扫描方式 设置 0x36/0x3600 寄存器 bit 5,6,7 位的值 */
    switch (dir)
 80020b2:	79fb      	ldrb	r3, [r7, #7]
 80020b4:	2b07      	cmp	r3, #7
 80020b6:	d836      	bhi.n	8002126 <lcd_scan_dir+0x10e>
 80020b8:	a201      	add	r2, pc, #4	; (adr r2, 80020c0 <lcd_scan_dir+0xa8>)
 80020ba:	f852 f023 	ldr.w	pc, [r2, r3, lsl #2]
 80020be:	bf00      	nop
 80020c0:	08002127 	.word	0x08002127
 80020c4:	080020e1 	.word	0x080020e1
 80020c8:	080020eb 	.word	0x080020eb
 80020cc:	080020f5 	.word	0x080020f5
 80020d0:	080020ff 	.word	0x080020ff
 80020d4:	08002109 	.word	0x08002109
 80020d8:	08002113 	.word	0x08002113
 80020dc:	0800211d 	.word	0x0800211d
        case L2R_U2D:/* 从左到右,从上到下 */
            regval |= (0 << 7) | (0 << 6) | (0 << 5);
            break;

        case L2R_D2U:/* 从左到右,从下到上 */
            regval |= (1 << 7) | (0 << 6) | (0 << 5);
 80020e0:	89fb      	ldrh	r3, [r7, #14]
 80020e2:	f043 0380 	orr.w	r3, r3, #128	; 0x80
 80020e6:	81fb      	strh	r3, [r7, #14]
            break;
 80020e8:	e01d      	b.n	8002126 <lcd_scan_dir+0x10e>

        case R2L_U2D:/* 从右到左,从上到下 */
            regval |= (0 << 7) | (1 << 6) | (0 << 5);
 80020ea:	89fb      	ldrh	r3, [r7, #14]
 80020ec:	f043 0340 	orr.w	r3, r3, #64	; 0x40
 80020f0:	81fb      	strh	r3, [r7, #14]
            break;
 80020f2:	e018      	b.n	8002126 <lcd_scan_dir+0x10e>

        case R2L_D2U:/* 从右到左,从下到上 */
            regval |= (1 << 7) | (1 << 6) | (0 << 5);
 80020f4:	89fb      	ldrh	r3, [r7, #14]
 80020f6:	f043 03c0 	orr.w	r3, r3, #192	; 0xc0
 80020fa:	81fb      	strh	r3, [r7, #14]
            break;
 80020fc:	e013      	b.n	8002126 <lcd_scan_dir+0x10e>

        case U2D_L2R:/* 从上到下,从左到右 */
            regval |= (0 << 7) | (0 << 6) | (1 << 5);
 80020fe:	89fb      	ldrh	r3, [r7, #14]
 8002100:	f043 0320 	orr.w	r3, r3, #32
 8002104:	81fb      	strh	r3, [r7, #14]
            break;
 8002106:	e00e      	b.n	8002126 <lcd_scan_dir+0x10e>

        case U2D_R2L:/* 从上到下,从右到左 */
            regval |= (0 << 7) | (1 << 6) | (1 << 5);
 8002108:	89fb      	ldrh	r3, [r7, #14]
 800210a:	f043 0360 	orr.w	r3, r3, #96	; 0x60
 800210e:	81fb      	strh	r3, [r7, #14]
            break;
 8002110:	e009      	b.n	8002126 <lcd_scan_dir+0x10e>

        case D2U_L2R:/* 从下到上,从左到右 */
            regval |= (1 << 7) | (0 << 6) | (1 << 5);
 8002112:	89fb      	ldrh	r3, [r7, #14]
 8002114:	f043 03a0 	orr.w	r3, r3, #160	; 0xa0
 8002118:	81fb      	strh	r3, [r7, #14]
            break;
 800211a:	e004      	b.n	8002126 <lcd_scan_dir+0x10e>

        case D2U_R2L:/* 从下到上,从右到左 */
            regval |= (1 << 7) | (1 << 6) | (1 << 5);
 800211c:	89fb      	ldrh	r3, [r7, #14]
 800211e:	f043 03e0 	orr.w	r3, r3, #224	; 0xe0
 8002122:	81fb      	strh	r3, [r7, #14]
            break;
 8002124:	bf00      	nop
    }

    dirreg = 0x36;  /* 对绝大部分驱动IC, 由0x36寄存器控制 */
 8002126:	2336      	movs	r3, #54	; 0x36
 8002128:	81bb      	strh	r3, [r7, #12]

    if (lcddev.id == 0x5510)
 800212a:	4b5a      	ldr	r3, [pc, #360]	; (8002294 <lcd_scan_dir+0x27c>)
 800212c:	889b      	ldrh	r3, [r3, #4]
 800212e:	f245 5210 	movw	r2, #21776	; 0x5510
 8002132:	4293      	cmp	r3, r2
 8002134:	d102      	bne.n	800213c <lcd_scan_dir+0x124>
    {
        dirreg = 0x3600;    /* 对于5510, 和其他驱动ic的寄存器有差异 */
 8002136:	f44f 5358 	mov.w	r3, #13824	; 0x3600
 800213a:	81bb      	strh	r3, [r7, #12]
    }

     /* 9341 & 7789 要设置BGR位 */
    if (lcddev.id == 0x9341 || lcddev.id == 0x7789)
 800213c:	4b55      	ldr	r3, [pc, #340]	; (8002294 <lcd_scan_dir+0x27c>)
 800213e:	889b      	ldrh	r3, [r3, #4]
 8002140:	f249 3241 	movw	r2, #37697	; 0x9341
 8002144:	4293      	cmp	r3, r2
 8002146:	d005      	beq.n	8002154 <lcd_scan_dir+0x13c>
 8002148:	4b52      	ldr	r3, [pc, #328]	; (8002294 <lcd_scan_dir+0x27c>)
 800214a:	889b      	ldrh	r3, [r3, #4]
 800214c:	f247 7289 	movw	r2, #30601	; 0x7789
 8002150:	4293      	cmp	r3, r2
 8002152:	d103      	bne.n	800215c <lcd_scan_dir+0x144>
    {
        regval |= 0x08;
 8002154:	89fb      	ldrh	r3, [r7, #14]
 8002156:	f043 0308 	orr.w	r3, r3, #8
 800215a:	81fb      	strh	r3, [r7, #14]
    }

    lcd_write_reg(dirreg, regval);
 800215c:	89fa      	ldrh	r2, [r7, #14]
 800215e:	89bb      	ldrh	r3, [r7, #12]
 8002160:	4611      	mov	r1, r2
 8002162:	4618      	mov	r0, r3
 8002164:	f7ff fe4a 	bl	8001dfc <lcd_write_reg>

    if (lcddev.id != 0x1963)                    /* 1963不做坐标处理 */
 8002168:	4b4a      	ldr	r3, [pc, #296]	; (8002294 <lcd_scan_dir+0x27c>)
 800216a:	889b      	ldrh	r3, [r3, #4]
 800216c:	f641 1263 	movw	r2, #6499	; 0x1963
 8002170:	4293      	cmp	r3, r2
 8002172:	d025      	beq.n	80021c0 <lcd_scan_dir+0x1a8>
    {
        if (regval & 0x20)
 8002174:	89fb      	ldrh	r3, [r7, #14]
 8002176:	f003 0320 	and.w	r3, r3, #32
 800217a:	2b00      	cmp	r3, #0
 800217c:	d010      	beq.n	80021a0 <lcd_scan_dir+0x188>
        {
            if (lcddev.width < lcddev.height)   /* 交换X,Y */
 800217e:	4b45      	ldr	r3, [pc, #276]	; (8002294 <lcd_scan_dir+0x27c>)
 8002180:	881a      	ldrh	r2, [r3, #0]
 8002182:	4b44      	ldr	r3, [pc, #272]	; (8002294 <lcd_scan_dir+0x27c>)
 8002184:	885b      	ldrh	r3, [r3, #2]
 8002186:	429a      	cmp	r2, r3
 8002188:	d21a      	bcs.n	80021c0 <lcd_scan_dir+0x1a8>
            {
                temp = lcddev.width;
 800218a:	4b42      	ldr	r3, [pc, #264]	; (8002294 <lcd_scan_dir+0x27c>)
 800218c:	881b      	ldrh	r3, [r3, #0]
 800218e:	817b      	strh	r3, [r7, #10]
                lcddev.width = lcddev.height;
 8002190:	4b40      	ldr	r3, [pc, #256]	; (8002294 <lcd_scan_dir+0x27c>)
 8002192:	885a      	ldrh	r2, [r3, #2]
 8002194:	4b3f      	ldr	r3, [pc, #252]	; (8002294 <lcd_scan_dir+0x27c>)
 8002196:	801a      	strh	r2, [r3, #0]
                lcddev.height = temp;
 8002198:	4a3e      	ldr	r2, [pc, #248]	; (8002294 <lcd_scan_dir+0x27c>)
 800219a:	897b      	ldrh	r3, [r7, #10]
 800219c:	8053      	strh	r3, [r2, #2]
 800219e:	e00f      	b.n	80021c0 <lcd_scan_dir+0x1a8>
            }
        }
        else
        {
            if (lcddev.width > lcddev.height)   /* 交换X,Y */
 80021a0:	4b3c      	ldr	r3, [pc, #240]	; (8002294 <lcd_scan_dir+0x27c>)
 80021a2:	881a      	ldrh	r2, [r3, #0]
 80021a4:	4b3b      	ldr	r3, [pc, #236]	; (8002294 <lcd_scan_dir+0x27c>)
 80021a6:	885b      	ldrh	r3, [r3, #2]
 80021a8:	429a      	cmp	r2, r3
 80021aa:	d909      	bls.n	80021c0 <lcd_scan_dir+0x1a8>
            {
                temp = lcddev.width;
 80021ac:	4b39      	ldr	r3, [pc, #228]	; (8002294 <lcd_scan_dir+0x27c>)
 80021ae:	881b      	ldrh	r3, [r3, #0]
 80021b0:	817b      	strh	r3, [r7, #10]
                lcddev.width = lcddev.height;
 80021b2:	4b38      	ldr	r3, [pc, #224]	; (8002294 <lcd_scan_dir+0x27c>)
 80021b4:	885a      	ldrh	r2, [r3, #2]
 80021b6:	4b37      	ldr	r3, [pc, #220]	; (8002294 <lcd_scan_dir+0x27c>)
 80021b8:	801a      	strh	r2, [r3, #0]
                lcddev.height = temp;
 80021ba:	4a36      	ldr	r2, [pc, #216]	; (8002294 <lcd_scan_dir+0x27c>)
 80021bc:	897b      	ldrh	r3, [r7, #10]
 80021be:	8053      	strh	r3, [r2, #2]
            }
        }
    }

    /* 设置显示区域(开窗)大小 */
    if (lcddev.id == 0x5510)
 80021c0:	4b34      	ldr	r3, [pc, #208]	; (8002294 <lcd_scan_dir+0x27c>)
 80021c2:	889b      	ldrh	r3, [r3, #4]
 80021c4:	f245 5210 	movw	r2, #21776	; 0x5510
 80021c8:	4293      	cmp	r3, r2
 80021ca:	d165      	bne.n	8002298 <lcd_scan_dir+0x280>
    {
        lcd_wr_regno(lcddev.setxcmd);
 80021cc:	4b31      	ldr	r3, [pc, #196]	; (8002294 <lcd_scan_dir+0x27c>)
 80021ce:	895b      	ldrh	r3, [r3, #10]
 80021d0:	4618      	mov	r0, r3
 80021d2:	f7ff fdff 	bl	8001dd4 <lcd_wr_regno>
        lcd_wr_data(0);
 80021d6:	2000      	movs	r0, #0
 80021d8:	f7ff fde8 	bl	8001dac <lcd_wr_data>
        lcd_wr_regno(lcddev.setxcmd + 1);
 80021dc:	4b2d      	ldr	r3, [pc, #180]	; (8002294 <lcd_scan_dir+0x27c>)
 80021de:	895b      	ldrh	r3, [r3, #10]
 80021e0:	3301      	adds	r3, #1
 80021e2:	b29b      	uxth	r3, r3
 80021e4:	4618      	mov	r0, r3
 80021e6:	f7ff fdf5 	bl	8001dd4 <lcd_wr_regno>
        lcd_wr_data(0);
 80021ea:	2000      	movs	r0, #0
 80021ec:	f7ff fdde 	bl	8001dac <lcd_wr_data>
        lcd_wr_regno(lcddev.setxcmd + 2);
 80021f0:	4b28      	ldr	r3, [pc, #160]	; (8002294 <lcd_scan_dir+0x27c>)
 80021f2:	895b      	ldrh	r3, [r3, #10]
 80021f4:	3302      	adds	r3, #2
 80021f6:	b29b      	uxth	r3, r3
 80021f8:	4618      	mov	r0, r3
 80021fa:	f7ff fdeb 	bl	8001dd4 <lcd_wr_regno>
        lcd_wr_data((lcddev.width - 1) >> 8);
 80021fe:	4b25      	ldr	r3, [pc, #148]	; (8002294 <lcd_scan_dir+0x27c>)
 8002200:	881b      	ldrh	r3, [r3, #0]
 8002202:	3b01      	subs	r3, #1
 8002204:	121b      	asrs	r3, r3, #8
 8002206:	b29b      	uxth	r3, r3
 8002208:	4618      	mov	r0, r3
 800220a:	f7ff fdcf 	bl	8001dac <lcd_wr_data>
        lcd_wr_regno(lcddev.setxcmd + 3);
 800220e:	4b21      	ldr	r3, [pc, #132]	; (8002294 <lcd_scan_dir+0x27c>)
 8002210:	895b      	ldrh	r3, [r3, #10]
 8002212:	3303      	adds	r3, #3
 8002214:	b29b      	uxth	r3, r3
 8002216:	4618      	mov	r0, r3
 8002218:	f7ff fddc 	bl	8001dd4 <lcd_wr_regno>
        lcd_wr_data((lcddev.width - 1) & 0xFF);
 800221c:	4b1d      	ldr	r3, [pc, #116]	; (8002294 <lcd_scan_dir+0x27c>)
 800221e:	881b      	ldrh	r3, [r3, #0]
 8002220:	3b01      	subs	r3, #1
 8002222:	b29b      	uxth	r3, r3
 8002224:	b2db      	uxtb	r3, r3
 8002226:	b29b      	uxth	r3, r3
 8002228:	4618      	mov	r0, r3
 800222a:	f7ff fdbf 	bl	8001dac <lcd_wr_data>
        lcd_wr_regno(lcddev.setycmd);
 800222e:	4b19      	ldr	r3, [pc, #100]	; (8002294 <lcd_scan_dir+0x27c>)
 8002230:	899b      	ldrh	r3, [r3, #12]
 8002232:	4618      	mov	r0, r3
 8002234:	f7ff fdce 	bl	8001dd4 <lcd_wr_regno>
        lcd_wr_data(0);
 8002238:	2000      	movs	r0, #0
 800223a:	f7ff fdb7 	bl	8001dac <lcd_wr_data>
        lcd_wr_regno(lcddev.setycmd + 1);
 800223e:	4b15      	ldr	r3, [pc, #84]	; (8002294 <lcd_scan_dir+0x27c>)
 8002240:	899b      	ldrh	r3, [r3, #12]
 8002242:	3301      	adds	r3, #1
 8002244:	b29b      	uxth	r3, r3
 8002246:	4618      	mov	r0, r3
 8002248:	f7ff fdc4 	bl	8001dd4 <lcd_wr_regno>
        lcd_wr_data(0);
 800224c:	2000      	movs	r0, #0
 800224e:	f7ff fdad 	bl	8001dac <lcd_wr_data>
        lcd_wr_regno(lcddev.setycmd + 2);
 8002252:	4b10      	ldr	r3, [pc, #64]	; (8002294 <lcd_scan_dir+0x27c>)
 8002254:	899b      	ldrh	r3, [r3, #12]
 8002256:	3302      	adds	r3, #2
 8002258:	b29b      	uxth	r3, r3
 800225a:	4618      	mov	r0, r3
 800225c:	f7ff fdba 	bl	8001dd4 <lcd_wr_regno>
        lcd_wr_data((lcddev.height - 1) >> 8);
 8002260:	4b0c      	ldr	r3, [pc, #48]	; (8002294 <lcd_scan_dir+0x27c>)
 8002262:	885b      	ldrh	r3, [r3, #2]
 8002264:	3b01      	subs	r3, #1
 8002266:	121b      	asrs	r3, r3, #8
 8002268:	b29b      	uxth	r3, r3
 800226a:	4618      	mov	r0, r3
 800226c:	f7ff fd9e 	bl	8001dac <lcd_wr_data>
        lcd_wr_regno(lcddev.setycmd + 3);
 8002270:	4b08      	ldr	r3, [pc, #32]	; (8002294 <lcd_scan_dir+0x27c>)
 8002272:	899b      	ldrh	r3, [r3, #12]
 8002274:	3303      	adds	r3, #3
 8002276:	b29b      	uxth	r3, r3
 8002278:	4618      	mov	r0, r3
 800227a:	f7ff fdab 	bl	8001dd4 <lcd_wr_regno>
        lcd_wr_data((lcddev.height - 1) & 0xFF);
 800227e:	4b05      	ldr	r3, [pc, #20]	; (8002294 <lcd_scan_dir+0x27c>)
 8002280:	885b      	ldrh	r3, [r3, #2]
 8002282:	3b01      	subs	r3, #1
 8002284:	b29b      	uxth	r3, r3
 8002286:	b2db      	uxtb	r3, r3
 8002288:	b29b      	uxth	r3, r3
 800228a:	4618      	mov	r0, r3
 800228c:	f7ff fd8e 	bl	8001dac <lcd_wr_data>
        lcd_wr_data(0);
        lcd_wr_data(0);
        lcd_wr_data((lcddev.height - 1) >> 8);
        lcd_wr_data((lcddev.height - 1) & 0xFF);
    }
}
 8002290:	e03a      	b.n	8002308 <lcd_scan_dir+0x2f0>
 8002292:	bf00      	nop
 8002294:	200005bc 	.word	0x200005bc
        lcd_wr_regno(lcddev.setxcmd);
 8002298:	4b1d      	ldr	r3, [pc, #116]	; (8002310 <lcd_scan_dir+0x2f8>)
 800229a:	895b      	ldrh	r3, [r3, #10]
 800229c:	4618      	mov	r0, r3
 800229e:	f7ff fd99 	bl	8001dd4 <lcd_wr_regno>
        lcd_wr_data(0);
 80022a2:	2000      	movs	r0, #0
 80022a4:	f7ff fd82 	bl	8001dac <lcd_wr_data>
        lcd_wr_data(0);
 80022a8:	2000      	movs	r0, #0
 80022aa:	f7ff fd7f 	bl	8001dac <lcd_wr_data>
        lcd_wr_data((lcddev.width - 1) >> 8);
 80022ae:	4b18      	ldr	r3, [pc, #96]	; (8002310 <lcd_scan_dir+0x2f8>)
 80022b0:	881b      	ldrh	r3, [r3, #0]
 80022b2:	3b01      	subs	r3, #1
 80022b4:	121b      	asrs	r3, r3, #8
 80022b6:	b29b      	uxth	r3, r3
 80022b8:	4618      	mov	r0, r3
 80022ba:	f7ff fd77 	bl	8001dac <lcd_wr_data>
        lcd_wr_data((lcddev.width - 1) & 0xFF);
 80022be:	4b14      	ldr	r3, [pc, #80]	; (8002310 <lcd_scan_dir+0x2f8>)
 80022c0:	881b      	ldrh	r3, [r3, #0]
 80022c2:	3b01      	subs	r3, #1
 80022c4:	b29b      	uxth	r3, r3
 80022c6:	b2db      	uxtb	r3, r3
 80022c8:	b29b      	uxth	r3, r3
 80022ca:	4618      	mov	r0, r3
 80022cc:	f7ff fd6e 	bl	8001dac <lcd_wr_data>
        lcd_wr_regno(lcddev.setycmd);
 80022d0:	4b0f      	ldr	r3, [pc, #60]	; (8002310 <lcd_scan_dir+0x2f8>)
 80022d2:	899b      	ldrh	r3, [r3, #12]
 80022d4:	4618      	mov	r0, r3
 80022d6:	f7ff fd7d 	bl	8001dd4 <lcd_wr_regno>
        lcd_wr_data(0);
 80022da:	2000      	movs	r0, #0
 80022dc:	f7ff fd66 	bl	8001dac <lcd_wr_data>
        lcd_wr_data(0);
 80022e0:	2000      	movs	r0, #0
 80022e2:	f7ff fd63 	bl	8001dac <lcd_wr_data>
        lcd_wr_data((lcddev.height - 1) >> 8);
 80022e6:	4b0a      	ldr	r3, [pc, #40]	; (8002310 <lcd_scan_dir+0x2f8>)
 80022e8:	885b      	ldrh	r3, [r3, #2]
 80022ea:	3b01      	subs	r3, #1
 80022ec:	121b      	asrs	r3, r3, #8
 80022ee:	b29b      	uxth	r3, r3
 80022f0:	4618      	mov	r0, r3
 80022f2:	f7ff fd5b 	bl	8001dac <lcd_wr_data>
        lcd_wr_data((lcddev.height - 1) & 0xFF);
 80022f6:	4b06      	ldr	r3, [pc, #24]	; (8002310 <lcd_scan_dir+0x2f8>)
 80022f8:	885b      	ldrh	r3, [r3, #2]
 80022fa:	3b01      	subs	r3, #1
 80022fc:	b29b      	uxth	r3, r3
 80022fe:	b2db      	uxtb	r3, r3
 8002300:	b29b      	uxth	r3, r3
 8002302:	4618      	mov	r0, r3
 8002304:	f7ff fd52 	bl	8001dac <lcd_wr_data>
}
 8002308:	bf00      	nop
 800230a:	3710      	adds	r7, #16
 800230c:	46bd      	mov	sp, r7
 800230e:	bd80      	pop	{r7, pc}
 8002310:	200005bc 	.word	0x200005bc

08002314 <lcd_draw_point>:
 * @param       x,y: 坐标
 * @param       color: 点的颜色(32位颜色,方便兼容LTDC)
 * @retval      无
 */
void lcd_draw_point(uint16_t x, uint16_t y, uint32_t color)
{
 8002314:	b580      	push	{r7, lr}
 8002316:	b082      	sub	sp, #8
 8002318:	af00      	add	r7, sp, #0
 800231a:	4603      	mov	r3, r0
 800231c:	603a      	str	r2, [r7, #0]
 800231e:	80fb      	strh	r3, [r7, #6]
 8002320:	460b      	mov	r3, r1
 8002322:	80bb      	strh	r3, [r7, #4]
    lcd_set_cursor(x, y);       /* 设置光标位置 */
 8002324:	88ba      	ldrh	r2, [r7, #4]
 8002326:	88fb      	ldrh	r3, [r7, #6]
 8002328:	4611      	mov	r1, r2
 800232a:	4618      	mov	r0, r3
 800232c:	f7ff fd9e 	bl	8001e6c <lcd_set_cursor>
    lcd_write_ram_prepare();    /* 开始写入GRAM */
 8002330:	f7ff fd8c 	bl	8001e4c <lcd_write_ram_prepare>
    LCD->LCD_RAM = color;
 8002334:	4b03      	ldr	r3, [pc, #12]	; (8002344 <lcd_draw_point+0x30>)
 8002336:	683a      	ldr	r2, [r7, #0]
 8002338:	b292      	uxth	r2, r2
 800233a:	805a      	strh	r2, [r3, #2]
}
 800233c:	bf00      	nop
 800233e:	3708      	adds	r7, #8
 8002340:	46bd      	mov	sp, r7
 8002342:	bd80      	pop	{r7, pc}
 8002344:	6c00007e 	.word	0x6c00007e

08002348 <lcd_ssd_backlight_set>:
 * @brief       SSD1963背光亮度设置函数
 * @param       pwm: 背光等级,0~100.越大越亮.
 * @retval      无
 */
void lcd_ssd_backlight_set(uint8_t pwm)
{
 8002348:	b580      	push	{r7, lr}
 800234a:	b082      	sub	sp, #8
 800234c:	af00      	add	r7, sp, #0
 800234e:	4603      	mov	r3, r0
 8002350:	71fb      	strb	r3, [r7, #7]
    lcd_wr_regno(0xBE);         /* 配置PWM输出 */
 8002352:	20be      	movs	r0, #190	; 0xbe
 8002354:	f7ff fd3e 	bl	8001dd4 <lcd_wr_regno>
    lcd_wr_data(0x05);          /* 1设置PWM频率 */
 8002358:	2005      	movs	r0, #5
 800235a:	f7ff fd27 	bl	8001dac <lcd_wr_data>
    lcd_wr_data(pwm * 2.55);    /* 2设置PWM占空比 */
 800235e:	79fb      	ldrb	r3, [r7, #7]
 8002360:	4618      	mov	r0, r3
 8002362:	f7fe f8df 	bl	8000524 <__aeabi_i2d>
 8002366:	a310      	add	r3, pc, #64	; (adr r3, 80023a8 <lcd_ssd_backlight_set+0x60>)
 8002368:	e9d3 2300 	ldrd	r2, r3, [r3]
 800236c:	f7fe f944 	bl	80005f8 <__aeabi_dmul>
 8002370:	4602      	mov	r2, r0
 8002372:	460b      	mov	r3, r1
 8002374:	4610      	mov	r0, r2
 8002376:	4619      	mov	r1, r3
 8002378:	f7fe fc16 	bl	8000ba8 <__aeabi_d2uiz>
 800237c:	4603      	mov	r3, r0
 800237e:	b29b      	uxth	r3, r3
 8002380:	4618      	mov	r0, r3
 8002382:	f7ff fd13 	bl	8001dac <lcd_wr_data>
    lcd_wr_data(0x01);          /* 3设置C */
 8002386:	2001      	movs	r0, #1
 8002388:	f7ff fd10 	bl	8001dac <lcd_wr_data>
    lcd_wr_data(0xFF);          /* 4设置D */
 800238c:	20ff      	movs	r0, #255	; 0xff
 800238e:	f7ff fd0d 	bl	8001dac <lcd_wr_data>
    lcd_wr_data(0x00);          /* 5设置E */
 8002392:	2000      	movs	r0, #0
 8002394:	f7ff fd0a 	bl	8001dac <lcd_wr_data>
    lcd_wr_data(0x00);          /* 6设置F */
 8002398:	2000      	movs	r0, #0
 800239a:	f7ff fd07 	bl	8001dac <lcd_wr_data>
}
 800239e:	bf00      	nop
 80023a0:	3708      	adds	r7, #8
 80023a2:	46bd      	mov	sp, r7
 80023a4:	bd80      	pop	{r7, pc}
 80023a6:	bf00      	nop
 80023a8:	66666666 	.word	0x66666666
 80023ac:	40046666 	.word	0x40046666

080023b0 <lcd_display_dir>:
 * @brief       设置LCD显示方向
 * @param       dir:0,竖屏; 1,横屏
 * @retval      无
 */
void lcd_display_dir(uint8_t dir)
{
 80023b0:	b580      	push	{r7, lr}
 80023b2:	b082      	sub	sp, #8
 80023b4:	af00      	add	r7, sp, #0
 80023b6:	4603      	mov	r3, r0
 80023b8:	71fb      	strb	r3, [r7, #7]
    lcddev.dir = dir;   /* 竖屏/横屏 */
 80023ba:	4a58      	ldr	r2, [pc, #352]	; (800251c <lcd_display_dir+0x16c>)
 80023bc:	79fb      	ldrb	r3, [r7, #7]
 80023be:	7193      	strb	r3, [r2, #6]

    if (dir == 0)       /* 竖屏 */
 80023c0:	79fb      	ldrb	r3, [r7, #7]
 80023c2:	2b00      	cmp	r3, #0
 80023c4:	d151      	bne.n	800246a <lcd_display_dir+0xba>
    {
        lcddev.width = 240;
 80023c6:	4b55      	ldr	r3, [pc, #340]	; (800251c <lcd_display_dir+0x16c>)
 80023c8:	22f0      	movs	r2, #240	; 0xf0
 80023ca:	801a      	strh	r2, [r3, #0]
        lcddev.height = 320;
 80023cc:	4b53      	ldr	r3, [pc, #332]	; (800251c <lcd_display_dir+0x16c>)
 80023ce:	f44f 72a0 	mov.w	r2, #320	; 0x140
 80023d2:	805a      	strh	r2, [r3, #2]

        if (lcddev.id == 0x5510)
 80023d4:	4b51      	ldr	r3, [pc, #324]	; (800251c <lcd_display_dir+0x16c>)
 80023d6:	889b      	ldrh	r3, [r3, #4]
 80023d8:	f245 5210 	movw	r2, #21776	; 0x5510
 80023dc:	4293      	cmp	r3, r2
 80023de:	d114      	bne.n	800240a <lcd_display_dir+0x5a>
        {
            lcddev.wramcmd = 0x2C00;
 80023e0:	4b4e      	ldr	r3, [pc, #312]	; (800251c <lcd_display_dir+0x16c>)
 80023e2:	f44f 5230 	mov.w	r2, #11264	; 0x2c00
 80023e6:	811a      	strh	r2, [r3, #8]
            lcddev.setxcmd = 0x2A00;
 80023e8:	4b4c      	ldr	r3, [pc, #304]	; (800251c <lcd_display_dir+0x16c>)
 80023ea:	f44f 5228 	mov.w	r2, #10752	; 0x2a00
 80023ee:	815a      	strh	r2, [r3, #10]
            lcddev.setycmd = 0x2B00;
 80023f0:	4b4a      	ldr	r3, [pc, #296]	; (800251c <lcd_display_dir+0x16c>)
 80023f2:	f44f 522c 	mov.w	r2, #11008	; 0x2b00
 80023f6:	819a      	strh	r2, [r3, #12]
            lcddev.width = 480;
 80023f8:	4b48      	ldr	r3, [pc, #288]	; (800251c <lcd_display_dir+0x16c>)
 80023fa:	f44f 72f0 	mov.w	r2, #480	; 0x1e0
 80023fe:	801a      	strh	r2, [r3, #0]
            lcddev.height = 800;
 8002400:	4b46      	ldr	r3, [pc, #280]	; (800251c <lcd_display_dir+0x16c>)
 8002402:	f44f 7248 	mov.w	r2, #800	; 0x320
 8002406:	805a      	strh	r2, [r3, #2]
 8002408:	e020      	b.n	800244c <lcd_display_dir+0x9c>
        }
        else if (lcddev.id == 0x1963)
 800240a:	4b44      	ldr	r3, [pc, #272]	; (800251c <lcd_display_dir+0x16c>)
 800240c:	889b      	ldrh	r3, [r3, #4]
 800240e:	f641 1263 	movw	r2, #6499	; 0x1963
 8002412:	4293      	cmp	r3, r2
 8002414:	d111      	bne.n	800243a <lcd_display_dir+0x8a>
        {
            lcddev.wramcmd = 0x2C;  /* 设置写入GRAM的指令 */
 8002416:	4b41      	ldr	r3, [pc, #260]	; (800251c <lcd_display_dir+0x16c>)
 8002418:	222c      	movs	r2, #44	; 0x2c
 800241a:	811a      	strh	r2, [r3, #8]
            lcddev.setxcmd = 0x2B;  /* 设置写X坐标指令 */
 800241c:	4b3f      	ldr	r3, [pc, #252]	; (800251c <lcd_display_dir+0x16c>)
 800241e:	222b      	movs	r2, #43	; 0x2b
 8002420:	815a      	strh	r2, [r3, #10]
            lcddev.setycmd = 0x2A;  /* 设置写Y坐标指令 */
 8002422:	4b3e      	ldr	r3, [pc, #248]	; (800251c <lcd_display_dir+0x16c>)
 8002424:	222a      	movs	r2, #42	; 0x2a
 8002426:	819a      	strh	r2, [r3, #12]
            lcddev.width = 480;     /* 设置宽度480 */
 8002428:	4b3c      	ldr	r3, [pc, #240]	; (800251c <lcd_display_dir+0x16c>)
 800242a:	f44f 72f0 	mov.w	r2, #480	; 0x1e0
 800242e:	801a      	strh	r2, [r3, #0]
            lcddev.height = 800;    /* 设置高度800 */
 8002430:	4b3a      	ldr	r3, [pc, #232]	; (800251c <lcd_display_dir+0x16c>)
 8002432:	f44f 7248 	mov.w	r2, #800	; 0x320
 8002436:	805a      	strh	r2, [r3, #2]
 8002438:	e008      	b.n	800244c <lcd_display_dir+0x9c>
        }
        else   /* 其他IC, 包括: 9341 / 5310 / 7789等IC */
        {
            lcddev.wramcmd = 0x2C;
 800243a:	4b38      	ldr	r3, [pc, #224]	; (800251c <lcd_display_dir+0x16c>)
 800243c:	222c      	movs	r2, #44	; 0x2c
 800243e:	811a      	strh	r2, [r3, #8]
            lcddev.setxcmd = 0x2A;
 8002440:	4b36      	ldr	r3, [pc, #216]	; (800251c <lcd_display_dir+0x16c>)
 8002442:	222a      	movs	r2, #42	; 0x2a
 8002444:	815a      	strh	r2, [r3, #10]
            lcddev.setycmd = 0x2B;
 8002446:	4b35      	ldr	r3, [pc, #212]	; (800251c <lcd_display_dir+0x16c>)
 8002448:	222b      	movs	r2, #43	; 0x2b
 800244a:	819a      	strh	r2, [r3, #12]
        }

        if (lcddev.id == 0x5310)    /* 如果是5310 则表示是 320*480分辨率 */
 800244c:	4b33      	ldr	r3, [pc, #204]	; (800251c <lcd_display_dir+0x16c>)
 800244e:	889b      	ldrh	r3, [r3, #4]
 8002450:	f245 3210 	movw	r2, #21264	; 0x5310
 8002454:	4293      	cmp	r3, r2
 8002456:	d159      	bne.n	800250c <lcd_display_dir+0x15c>
        {
            lcddev.width = 320;
 8002458:	4b30      	ldr	r3, [pc, #192]	; (800251c <lcd_display_dir+0x16c>)
 800245a:	f44f 72a0 	mov.w	r2, #320	; 0x140
 800245e:	801a      	strh	r2, [r3, #0]
            lcddev.height = 480;
 8002460:	4b2e      	ldr	r3, [pc, #184]	; (800251c <lcd_display_dir+0x16c>)
 8002462:	f44f 72f0 	mov.w	r2, #480	; 0x1e0
 8002466:	805a      	strh	r2, [r3, #2]
 8002468:	e050      	b.n	800250c <lcd_display_dir+0x15c>
        }         
    }/*dir = 0*/
    else        /* 横屏 */
    {
        lcddev.width = 320;         /* 默认宽度 */
 800246a:	4b2c      	ldr	r3, [pc, #176]	; (800251c <lcd_display_dir+0x16c>)
 800246c:	f44f 72a0 	mov.w	r2, #320	; 0x140
 8002470:	801a      	strh	r2, [r3, #0]
        lcddev.height = 240;        /* 默认高度 */
 8002472:	4b2a      	ldr	r3, [pc, #168]	; (800251c <lcd_display_dir+0x16c>)
 8002474:	22f0      	movs	r2, #240	; 0xf0
 8002476:	805a      	strh	r2, [r3, #2]

        if (lcddev.id == 0x5510)
 8002478:	4b28      	ldr	r3, [pc, #160]	; (800251c <lcd_display_dir+0x16c>)
 800247a:	889b      	ldrh	r3, [r3, #4]
 800247c:	f245 5210 	movw	r2, #21776	; 0x5510
 8002480:	4293      	cmp	r3, r2
 8002482:	d114      	bne.n	80024ae <lcd_display_dir+0xfe>
        {
            lcddev.wramcmd = 0x2C00;
 8002484:	4b25      	ldr	r3, [pc, #148]	; (800251c <lcd_display_dir+0x16c>)
 8002486:	f44f 5230 	mov.w	r2, #11264	; 0x2c00
 800248a:	811a      	strh	r2, [r3, #8]
            lcddev.setxcmd = 0x2A00;
 800248c:	4b23      	ldr	r3, [pc, #140]	; (800251c <lcd_display_dir+0x16c>)
 800248e:	f44f 5228 	mov.w	r2, #10752	; 0x2a00
 8002492:	815a      	strh	r2, [r3, #10]
            lcddev.setycmd = 0x2B00;
 8002494:	4b21      	ldr	r3, [pc, #132]	; (800251c <lcd_display_dir+0x16c>)
 8002496:	f44f 522c 	mov.w	r2, #11008	; 0x2b00
 800249a:	819a      	strh	r2, [r3, #12]
            lcddev.width = 800;
 800249c:	4b1f      	ldr	r3, [pc, #124]	; (800251c <lcd_display_dir+0x16c>)
 800249e:	f44f 7248 	mov.w	r2, #800	; 0x320
 80024a2:	801a      	strh	r2, [r3, #0]
            lcddev.height = 480;
 80024a4:	4b1d      	ldr	r3, [pc, #116]	; (800251c <lcd_display_dir+0x16c>)
 80024a6:	f44f 72f0 	mov.w	r2, #480	; 0x1e0
 80024aa:	805a      	strh	r2, [r3, #2]
 80024ac:	e020      	b.n	80024f0 <lcd_display_dir+0x140>
        }
        else if (lcddev.id == 0x1963)
 80024ae:	4b1b      	ldr	r3, [pc, #108]	; (800251c <lcd_display_dir+0x16c>)
 80024b0:	889b      	ldrh	r3, [r3, #4]
 80024b2:	f641 1263 	movw	r2, #6499	; 0x1963
 80024b6:	4293      	cmp	r3, r2
 80024b8:	d111      	bne.n	80024de <lcd_display_dir+0x12e>
        {
            lcddev.wramcmd = 0x2C;  /* 设置写入GRAM的指令 */
 80024ba:	4b18      	ldr	r3, [pc, #96]	; (800251c <lcd_display_dir+0x16c>)
 80024bc:	222c      	movs	r2, #44	; 0x2c
 80024be:	811a      	strh	r2, [r3, #8]
            lcddev.setxcmd = 0x2A;  /* 设置写X坐标指令 */
 80024c0:	4b16      	ldr	r3, [pc, #88]	; (800251c <lcd_display_dir+0x16c>)
 80024c2:	222a      	movs	r2, #42	; 0x2a
 80024c4:	815a      	strh	r2, [r3, #10]
            lcddev.setycmd = 0x2B;  /* 设置写Y坐标指令 */
 80024c6:	4b15      	ldr	r3, [pc, #84]	; (800251c <lcd_display_dir+0x16c>)
 80024c8:	222b      	movs	r2, #43	; 0x2b
 80024ca:	819a      	strh	r2, [r3, #12]
            lcddev.width = 800;     /* 设置宽度800 */
 80024cc:	4b13      	ldr	r3, [pc, #76]	; (800251c <lcd_display_dir+0x16c>)
 80024ce:	f44f 7248 	mov.w	r2, #800	; 0x320
 80024d2:	801a      	strh	r2, [r3, #0]
            lcddev.height = 480;    /* 设置高度480 */
 80024d4:	4b11      	ldr	r3, [pc, #68]	; (800251c <lcd_display_dir+0x16c>)
 80024d6:	f44f 72f0 	mov.w	r2, #480	; 0x1e0
 80024da:	805a      	strh	r2, [r3, #2]
 80024dc:	e008      	b.n	80024f0 <lcd_display_dir+0x140>
        }
        else   /* 其他IC, 包括:9341/5310/7789等IC */
        {
            lcddev.wramcmd = 0x2C;
 80024de:	4b0f      	ldr	r3, [pc, #60]	; (800251c <lcd_display_dir+0x16c>)
 80024e0:	222c      	movs	r2, #44	; 0x2c
 80024e2:	811a      	strh	r2, [r3, #8]
            lcddev.setxcmd = 0x2A;
 80024e4:	4b0d      	ldr	r3, [pc, #52]	; (800251c <lcd_display_dir+0x16c>)
 80024e6:	222a      	movs	r2, #42	; 0x2a
 80024e8:	815a      	strh	r2, [r3, #10]
            lcddev.setycmd = 0x2B;
 80024ea:	4b0c      	ldr	r3, [pc, #48]	; (800251c <lcd_display_dir+0x16c>)
 80024ec:	222b      	movs	r2, #43	; 0x2b
 80024ee:	819a      	strh	r2, [r3, #12]
        }

        if (lcddev.id == 0x5310)
 80024f0:	4b0a      	ldr	r3, [pc, #40]	; (800251c <lcd_display_dir+0x16c>)
 80024f2:	889b      	ldrh	r3, [r3, #4]
 80024f4:	f245 3210 	movw	r2, #21264	; 0x5310
 80024f8:	4293      	cmp	r3, r2
 80024fa:	d107      	bne.n	800250c <lcd_display_dir+0x15c>
        {
            lcddev.width = 480;
 80024fc:	4b07      	ldr	r3, [pc, #28]	; (800251c <lcd_display_dir+0x16c>)
 80024fe:	f44f 72f0 	mov.w	r2, #480	; 0x1e0
 8002502:	801a      	strh	r2, [r3, #0]
            lcddev.height = 320;
 8002504:	4b05      	ldr	r3, [pc, #20]	; (800251c <lcd_display_dir+0x16c>)
 8002506:	f44f 72a0 	mov.w	r2, #320	; 0x140
 800250a:	805a      	strh	r2, [r3, #2]
        }
    }

    lcd_scan_dir(DFT_SCAN_DIR);     /* 默认扫描方向 */
 800250c:	2000      	movs	r0, #0
 800250e:	f7ff fd83 	bl	8002018 <lcd_scan_dir>
}
 8002512:	bf00      	nop
 8002514:	3708      	adds	r7, #8
 8002516:	46bd      	mov	sp, r7
 8002518:	bd80      	pop	{r7, pc}
 800251a:	bf00      	nop
 800251c:	200005bc 	.word	0x200005bc

08002520 <lcd_init>:
 *
 * @param       无
 * @retval      无
 */
void lcd_init(void)
{
 8002520:	b580      	push	{r7, lr}
 8002522:	b088      	sub	sp, #32
 8002524:	af00      	add	r7, sp, #0
    FSMC_NORSRAM_TimingTypeDef fsmc_write_handle;


    /* 尝试9341 ID的读取 */
    lcd_wr_regno(0xD3);
 8002526:	20d3      	movs	r0, #211	; 0xd3
 8002528:	f7ff fc54 	bl	8001dd4 <lcd_wr_regno>
    lcddev.id = lcd_rd_data();  /* dummy read */
 800252c:	f7ff fc7c 	bl	8001e28 <lcd_rd_data>
 8002530:	4603      	mov	r3, r0
 8002532:	461a      	mov	r2, r3
 8002534:	4b89      	ldr	r3, [pc, #548]	; (800275c <lcd_init+0x23c>)
 8002536:	809a      	strh	r2, [r3, #4]
    lcddev.id = lcd_rd_data();  /* 读到0x00 */
 8002538:	f7ff fc76 	bl	8001e28 <lcd_rd_data>
 800253c:	4603      	mov	r3, r0
 800253e:	461a      	mov	r2, r3
 8002540:	4b86      	ldr	r3, [pc, #536]	; (800275c <lcd_init+0x23c>)
 8002542:	809a      	strh	r2, [r3, #4]
    lcddev.id = lcd_rd_data();  /* 读取93 */
 8002544:	f7ff fc70 	bl	8001e28 <lcd_rd_data>
 8002548:	4603      	mov	r3, r0
 800254a:	461a      	mov	r2, r3
 800254c:	4b83      	ldr	r3, [pc, #524]	; (800275c <lcd_init+0x23c>)
 800254e:	809a      	strh	r2, [r3, #4]
    lcddev.id <<= 8;
 8002550:	4b82      	ldr	r3, [pc, #520]	; (800275c <lcd_init+0x23c>)
 8002552:	889b      	ldrh	r3, [r3, #4]
 8002554:	021b      	lsls	r3, r3, #8
 8002556:	b29a      	uxth	r2, r3
 8002558:	4b80      	ldr	r3, [pc, #512]	; (800275c <lcd_init+0x23c>)
 800255a:	809a      	strh	r2, [r3, #4]
    lcddev.id |= lcd_rd_data(); /* 读取41 */
 800255c:	f7ff fc64 	bl	8001e28 <lcd_rd_data>
 8002560:	4603      	mov	r3, r0
 8002562:	461a      	mov	r2, r3
 8002564:	4b7d      	ldr	r3, [pc, #500]	; (800275c <lcd_init+0x23c>)
 8002566:	889b      	ldrh	r3, [r3, #4]
 8002568:	4313      	orrs	r3, r2
 800256a:	b29a      	uxth	r2, r3
 800256c:	4b7b      	ldr	r3, [pc, #492]	; (800275c <lcd_init+0x23c>)
 800256e:	809a      	strh	r2, [r3, #4]

    if (lcddev.id != 0x9341)    /* 不是 9341 , 尝试看看是不是 ST7789 */
 8002570:	4b7a      	ldr	r3, [pc, #488]	; (800275c <lcd_init+0x23c>)
 8002572:	889b      	ldrh	r3, [r3, #4]
 8002574:	f249 3241 	movw	r2, #37697	; 0x9341
 8002578:	4293      	cmp	r3, r2
 800257a:	f000 80ca 	beq.w	8002712 <lcd_init+0x1f2>
    {
        lcd_wr_regno(0x04);
 800257e:	2004      	movs	r0, #4
 8002580:	f7ff fc28 	bl	8001dd4 <lcd_wr_regno>
        lcddev.id = lcd_rd_data();      /* dummy read */
 8002584:	f7ff fc50 	bl	8001e28 <lcd_rd_data>
 8002588:	4603      	mov	r3, r0
 800258a:	461a      	mov	r2, r3
 800258c:	4b73      	ldr	r3, [pc, #460]	; (800275c <lcd_init+0x23c>)
 800258e:	809a      	strh	r2, [r3, #4]
        lcddev.id = lcd_rd_data();      /* 读到0x85 */
 8002590:	f7ff fc4a 	bl	8001e28 <lcd_rd_data>
 8002594:	4603      	mov	r3, r0
 8002596:	461a      	mov	r2, r3
 8002598:	4b70      	ldr	r3, [pc, #448]	; (800275c <lcd_init+0x23c>)
 800259a:	809a      	strh	r2, [r3, #4]
        lcddev.id = lcd_rd_data();      /* 读取0x85 */
 800259c:	f7ff fc44 	bl	8001e28 <lcd_rd_data>
 80025a0:	4603      	mov	r3, r0
 80025a2:	461a      	mov	r2, r3
 80025a4:	4b6d      	ldr	r3, [pc, #436]	; (800275c <lcd_init+0x23c>)
 80025a6:	809a      	strh	r2, [r3, #4]
        lcddev.id <<= 8;
 80025a8:	4b6c      	ldr	r3, [pc, #432]	; (800275c <lcd_init+0x23c>)
 80025aa:	889b      	ldrh	r3, [r3, #4]
 80025ac:	021b      	lsls	r3, r3, #8
 80025ae:	b29a      	uxth	r2, r3
 80025b0:	4b6a      	ldr	r3, [pc, #424]	; (800275c <lcd_init+0x23c>)
 80025b2:	809a      	strh	r2, [r3, #4]
        lcddev.id |= lcd_rd_data();     /* 读取0x52 */
 80025b4:	f7ff fc38 	bl	8001e28 <lcd_rd_data>
 80025b8:	4603      	mov	r3, r0
 80025ba:	461a      	mov	r2, r3
 80025bc:	4b67      	ldr	r3, [pc, #412]	; (800275c <lcd_init+0x23c>)
 80025be:	889b      	ldrh	r3, [r3, #4]
 80025c0:	4313      	orrs	r3, r2
 80025c2:	b29a      	uxth	r2, r3
 80025c4:	4b65      	ldr	r3, [pc, #404]	; (800275c <lcd_init+0x23c>)
 80025c6:	809a      	strh	r2, [r3, #4]
        
        if (lcddev.id == 0x8552)        /* 将8552的ID转换成7789 */
 80025c8:	4b64      	ldr	r3, [pc, #400]	; (800275c <lcd_init+0x23c>)
 80025ca:	889b      	ldrh	r3, [r3, #4]
 80025cc:	f248 5252 	movw	r2, #34130	; 0x8552
 80025d0:	4293      	cmp	r3, r2
 80025d2:	d103      	bne.n	80025dc <lcd_init+0xbc>
        {
            lcddev.id = 0x7789;
 80025d4:	4b61      	ldr	r3, [pc, #388]	; (800275c <lcd_init+0x23c>)
 80025d6:	f247 7289 	movw	r2, #30601	; 0x7789
 80025da:	809a      	strh	r2, [r3, #4]
        }

        if (lcddev.id != 0x7789)        /* 也不是ST7789, 尝试是不是 NT35310 */
 80025dc:	4b5f      	ldr	r3, [pc, #380]	; (800275c <lcd_init+0x23c>)
 80025de:	889b      	ldrh	r3, [r3, #4]
 80025e0:	f247 7289 	movw	r2, #30601	; 0x7789
 80025e4:	4293      	cmp	r3, r2
 80025e6:	f000 8094 	beq.w	8002712 <lcd_init+0x1f2>
        {
            lcd_wr_regno(0xD4);
 80025ea:	20d4      	movs	r0, #212	; 0xd4
 80025ec:	f7ff fbf2 	bl	8001dd4 <lcd_wr_regno>
            lcddev.id = lcd_rd_data();  /* dummy read */
 80025f0:	f7ff fc1a 	bl	8001e28 <lcd_rd_data>
 80025f4:	4603      	mov	r3, r0
 80025f6:	461a      	mov	r2, r3
 80025f8:	4b58      	ldr	r3, [pc, #352]	; (800275c <lcd_init+0x23c>)
 80025fa:	809a      	strh	r2, [r3, #4]
            lcddev.id = lcd_rd_data();  /* 读回0x01 */
 80025fc:	f7ff fc14 	bl	8001e28 <lcd_rd_data>
 8002600:	4603      	mov	r3, r0
 8002602:	461a      	mov	r2, r3
 8002604:	4b55      	ldr	r3, [pc, #340]	; (800275c <lcd_init+0x23c>)
 8002606:	809a      	strh	r2, [r3, #4]
            lcddev.id = lcd_rd_data();  /* 读回0x53 */
 8002608:	f7ff fc0e 	bl	8001e28 <lcd_rd_data>
 800260c:	4603      	mov	r3, r0
 800260e:	461a      	mov	r2, r3
 8002610:	4b52      	ldr	r3, [pc, #328]	; (800275c <lcd_init+0x23c>)
 8002612:	809a      	strh	r2, [r3, #4]
            lcddev.id <<= 8;
 8002614:	4b51      	ldr	r3, [pc, #324]	; (800275c <lcd_init+0x23c>)
 8002616:	889b      	ldrh	r3, [r3, #4]
 8002618:	021b      	lsls	r3, r3, #8
 800261a:	b29a      	uxth	r2, r3
 800261c:	4b4f      	ldr	r3, [pc, #316]	; (800275c <lcd_init+0x23c>)
 800261e:	809a      	strh	r2, [r3, #4]
            lcddev.id |= lcd_rd_data(); /* 这里读回0x10 */
 8002620:	f7ff fc02 	bl	8001e28 <lcd_rd_data>
 8002624:	4603      	mov	r3, r0
 8002626:	461a      	mov	r2, r3
 8002628:	4b4c      	ldr	r3, [pc, #304]	; (800275c <lcd_init+0x23c>)
 800262a:	889b      	ldrh	r3, [r3, #4]
 800262c:	4313      	orrs	r3, r2
 800262e:	b29a      	uxth	r2, r3
 8002630:	4b4a      	ldr	r3, [pc, #296]	; (800275c <lcd_init+0x23c>)
 8002632:	809a      	strh	r2, [r3, #4]

            if (lcddev.id != 0x5310)    /* 也不是NT35310,尝试看看是不是NT35510 */
 8002634:	4b49      	ldr	r3, [pc, #292]	; (800275c <lcd_init+0x23c>)
 8002636:	889b      	ldrh	r3, [r3, #4]
 8002638:	f245 3210 	movw	r2, #21264	; 0x5310
 800263c:	4293      	cmp	r3, r2
 800263e:	d068      	beq.n	8002712 <lcd_init+0x1f2>
            {
                /* 发送密钥（厂家提供） */
                lcd_write_reg(0xF000, 0x0055);
 8002640:	2155      	movs	r1, #85	; 0x55
 8002642:	f44f 4070 	mov.w	r0, #61440	; 0xf000
 8002646:	f7ff fbd9 	bl	8001dfc <lcd_write_reg>
                lcd_write_reg(0xF001, 0x00AA);
 800264a:	21aa      	movs	r1, #170	; 0xaa
 800264c:	f24f 0001 	movw	r0, #61441	; 0xf001
 8002650:	f7ff fbd4 	bl	8001dfc <lcd_write_reg>
                lcd_write_reg(0xF002, 0x0052);
 8002654:	2152      	movs	r1, #82	; 0x52
 8002656:	f24f 0002 	movw	r0, #61442	; 0xf002
 800265a:	f7ff fbcf 	bl	8001dfc <lcd_write_reg>
                lcd_write_reg(0xF003, 0x0008);
 800265e:	2108      	movs	r1, #8
 8002660:	f24f 0003 	movw	r0, #61443	; 0xf003
 8002664:	f7ff fbca 	bl	8001dfc <lcd_write_reg>
                lcd_write_reg(0xF004, 0x0001);
 8002668:	2101      	movs	r1, #1
 800266a:	f24f 0004 	movw	r0, #61444	; 0xf004
 800266e:	f7ff fbc5 	bl	8001dfc <lcd_write_reg>
                
                lcd_wr_regno(0xC500);       /* 读取ID低八位 */
 8002672:	f44f 4045 	mov.w	r0, #50432	; 0xc500
 8002676:	f7ff fbad 	bl	8001dd4 <lcd_wr_regno>
                lcddev.id = lcd_rd_data();  /* 读回0x80 */
 800267a:	f7ff fbd5 	bl	8001e28 <lcd_rd_data>
 800267e:	4603      	mov	r3, r0
 8002680:	461a      	mov	r2, r3
 8002682:	4b36      	ldr	r3, [pc, #216]	; (800275c <lcd_init+0x23c>)
 8002684:	809a      	strh	r2, [r3, #4]
                lcddev.id <<= 8;
 8002686:	4b35      	ldr	r3, [pc, #212]	; (800275c <lcd_init+0x23c>)
 8002688:	889b      	ldrh	r3, [r3, #4]
 800268a:	021b      	lsls	r3, r3, #8
 800268c:	b29a      	uxth	r2, r3
 800268e:	4b33      	ldr	r3, [pc, #204]	; (800275c <lcd_init+0x23c>)
 8002690:	809a      	strh	r2, [r3, #4]

                lcd_wr_regno(0xC501);       /* 读取ID高八位 */
 8002692:	f24c 5001 	movw	r0, #50433	; 0xc501
 8002696:	f7ff fb9d 	bl	8001dd4 <lcd_wr_regno>
                lcddev.id |= lcd_rd_data(); /* 读回0x00 */
 800269a:	f7ff fbc5 	bl	8001e28 <lcd_rd_data>
 800269e:	4603      	mov	r3, r0
 80026a0:	461a      	mov	r2, r3
 80026a2:	4b2e      	ldr	r3, [pc, #184]	; (800275c <lcd_init+0x23c>)
 80026a4:	889b      	ldrh	r3, [r3, #4]
 80026a6:	4313      	orrs	r3, r2
 80026a8:	b29a      	uxth	r2, r3
 80026aa:	4b2c      	ldr	r3, [pc, #176]	; (800275c <lcd_init+0x23c>)
 80026ac:	809a      	strh	r2, [r3, #4]
                HAL_Delay(5);                /* 等待5ms, 因为0XC501指令对1963来说就是软件复位指令, 等待5ms让1963复位完成再操作 */
 80026ae:	2005      	movs	r0, #5
 80026b0:	f002 fe62 	bl	8005378 <HAL_Delay>

                if (lcddev.id != 0x5510)        /* 也不是NT5510,尝试看看是不是SSD1963 */
 80026b4:	4b29      	ldr	r3, [pc, #164]	; (800275c <lcd_init+0x23c>)
 80026b6:	889b      	ldrh	r3, [r3, #4]
 80026b8:	f245 5210 	movw	r2, #21776	; 0x5510
 80026bc:	4293      	cmp	r3, r2
 80026be:	d028      	beq.n	8002712 <lcd_init+0x1f2>
                {
                    lcd_wr_regno(0xA1);
 80026c0:	20a1      	movs	r0, #161	; 0xa1
 80026c2:	f7ff fb87 	bl	8001dd4 <lcd_wr_regno>
                    lcddev.id = lcd_rd_data();
 80026c6:	f7ff fbaf 	bl	8001e28 <lcd_rd_data>
 80026ca:	4603      	mov	r3, r0
 80026cc:	461a      	mov	r2, r3
 80026ce:	4b23      	ldr	r3, [pc, #140]	; (800275c <lcd_init+0x23c>)
 80026d0:	809a      	strh	r2, [r3, #4]
                    lcddev.id = lcd_rd_data();  /* 读回0x57 */
 80026d2:	f7ff fba9 	bl	8001e28 <lcd_rd_data>
 80026d6:	4603      	mov	r3, r0
 80026d8:	461a      	mov	r2, r3
 80026da:	4b20      	ldr	r3, [pc, #128]	; (800275c <lcd_init+0x23c>)
 80026dc:	809a      	strh	r2, [r3, #4]
                    lcddev.id <<= 8;
 80026de:	4b1f      	ldr	r3, [pc, #124]	; (800275c <lcd_init+0x23c>)
 80026e0:	889b      	ldrh	r3, [r3, #4]
 80026e2:	021b      	lsls	r3, r3, #8
 80026e4:	b29a      	uxth	r2, r3
 80026e6:	4b1d      	ldr	r3, [pc, #116]	; (800275c <lcd_init+0x23c>)
 80026e8:	809a      	strh	r2, [r3, #4]
                    lcddev.id |= lcd_rd_data(); /* 读回0x61 */
 80026ea:	f7ff fb9d 	bl	8001e28 <lcd_rd_data>
 80026ee:	4603      	mov	r3, r0
 80026f0:	461a      	mov	r2, r3
 80026f2:	4b1a      	ldr	r3, [pc, #104]	; (800275c <lcd_init+0x23c>)
 80026f4:	889b      	ldrh	r3, [r3, #4]
 80026f6:	4313      	orrs	r3, r2
 80026f8:	b29a      	uxth	r2, r3
 80026fa:	4b18      	ldr	r3, [pc, #96]	; (800275c <lcd_init+0x23c>)
 80026fc:	809a      	strh	r2, [r3, #4]

                    if (lcddev.id == 0x5761)lcddev.id = 0x1963; /* SSD1963读回的ID是5761H,为方便区分,我们强制设置为1963 */
 80026fe:	4b17      	ldr	r3, [pc, #92]	; (800275c <lcd_init+0x23c>)
 8002700:	889b      	ldrh	r3, [r3, #4]
 8002702:	f245 7261 	movw	r2, #22369	; 0x5761
 8002706:	4293      	cmp	r3, r2
 8002708:	d103      	bne.n	8002712 <lcd_init+0x1f2>
 800270a:	4b14      	ldr	r3, [pc, #80]	; (800275c <lcd_init+0x23c>)
 800270c:	f641 1263 	movw	r2, #6499	; 0x1963
 8002710:	809a      	strh	r2, [r3, #4]
     * 里面(卡死在f_putc函数), 所以, 必须初始化串口1, 或者屏蔽掉下面
     * 这行 printf 语句 !!!!!!!
     */
    //printf("LCD ID:%x\r\n", lcddev.id); /* 打印LCD ID */

    if (lcddev.id == 0x7789)
 8002712:	4b12      	ldr	r3, [pc, #72]	; (800275c <lcd_init+0x23c>)
 8002714:	889b      	ldrh	r3, [r3, #4]
 8002716:	f247 7289 	movw	r2, #30601	; 0x7789
 800271a:	4293      	cmp	r3, r2
 800271c:	d102      	bne.n	8002724 <lcd_init+0x204>
    {
        lcd_ex_st7789_reginit();        /* 执行ST7789初始化 */
 800271e:	f000 fa17 	bl	8002b50 <lcd_ex_st7789_reginit>
 8002722:	e028      	b.n	8002776 <lcd_init+0x256>
    }
    else if (lcddev.id == 0x9341)
 8002724:	4b0d      	ldr	r3, [pc, #52]	; (800275c <lcd_init+0x23c>)
 8002726:	889b      	ldrh	r3, [r3, #4]
 8002728:	f249 3241 	movw	r2, #37697	; 0x9341
 800272c:	4293      	cmp	r3, r2
 800272e:	d102      	bne.n	8002736 <lcd_init+0x216>
    {
        lcd_ex_ili9341_reginit();       /* 执行ILI9341初始化 */
 8002730:	f000 fae4 	bl	8002cfc <lcd_ex_ili9341_reginit>
 8002734:	e01f      	b.n	8002776 <lcd_init+0x256>
    }
    else if (lcddev.id == 0x5310)
 8002736:	4b09      	ldr	r3, [pc, #36]	; (800275c <lcd_init+0x23c>)
 8002738:	889b      	ldrh	r3, [r3, #4]
 800273a:	f245 3210 	movw	r2, #21264	; 0x5310
 800273e:	4293      	cmp	r3, r2
 8002740:	d102      	bne.n	8002748 <lcd_init+0x228>
    {
        lcd_ex_nt35310_reginit();       /* 执行NT35310初始化 */
 8002742:	f000 fbf3 	bl	8002f2c <lcd_ex_nt35310_reginit>
 8002746:	e016      	b.n	8002776 <lcd_init+0x256>
    }
    else if (lcddev.id == 0x5510)
 8002748:	4b04      	ldr	r3, [pc, #16]	; (800275c <lcd_init+0x23c>)
 800274a:	889b      	ldrh	r3, [r3, #4]
 800274c:	f245 5210 	movw	r2, #21776	; 0x5510
 8002750:	4293      	cmp	r3, r2
 8002752:	d105      	bne.n	8002760 <lcd_init+0x240>
    {
        lcd_ex_nt35510_reginit();       /* 执行NT35510初始化 */
 8002754:	f001 fb65 	bl	8003e22 <lcd_ex_nt35510_reginit>
 8002758:	e00d      	b.n	8002776 <lcd_init+0x256>
 800275a:	bf00      	nop
 800275c:	200005bc 	.word	0x200005bc
    }
    else if (lcddev.id == 0x1963)
 8002760:	4b29      	ldr	r3, [pc, #164]	; (8002808 <lcd_init+0x2e8>)
 8002762:	889b      	ldrh	r3, [r3, #4]
 8002764:	f641 1263 	movw	r2, #6499	; 0x1963
 8002768:	4293      	cmp	r3, r2
 800276a:	d104      	bne.n	8002776 <lcd_init+0x256>
    {
        lcd_ex_ssd1963_reginit();       /* 执行SSD1963初始化 */
 800276c:	f002 fad9 	bl	8004d22 <lcd_ex_ssd1963_reginit>
        lcd_ssd_backlight_set(100);     /* 背光设置为最亮 */
 8002770:	2064      	movs	r0, #100	; 0x64
 8002772:	f7ff fde9 	bl	8002348 <lcd_ssd_backlight_set>
    }

    /* 初始化完成以后,提速 */
    if (lcddev.id == 0x9341 || lcddev.id == 0x1963 || lcddev.id == 0x7789)  /* 如果是这几个IC, 则设置WR时序为最快 */
 8002776:	4b24      	ldr	r3, [pc, #144]	; (8002808 <lcd_init+0x2e8>)
 8002778:	889b      	ldrh	r3, [r3, #4]
 800277a:	f249 3241 	movw	r2, #37697	; 0x9341
 800277e:	4293      	cmp	r3, r2
 8002780:	d00b      	beq.n	800279a <lcd_init+0x27a>
 8002782:	4b21      	ldr	r3, [pc, #132]	; (8002808 <lcd_init+0x2e8>)
 8002784:	889b      	ldrh	r3, [r3, #4]
 8002786:	f641 1263 	movw	r2, #6499	; 0x1963
 800278a:	4293      	cmp	r3, r2
 800278c:	d005      	beq.n	800279a <lcd_init+0x27a>
 800278e:	4b1e      	ldr	r3, [pc, #120]	; (8002808 <lcd_init+0x2e8>)
 8002790:	889b      	ldrh	r3, [r3, #4]
 8002792:	f247 7289 	movw	r2, #30601	; 0x7789
 8002796:	4293      	cmp	r3, r2
 8002798:	d10c      	bne.n	80027b4 <lcd_init+0x294>
    {
        /* 重新配置写时序控制寄存器的时序 */
        fsmc_write_handle.AddressSetupTime = 3;
 800279a:	2303      	movs	r3, #3
 800279c:	607b      	str	r3, [r7, #4]
        fsmc_write_handle.DataSetupTime = 3;         
 800279e:	2303      	movs	r3, #3
 80027a0:	60fb      	str	r3, [r7, #12]
